:020000040800F2
:10000000883A0010850200085D5D0008E14D000897
:100010002D5D0008B51E0008D97E00080000000014
:10002000000000000000000000000000A501000822
:10003000AB20000800000000010200086D710008FC
:100040009F0200089F0200089F0200089F0200080C
:100050009F0200089F0200089F0200089F020008FC
:100060009F0200089F0200089F0200089F020008EC
:100070009F020008712000089F0200089F020008EC
:100080009F0200089F0200089F0200089F020008CC
:100090009F0200089F0200089F0200089F020008BC
:1000A0009F0200089F020008357200089F020008A6
:1000B0004172000800000000000000009F020008DC
:1000C0009F0200089F0200089F0200089F0200088C
:1000D0009F0200085D7B00089F020008CD7B00089E
:1000E0009F0200089F0200080000000000000000BE
:1000F0000000000000000000000000000000000000
:10010000000000009F020008000000009F0200089D
:1001100000000000000000004D7200085972000845
:100120009F0200089F0200089F0200089F0200082B
:100130009F02000800000000000000000000000016
:100140009F0200089F0200089F02000800000000B4
:100150009F0200089F0200089F0200089F020008FB
:100160009F0200089F0200089F0200080000000094
:100170009F0200089F02000800000000000000002D
:100180009F0200089F0200089F020008DFF810D0BD
:1001900001F06EF8004800472DE70108AFF300803A
:1001A000883A00102C4B1968086800F05AB880F3A0
:1001B0000988BFF36F8F4FF0000080F311887047FC
:1001C0000000000008480068006880F308884FF0CD
:1001D000000080F3148862B661B6BFF34F8FBFF39F
:1001E0006F8F00DF00BF00BF08ED00E0DFF80C00FC
:1001F000016841F470010160704700BF88ED00E0C4
:10020000EFF30980BFF36F8F134B1A681EF0100FC6
:1002100008BF20ED108A20E9F04F106009B44FF0BC
:10022000500080F31188BFF34F8FBFF36F8F22F020
:10023000FBFE4FF0000080F3118809BC19680868C4
:1002400000F014B81EF0100F08BF00F014B880F3CF
:100250000988BFF36F8F704708000010EFF3058027
:10026000704730C8B0E8C04FFFF7A1BF30C8B0E852
:10027000C04FFFF7E7BFB0EC088AB0EC08CAFFF741
:10028000E6BF00000648804706480047FEE7FEE755
:10029000FEE7FEE7FEE7FEE7FEE7FEE7FEE7FEE736
:1002A000257200088D0100082DE9F05F0546002049
:1002B00092469B4688460646814640241BE02846D7
:1002C00041464746224600F022FE53465A46C01A8F
:1002D000914110D311461846224600F009FE2D1A0E
:1002E00067EB01084F4622460120002100F000FE86
:1002F00017EB00094E41201EA4F10104DFDC484643
:1003000031462A46434600F000B830BCBDE8C09FE5
:10031000A0F14101192900D82030704738B5D0E943
:100320000221491E01EB410102EBC1014268C1EB10
:10033000011102EB81010268C1EB011102EB8102A4
:10034000D0E9043101EB410103EB81013023A1F538
:10035000527191FBF3F4174D6C4302EBC41291FB05
:10036000F3F403FB141100921A2902DB124B1A4416
:1003700000920C2291FBF2F3104C6343009C04EBBF
:10038000C313009391FBF2F302FB13110C4A08E034
:10039000491E40F2A324535C6343009C04EBC31347
:1003A00000930029F4DC0146684600F0D3FD009874
:1003B00038BD00003F0C0F008051010067C20300F0
:1003C00058D8020810B5431A934209D283188818E6
:1003D00003E010F8011D03F8011D521EF9D210BDF3
:1003E00040EA01039B0703D009E008C9121F08C0B7
:1003F000042AFAD203E011F8013B00F8013B521E37
:10040000F9D210BDD2B201E000F8012B491EFBD297
:1004100070470022F6E710B513460A46044619460F
:10042000FFF7F0FF204610BD30B505462A460B46C3
:1004300012F8010B13F8014B08B1A042F8D01CB11F
:10044000002802D06D1CF1E7284630BD421C10F890
:10045000011B0029FBD1801A704710B5002200E073
:10046000521C835C8C5CA34201D1002BF8D1D8B222
:10047000E1B2401A10BD034611F8012B00F8012B20
:10048000002AF9D11846704730B5054600200346CA
:1004900000E05B1C934205D2EC5CC85C201A01D1E1
:1004A000002CF6D130BD00000FB400B58DB010A9FE
:1004B00009900B9000914FF0FF300A9000200C90B3
:1004C00005480690054807906A4609A80F9900F06C
:1004D0009BFD0DB05DF814FB2510000843100008CB
:1004E0002DE9FF5F1D464FF0FF3BD5E901469146E0
:1004F0005F464FF00008A9697F1C01988847296A68
:10050000824688470028F6D1BAF1FF3F0CD024F488
:10051000C064002E19DD600614D5BAF12B0F09D086
:10052000BAF12D0F0ED103E0584604B000F07EB8AA
:1005300044F48064A9697F1C01988847761E82462E
:10054000002E02DDBAF1300F03D0B9F1000F26D032
:1005500032E0A969761E44F400747F1C0198884734
:100560008246002E05DDBAF1780F06D0BAF1580F99
:1005700003D0B9F1000F10D01EE0B9F1000F02D086
:10058000B9F1100F18D1A969761E24F400747F1CEC
:10059000019888478246102002E0082000E00A20E7
:1005A000814609E008FB0908A969761E44F4007435
:1005B0007F1C019888478246002E05DD494650463B
:1005C00000F00EFD0028EDDAE96901988847A005E2
:1005D00002D46FF00100A8E7E00725D1600613D52B
:1005E000600502D5C8F1000000E0404629680A1DF8
:1005F0002A600968220501D5087015E0220701D597
:10060000088011E008600FE02868011D296000687B
:10061000210502D580F8008006E0210702D5A0F868
:10062000008001E0C0F8008038467EE730BCBDE8BD
:10063000C09F2DE9FF5FD2E901A74FF00008916943
:1006400099461446DDF838B0464601988847054675
:1006500059EA0B0005D009E0A169761C019888478A
:100660000546216A284688470028F5D1681C03D032
:100670005FEACA7005D015E04FF0FF3004B000F01B
:1006800048B82068011D2160D0F800800AE05FEAC8
:10069000CA7001D108F8015BA169761C7F1E019820
:1006A00088470546002F1ADD681C18D0B9F1000FE5
:1006B0000DD0E81705EBD060421120F01F0059F86B
:1006C00022102A1A012090400142E0D107E0BBF13C
:1006D000000FDCD1216A284688470028D7D0E1697D
:1006E00001988847BBF1000F07D1002E05DD5FEAB6
:1006F000CA7002D1002188F80010A068B84203DD5A
:10070000BBF1000F03D017B16FF00100B6E7304620
:10071000B4E730BCBDE8C09F2DE9FF4F087883B037
:100720009946FF2805D0491C2D2804D0002400201C
:1007300008E000200BE00124F9E700EB800003EB68
:100740004000491C0B78FF2BF7D104B14042002335
:100750000293147819461D462D2C01D02B2C04D160
:10076000521C2D2C13D000240294AA461478FF2C7E
:100770000FD00A25A3FB057801FB05814FF0000C83
:1007800003FB0C11521CE3194AEB0101EEE70124B3
:10079000EAE7814453EA010002D019F5C87F06DA7E
:1007A00003980021C0E9001107B000F065B90025E9
:1007B000AE4E2F46DFF8B882184600F035FDCDE981
:1007C0000001B9F1000002DAC9F1000400E00446BA
:1007D0000023A74A1AEB030B42EB045A12E0E0078E
:1007E00007D02A4633463846414600F0F7F9074617
:1007F00088462A4633461046194600F0EFF905466A
:100800000E466410002CEAD1DDE90001B9F1000FB9
:100810005A46534606DA00F056FA3A46434600F086
:1008200052FA05E000F0DAF93A46434600F0D6F90C
:10083000029A0AB181F00041039AC2E90001B3E7CC
:100840002DE9FF4F1F468DB0D7E901464FF0FF3825
:100850002E2045464FF000090B90B9696D1C0E988B
:100860008847396A824688470028F6D1BAF1FF3FA7
:100870000AD024F4D064002E11DDBAF12B0F08D079
:10088000BAF12D0F0BD102E0404611B08DE744F4D0
:100890008064B9696D1C0E9888478246761E694649
:1008A000600501D52D2000E02B208DF8000001F11E
:1008B000010B0DF1200809E0B9696D1C0E988847FD
:1008C00082460F9844F40074761E0560002E02DD07
:1008D000BAF1300FF0D00B998A453ED144F0800434
:1008E00006E00F99681CA9F1010944F4007408603E
:1008F000B9696D1C761E0E98884782463028F0D064
:100900002BE00B998A4505D1200603D444F08004DE
:10091000761E18E0504607F001FD08B30DF11301F3
:10092000761E44F400748B4508D2AAF130000BF80F
:10093000010B200607D5A9F1010003E0200602D42F
:1009400009F101008146A00502D50F99681C0860D5
:10095000B9696D1C0E9888478246002ED1DC53E0A1
:10096000002E51DDBAF1650F02D0BAF1450F4BD11F
:10097000A00549D5B9696D1C24F44074761E0E9803
:1009800088478246002E0CDD2B2804D0BAF12D0FAB
:1009900007D144F48074B9696D1C0E98884782466B
:1009A000761EE00501D52D2100E02B2108F8011B62
:1009B000CDF82C8021E00DF12901761E44F400745D
:1009C00088450CD2AAF1300010F0FF0088F8000032
:1009D00002D10B99884509D908F1010806E0E00524
:1009E00001D5244801E042F20F708146B9696D1CBF
:1009F0000E98884782460F980560002E04DD504609
:100A000007F08CFC0028D6D1F9690E988847FF20A2
:100A10008BF8000088F800000020069007904B46F5
:100A20006A4608A906A8FFF777FEA00502D46FF072
:100A300001002AE714F0240F0AD0E00714D1DDE901
:100A400006123868031D3B600068C0E900120BE025
:100A5000DDE9060100F01AFA0146E00704D1386822
:100A6000021D3A600068016028460EE7000014404D
:100A70000000F03FF1D8FFFF30BCBDE8C08F2DE98A
:100A8000FE4F804681EA0300C00F0C46009021F023
:100A9000004123F00045B8EB0200A94105D24046D1
:100AA000214690461C460B46024623F00040104368
:100AB00047D0270DC7F30A00C3F30A510290401A2A
:100AC000019040286BDAC3F3130040F4801B0098B8
:100AD000924620B10023D2EB030A63EB0B0B019883
:100AE0005946C0F14002504600F002FA06460D4653
:100AF00050465946019A00F01AFA10EB080061417D
:100B0000002487EA115284EAE7731A4340D0009A1E
:100B100062B3019A012A4FEA075215DC001B61EB10
:100B200002014FF0004202EA0752CDE90042001CE8
:100B300041F5801132462B4600F028FB03B000F04F
:100B400045B840462146F9E7001B61EB0201001C55
:100B500041F5801300185B412018A2F5001747EB00
:100B6000030140EAD570B6196D4111E06D084FEAF6
:100B7000360645EAC0754FEA0752001B61EB0201D9
:100B8000001C41F5801149084FEA3000001951411D
:100B900032462B4603B000F01CB800F0E8BA0098CB
:100BA000012240000023D0EB020263EBE0730098C7
:100BB00021464FEAE074B8EB000061EB0401E9E77D
:100BC00083F000435BE781F0004158E730BCBDE8AB
:100BD000C08F30BCBDE8C04FFFF7DFBF2DE9FE4F2F
:100BE00081EA030404F0004421F0004100944FF036
:100BF000000B23F0004350EA01045ED052EA0304E4
:100C00005BD0C3F30A54C1F30A552C44A4F2F33465
:100C10000194A0FB0254C1F3130141F48011C3F30A
:100C2000130343F4801301FB024400FB034E840AC8
:100C3000970A44EA815447EA8357A4FB0768029560
:100C40008D0A05FB07854FEA932C04FB0C542705FE
:100C5000029D4FEA065847EA1637B5EB08056EEBDA
:100C6000070C870E920E47EA811742EA8312A7FB10
:100C70000201B6EB0B0164EB00042B0D43EA0C33CD
:100C80005E1844EB1C50DA465146E7FB0201C5F3FF
:100C900013044FEA0B3343EA14534FEA0432019C26
:100CA00043EA0603A4F10C040294009CCDE900B4CD
:100CB00000F06CFA03B000F003B800200146F9E739
:100CC00030BCBDE8C08F2DE9F04D81EA030404F08B
:100CD000004B21F0004514464FF0000A23F000417C
:100CE00050EA050220D054EA01021DD0C5F30A578C
:100CF0000246C5F31303C1F31300C1F30A5640F4CF
:100D0000801543F48013A7EB0608101BD64608F2A3
:100D1000FD3873EB050002D308F1010801E09218D9
:100D20005B41B8F1000F03DA00200146BDE8F08D09
:100D300000204FF48011064684460EE0171B73EB2B
:100D4000050705D3121B63EB050306434CEA010CB0
:100D500049084FEA300092185B4150EA0107EDD193
:100D600052EA030012D082EA040083EA0501084334
:100D700005D0101BAB4106D20122002306E0002261
:100D80004FF0004302E06FF0010253101AEB06002F
:100D90004CEB085110EB0A0041EB0B01BDE8F04DA4
:100DA00000F0E5B90EB5C10F80EAE0700844CA074B
:100DB000002140F233438DE80E000A460B4600F056
:100DC000E5F903B000BD70B5C1F30A5201F000456A
:100DD0000024C1F3130140F2FF3341F480119A4221
:100DE00001DA002070BD40F233439A42A2F233424E
:100DF00003DC524200F08BF800E090402C43F1D02D
:100E0000404270BD00F0004230F000400AD0C10DF9
:100E100001F56071C0F3160042EA0151C2084007B3
:100E200011437047002001467047000030B5041E92
:100E300071F1000404DB4FF00044404264EB010117
:100E4000141E73F1000405DB1C464FF000435242B0
:100E500063EB04038B4208BF824230BD30B5041EF1
:100E600071F1000404DB4FF00044404264EB0101E7
:100E7000141E73F1000405DB1C464FF00043524280
:100E800063EB0403994208BF904230BD01F0004378
:100E900030B421F0004150EA010206D00A0DA2F55B
:100EA0006072C1F31301002A02DC30BC00207047DD
:100EB000440F44EAC104C100E01830BC00EBC2504A
:100EC00000F01EB930B50B46014600202022012457
:100ED00009E021FA02F59D4205D303FA02F5491B08
:100EE00004FA02F52844151EA2F10102F1DC30BD1E
:100EF000202A04DB203A00FA02F1002070479140DA
:100F0000C2F1200320FA03F3194390407047202ACE
:100F100004DB203A21FA02F00021704721FA02F3A3
:100F2000D040C2F120029140084319467047202A60
:100F300006DBCB17203A41FA02F043EAE07306E001
:100F400041FA02F3D040C2F1200291400843194611
:100F50007047000010B500683C22B0FBF2F302FBC2
:100F60001303B0FBF2F00B60B0FBF2F302FB1303D0
:100F7000B0FBF2F018224B60B0FBF2F302FB13035C
:100F8000B0FBF2F0021D8B600723B2FBF3F403FB0E
:100F90001422800040F2B55300F66C308A61B0FB39
:100FA000F3F2B0FBF3F403FB1400443280084A610F
:100FB000C8613B2802D3920700D0401C0022074C96
:100FC00013460A61E25C824203D8801A5B1C0B6103
:100FD000F8E7401CC860084610BD000064D802084D
:100FE0003A2800D2303820F02002412A01D3A2F161
:100FF0003700884201D34FF0FF3070470268114438
:101000001378016018467047D16004495161044962
:10101000116200211161114600F042B9FD0F000874
:1010200095120008426842B1016811F8013B23B1F2
:10103000521EC0E90012184670470121C160881E87
:10104000704742685AB1C368016843B983688B42EC
:1010500005D0491E521CC0E90012002070474FF015
:10106000FF3070470FB4002300B589B00CA9009180
:101070000B996FF00042CB601E4B06931E4B0793FB
:101080000423CDE901321D4A089202466B46002036
:10109000FFF7D6FB09B05DF814FB70B586B00646C5
:1010A0004FF0FF300091CDE90101002015460C46BC
:1010B00004903246694604A8FFF7D4FF024604981C
:1010C000211825B108B1084600E0204628600498A0
:1010D00000280DD0002A02DD0098884208D0081BA5
:1010E0000094CDE901043246694604A8FFF7BAFF2F
:1010F00006B070BD251000084310000895120008C6
:101100000029A8BF7047401C490008BF20F001001B
:10111000704710B4B0FA80FC00FA0CF050EA0104F9
:1011200004BF10BC704749B1CCF1200421FA04F48B
:1011300011FA0CF118BF012121430843A3EB0C0164
:10114000CB1D4FEA00614FEA102042BF002010BCC7
:10115000704700EBC35010440029A4BF10BC704777
:10116000401C490008BF20F0010010BC704710B5BA
:10117000141E73F1000408DA401C41F100019218BA
:101180005B411A4301D120F0010010BD2DE9F04D63
:1011900092469B4611B1B1FA81F202E0B0FA80F2B8
:1011A00020329046FFF7A4FE04460F4640EA0A00AC
:1011B00041EA0B0153465A46084313D0114653EAFD
:1011C000010019D0C8F140025046FFF7A0FE0546C5
:1011D0000E46504659464246FFF78AFE084305D060
:1011E000012004E020463946BDE8F08D002005438B
:1011F00046EAE0762C4337430A986305E40AA0EBFD
:1012000008000022FD0A44EA47540A3002D50020B3
:101210000146E9E7010510196941DDE908450019B2
:101220006941BDE8F04DA2E70EB540F233420292AB
:101230000022CDE900221346FFF7A8FF03B000BD4E
:10124000C1F30A52C1F3130140F2FF3341F480119C
:101250009A4202DA00200146704740F233439A4234
:10126000A2F2334202DC5242FFF751BEFFF740BE0A
:10127000064C074D06E0E06840F0010394E80700E3
:1012800098471034AC42F6D3FEF784FF40DA0208E8
:1012900080DA0208C0B24FF4F05100F09DB90000AE
:1012A0002DE9F34F8BB04FF0000801F10C000C4614
:1012B0004FF0010B46460DF1080A019062690121C9
:1012C00001989047051E2DD0252D2CD0216A8847E6
:1012D000C0B16269012101989047216A88470028BE
:1012E000F7D1411E62690198904700E0761CA16920
:1012F0000B988847216A88470028F7D1E1690B9845
:101300008847DBE7A1690B9888470746A84201D1C7
:10131000761CD3E7E1690B9888477F1C02D1B8F1AE
:10132000000F6FD047E1002762693D4639460198BA
:1013300090472A2804D1626901210198904701252C
:10134000DFF888926269012101989047A0F130018D
:101350000A290AD24F45E5DC07EB870100EB41077C
:10136000303FDFD445F01005ECE7E90601D46FF01B
:1013700000476C280AD04C2814D0682815D06A2859
:101380000DD074281CD07A281AD01DE06269012182
:10139000019890476C2802D045F0040514E045F010
:1013A00002050DE045F020050AE06269012101987F
:1013B0009047682802D045F0080505E045F400652F
:1013C0006269012101989047C4E9015765283DD021
:1013D00019DC58287AD00CDC452837D004DC2528C5
:1013E00026D0412831D131E046282FD047282CD1B2
:1013F0002CE05B2877D0612828D063287CD0642833
:1014000023D15AE0D1E06F2848D008DC66281DD0EF
:1014100067281BD0692821D06E2816D127E07028B4
:1014200045D0732868D0752847D078280DD14DE075
:10143000A1690B988847054625283FF469AFE16903
:101440000B9888476D1C3FF46AAFB4E023466A46A8
:101450006FF001000B99FFF7F3F99FE045F04000B2
:101460006060A80723464FF0000236D43EE0E8074C
:101470007FF447AF2068011D21600068290501D570
:1014800006701BE7290701D5068017E7A90703D5D2
:10149000F117C0E9006111E706600FE745F0400071
:1014A0006060A80723464FF0080216D41EE040F6FD
:1014B0000E0125EA0100606016E045F04000606022
:1014C000A80723464FF00A0207D40FE045F040007A
:1014D0006060A80708D5234610226FF001000B9921
:1014E000AFF300805AE007E0234610226FF00100BE
:1014F0000B99FEF7F5FF51E04FF000094F464B46C0
:10150000632802D05B2807D041E02079C00601D4CF
:101510000120A06001273AE062690121019890470B
:101520005E2805D14FF0010962694946019890474C
:10153000216939B900210A46534643F82120491C44
:101540000829FADBB0B3216969B9C11700EBD16290
:1015500053110AEB830122F01F02821A01200B684B
:10156000904003430B6062690121019890475D2818
:10157000E8D1B9F1000F09D00020514651F82020E0
:10158000D24341F82020401C0828F7DB02AB22465A
:1015900000976FF001000B99FFF74BF800280CDA69
:1015A000401C08D1BBF1000F05D04FF0FF300DB04B
:1015B00000F00EB8FFE74046F9E7E90701D108F16E
:1015C000010806444FF0000B78E60000CCCCCC0CB0
:1015D00030BCBDE8C08F00007F2801D9002208E0A0
:1015E000064A02EB5002C007127800D1120902F03D
:1015F0000F020120904008407047000070D8020898
:1016000070B58C1810F8015B15F0070301D110F8C4
:10161000013B2A1106D110F8012B03E010F8016BF1
:1016200001F8016B5B1EF9D12B0705D40023521E74
:101630000DD401F8013BFAE710F8013BCB1A921CDC
:1016400003E013F8015B01F8015B521EF9D5A142DA
:10165000D8D3002070BD00001CB541A004F01CF8D8
:10166000322021F057FC0A2140A000F0DDFC0028C8
:1016700073D13FA004F010F8642021F04BFC1E2130
:101680003AA000F0D1FC012868D03C4A3CA11446A5
:10169000A2F50770FEF708FF21463DA006F0AEFC5C
:1016A0003DA12046FEF7C0FE002856D03BA003F027
:1016B000F3FF322021F02EFC14212CA000F0B4FC0A
:1016C00000284AD13BA003F0E7FF322021F022FCA2
:1016D0001E2126A000F0A8FC00283ED13CA003F06B
:1016E000DBFF642021F016FC1E2120A000F09CFCF2
:1016F000002832D16A4638A13B48FEF7D5FE1F4A82
:101700003AA118326846FEF7CFFE39A003F0C4FFB5
:10171000642021F0FFFB1E2114A000F085FC0128AD
:101720001CD0164A35A1143A14462F48FEF7BCFEC9
:10173000214636A006F062FC37A12046FEF774FE73
:1017400058B136A003F0A8FF322021F0E3FB1421AA
:1017500006A000F069FC002800D001201CBD00009C
:1017600041542B4350534D533D3000004F4B00002C
:1017700041542B4347534E3D30000000606B002026
:10178000252A5B5E4D5D255B5E0D5D0D0000000052
:10179000736E3D25730D0A004D50000041542B51CE
:1017A0004D544346473D2273657373696F6E222C17
:1017B000302C300041542B514D544346473D226B51
:1017C000656570616C697665222C302C32300000C2
:1017D00041542B4353510000252A5B5E3A5D3A2069
:1017E000255B5E2C5D00000044690020256400003C
:1017F00041542B4347534E3D31000000252A5B5E88
:101800003A205D3A20255B5E0D5D0000696D6569DB
:101810003D25730D0A0000003836000041542B515D
:101820004D544346473D226563686F6D6F64652282
:101830002C302C30000000009EB0A14D9B4EDFF8F4
:1018400070B2DFF870829C4FDFF87092002405F5CB
:10185000077A00BF03F056FE95F8310210B1012857
:101860002AD01EE13068142803D295F830020128EE
:10187000F7D1FFF7F1FE01280AD003F019FE03F0BB
:10188000B3FD1DF025FB95F83102012803D010E0CF
:1018900085F8314205E18B493460A8F80040012009
:1018A000087009F0FCF84FF4967021F033FB09F052
:1018B000EFF805F003FFF4E03068782802D305F074
:1018C000FDFE2FE0B8F800001E282BD33421684617
:1018D000FEF79FFD7A4846214838FEF79AFD784882
:1018E000524679A1483806F099FB3878FF280FD086
:1018F00020F0EAFA02467CA1684606F08FFB7048A9
:101900006946483803F0F6FC012806D040B109E0EA
:1019100020F0DAFA02467DA1EEE705F0ADFB01E02A
:10192000A8F80040B878012825D1F8780228FBD122
:10193000642103A8FEF76DFD614846214838FEF793
:1019400068FD5F48524678A1483806F067FB20F0F2
:10195000BBFA00908148524681A1838803A806F013
:101960005DFB574803A9483803F0C4FC89F801001F
:10197000012801D018B166E005F07EFB63E09BF81A
:1019800008105846012902D1417A032902D0017B6F
:10199000012954D11C941D94017B01293FD09BF84F
:1019A0000B007A4B00EB800202EBC00278485978BA
:1019B00000EB820090F8320008441D9019781C91C9
:1019C0003C2803DB3C38491CCDE91C10642103A8EA
:1019D000FEF71FFD3A4846214838FEF71AFD384801
:1019E00052466CA1483806F019FB20F06DFA034608
:1019F0007548DDE91C1290F800C08DE806105246CB
:101A0000724903A806F00AFB2D4803A9483803F0E1
:101A100071FC89F801000128AED080B113E09BF879
:101A20000D001DAB00EB800101EBC00158481CAA62
:101A300000EB810066A11130FEF736FDC6E7A8F87D
:101A400000400320F870387902282AD195F8330233
:101A5000012826D195F83202012822D118484621C2
:101A60004838FEF7D6FC164852465CA1483806F0C6
:101A7000D5FA20F029FA0346524666A1684606F0D8
:101A8000CDFA0F486946483803F034FC89F8010064
:101A9000012801D018B104E005F0EEFA01E085F864
:101AA00033424FF4FA7021F035FAD3E608000020F3
:101AB000907F0020000000207403001050000010F0
:101AC000446900206800001041542B514D5450557A
:101AD000423D302C302C302C302C2225732F4243A9
:101AE000323630592200000068617665206120633B
:101AF0006172642C202274696D657374616D70224B
:101B00003A22256430303022000000006E6F2063DE
:101B10006172642C2274696D657374616D70223A10
:101B2000222564303030220041542B514D54505501
:101B3000423D302C302C302C302C226C6A72682FB5
:101B40006E6562756C697A65722F25732F6C697189
:101B50007569645765696768742200005C0300104A
:101B60007B22736E223A222573222C2277656967C5
:101B70006874223A25642C2274696D657374616DF2
:101B800070223A222564303030227D003801002056
:101B90007C6B002041542B514D545055423D302C0C
:101BA000302C302C302C226C6A72682F6E65627576
:101BB0006C697A65722F25732F6E65787441637432
:101BC000696F6E22000000000C0000202CD9020872
:101BD000253032643A2530326400000041542B51E4
:101BE0004D545055423D302C302C302C302C226C32
:101BF0006A72682F6E6562756C697A65722F2573DB
:101C00002F776569676874496E63726561736522D1
:101C1000000000007B22736E223A222573222C22C0
:101C200074696D657374616D70223A222564227D3A
:101C30000000000038B5040300F092FD05462020A6
:101C40008DF80000200C8DF80100200A8DF80200AC
:101C50008DF8034000F000F94FF09044002210216D
:101C6000204600F077FD4FF47A73042269460C4851
:101C700001F015FF01221021204600F06BFD00BF8E
:101C800000F010F80228FBD000F06AFD401B40F67F
:101C9000B831884201D9032038BD002038BD00008A
:101CA000E40100107CB511A04FF090440068009052
:101CB00000221021204600F04DFD4FF47A752B468E
:101CC000012269460A4801F0EAFE2B46012201A9D9
:101CD000074801F01DFE01221021204600F03AFDC8
:101CE0009DF80400C00700D002207CBD0500000064
:101CF000E401001038B50DA04FF09044006800904A
:101D000000221021204600F025FD4FF47A730222B4
:101D10006946074801F0C3FE01221021204600F069
:101D200019FDBDE83840FFF7BDBF0000669900000F
:101D3000E4010010F8B5054603208DF80000080CFA
:101D40008DF80100080A8DF8020014468DF8031082
:101D50004FF0904700221021384600F0FBFC4FF472
:101D60007A76334604226946094801F098FEA2B209
:101D700033462946064801F0CBFD08B10120F8BDE5
:101D800001221021384600F0E5FC0020F8BD0000DB
:101D9000E40100102DE9F84F16460C46834600F08A
:101DA000DFFC0746002001E000F58070A042FBD96F
:101DB000051BB54200D9354604EB060A4FF002096F
:101DC0004FF090484FF47A768DF80090200C8DF803
:101DD0000100200A8DF802008DF8034000F03CF865
:101DE00000221021404600F0B5FC3346042269462B
:101DF000164801F054FE30B9AAB23346594613488A
:101E000001F04DFE10B1012000F022B80122102196
:101E1000404600F09FFC06E000F0A2FCC01BB04270
:101E200001D90320F0E7FFF73DFF0228F4D02C444E
:101E300004F58070AB44504502D9AAEB040501E0DB
:101E40004FF480755445BFD30020DDE7E401001056
:101E500018BCBDE8E08F0000F8B514A00068009041
:101E600000F07EFC04464FF09046002210213046E0
:101E700000F070FC4FF47A752B46012269460C483D
:101E800001F00DFE01221021304600F063FC00BF7E
:101E9000FFF708FF0228FBD000F062FC001BA842FD
:101EA00001D90320F8BD0020F8BD000006000000A5
:101EB000E4010010FEE7000070B5414C424D414E78
:101EC000217A686A51B3E27A40A1521C17F0A7F94F
:101ED000E07A00EB800101EBC00006EB800202F12A
:101EE0001B033DA11132E86A17F099F9E07A00EB83
:101EF000800101EBC00006EB800039A190F8322090
:101F0000A86A17F08CF9E07A00EB800101EBC000C1
:101F100006EB800035A1828EE86D38E0217B002938
:101F200039D0627B32A1521C17F079F9607B00EB4B
:101F3000800101EBC00006EB800202F11B0326A129
:101F40001132E86A17F06BF9607B00EB800101EB5E
:101F5000C00006EB800022A190F83220A86A17F09A
:101F60005EF9607B00EB800101EBC00006EB8000B6
:101F70001EA1828EE86D17F052F9607B00EB8001A4
:101F800001EBC00006EB8002686B20A11132BDE8B6
:101F9000704017F044B91EA117F041F921A1E86A79
:101FA00017F03DF91FA1A86A17F039F91DA1686B58
:101FB00017F035F9E86DBDE870401AA117F02FB998
:101FC000907F00207C6B00206C000010E4BBBBE520
:101FD0008AA125640000000025737E25730000009F
:101FE000E997B4E99A9425646D696E0025645300FD
:101FF000E4B88BE4B880E6ACA1E4BBBBE58AA1E41D
:10200000B8BA3AE4BBBBE58AA12564002573000099
:10201000E4BB8AE697A5E5B7B2E697A0E4BBBBE5CB
:102020008AA100002000000070B50D46064600247D
:102030000DE00CA10D48FEF7F7F908B1012070BDC5
:10204000AC420CD2641CE4B2642020F063FF03F0C5
:1020500059FA31460548FEF7E7F90028E9D0002093
:1020600070BD00004552524F5200000044690020EC
:10207000014800F078B90000A804002030B590F8BD
:10208000444004F01C050124AC40056C6C600468FD
:1020900063608368102B036803D099600068C26096
:1020A00030BD9A600068C16030BD704772B6FEE70F
:1020B00010B540F21244224600211A48FFF73AFEBA
:1020C00018480078142803D921461648FEF7A1F9CC
:1020D00014211548FEF79DF9042240F21C411348D3
:1020E000FFF728FE114800240188827849BA0904C4
:1020F00041EA0221C27811430D4A4161914201D95E
:10210000491C00D14461012240F22A410948FFF7ED
:1021100011FE094890F83212012901D980F83242A3
:1021200010BD00007C6B0020907F00205C0300103D
:1021300000127A00766B00204469002016F03CFB08
:102140000A201CF09BFF1AF03FFE20F0D9FC1BF088
:10215000F5FE0A201CF092FF1BF0F0FE0A201CF096
:102160008DFF4FF47A7000F0F3F9012291022E48AE
:1021700000F0F0FA2D4F00252D4CDFF8B8802E4EE0
:1021800015E02078012806D0032808D0042826D09E
:10219000052807D126E000221321386826E0FFF742
:1021A0008BFE25701BF0CAFE64201CF067FF23A184
:1021B0003046FEF739F90028E3D01DF06BFD204EC4
:1021C00000220721306814F08FFEB9464746207878
:1021D000062819D2DFE800F0180D121E212403F0A2
:1021E000BFFDDEE700221D21D8F8000014F07CFEC0
:1021F000D7E700221321D9F8000002E000220721CE
:10220000306814F071FE25701BF098FE64201CF0FD
:1022100035FFDCE7FFF750FEF5E703F0A1FDF2E73D
:1022200000221D213868ECE7000400487800001007
:1022300068000010AC000010606B00204D504E0094
:102240007400001010B5184C9FED160A84ED020AB8
:1022500002F0B8FD2061024614A0616905F0CEFECF
:10226000D4E9040188421AD9401A00EE100A94ED0C
:10227000031AF8EE400A80EE810AF6EE000A84EDB9
:10228000020A30EE200ABCEEC00A10EE100A81B23B
:10229000A1800CA005F0B2FE0E490120C87094ED9B
:1022A000020A10BD000000005C030010626173654B
:1022B0003D25642C7265616C2076616C3D25640D52
:1022C0000A000000D6D8C1BFD6B5CAC7A3BA2564D4
:1022D0000D0A00007403001010B502F073FD0A49E6
:1022E000020E48610A70020C4A70020A8A70C870B5
:1022F000042240F21C41044805F0F0FDBDE8104006
:1023000002A005F07BBE00005C030010676574202E
:102310006F6B0D0A0000000010B590F82510002426
:10232000022903D00421C16301241AE001680A686C
:1023300022F00E020A6001680A6822F001020A60B7
:1023400090F84410036C01F01C02012101FA02F222
:102350005A6080F82510002180F82410816B01B1AB
:102360008847204610BDF0B4016C0C6801680D6808
:1023700090F8442002F01C06042202FA06F32342DD
:1023800011D06B070FD50B689B0603D40B6823F0A5
:1023900004030B6090F8441001F01C018A40016CAA
:1023A0004A60016B1DE0022303FA06F727424FF053
:1023B000000C4FF0010218D0AF0716D50C68A40628
:1023C00005D40C6824F00A040C6080F8252090F8ED
:1023D000441001F01C018B40016C4B6080F824C05C
:1023E000C16A00291AD0F0BC08470823B340234231
:1023F00014D02B0712D50B6823F00E030B6090F856
:102400004410036C01F01C0102FA01F15960C2632F
:1024100080F8252080F824C0416BE2E7F0BC7047CB
:1024200070B568B12B4C036814212B4AA34209D222
:102430002A4C1C44B4FBF1F18900C0E910210BE0E7
:10244000012070BD234C64421C44B4FBF1F18900AF
:102450004164204908390164022180F825101C6874
:1024600047F6F0718C43D0E902152943D0E90456B0
:102470003543294385692943C5692943056A2943A9
:10248000214319608168B1F5804F19D0036C0F2189
:10249000934202D152F8A83F02E00E4AA0321368DC
:1024A00090F8444004F01C04A1408B43136090F862
:1024B0004430416803F01C039940136819431160CC
:1024C0000021C163012280F8252080F824100846ED
:1024D00070BD00000804024000000240F8FFFDBF8C
:1024E00070B5044690F82400002501280CD0012086
:1024F00084F8240094F825600020012E06D084F88A
:1025000024000225284670BD022070BD022684F8F2
:102510002560E0632068066826F001060660204614
:10252000FFF7ACFD206B00282068016802D041F065
:102530000E0106E021F0040101602068016841F00D
:102540000A0101602068016841F001010160D9E7DA
:1025500070B5044600F004F90546601C02D004483A
:102560000078044400F0FCF8401BA042FAD370BD90
:102570002C0000202DE9F04FDFF8AC91002303255B
:10258000A9F1040B85B04FF0010C0F2709F1040AE3
:10259000ABF1040EBFE000BF0CFA03F6324075D079
:1025A0000C7904F00304012C01D0022C1BD18468A7
:1025B00000945C0005FA04F80494009C24EA0804E2
:1025C0000094D1F80C80049C08FA04F8009C48EAB6
:1025D0000408C0F808804468B4430E79C6F30016B6
:1025E0009E40264346600C79E443A4070AD0C468A1
:1025F0004FEA430805FA08F6B4438E6806FA08F66F
:102600002643C6600C7904F00304022C10D1DC08C8
:1026100000EB84040294246A5E074FEAD66807FA46
:1026200008F6B4430E6906FA08F62643029C2662B1
:1026300004684FEA430805FA08F6B4430E7906F039
:10264000030606FA08F6264306604C6814F4403F79
:1026500060D0364C266E46F001062666246E23F0C6
:10266000030604F001040094314C34440294A4683D
:102670009E074FEA167807FA08F6B443B0F1904F78
:1026800005D02C4EB04204D1012612E042E00026D3
:102690000FE0294EB04201D102260AE0274EB04297
:1026A00001D1032605E0264EB04201D1042600E008
:1026B000072606FA08F62643029CA660D9F80060B1
:1026C0004C46D1F8048096435FEAC82800D51643EB
:1026D0002660DAF800405646D1F8048094435FEA59
:1026E000882800D514433460DBF800405E46D1F8FA
:1026F000048094435FEA883800D514433460DEF8E0
:1027000000407646D1F8048094435FEAC83800D58B
:10271000144334605B1C0A6832FA03F47FF43CAF64
:1027200005B000F00FB8000008040140001002409E
:10273000000001400004004800080048000C004868
:102740000010004830BCBDE8C08F0069084000D0D0
:10275000012070470AB181617047816270470000B3
:1027600001488068704700002C0000200248816802
:1027700002781144816070472C00002010B50024BD
:10278000032000F09FF80F2000F008F808B10124A2
:1027900001E000F04FF8204610BD000030B50546BE
:1027A0001F4887B0816D41F020018165806D06A9C9
:1027B00000F02000009001A800F0DAFA0498B0B10F
:1027C00000F0F6FA40001749174AB0FBF1F117483C
:1027D000491E0260416040F2E7320021C0E9032156
:1027E0008160816101F0D2FB040003D015E000F0AC
:1027F000DFFAE8E70D4801F05DFC04000DD1372059
:1028000000F032F8102D07D200222946372000F0C0
:1028100039F80748056000E0012407B0204630BDC4
:102820000010024040420F0000140040100300104E
:10283000300000200B4882B0016E41F001010166BA
:10284000016E01F001010091816D41F080518165BF
:10285000806D002200F0805000900F21901E02B089
:1028600000F010B800100240002809DB00F01F0241
:10287000012191404009800000F1E020C0F80011E2
:1028800070470000F0B40E4B1B680C46C3F30223E4
:10289000C3F10705042D00D90425191D072901D20C
:1028A000002300E0DB1E012606FA05F1491E214047
:1028B00099409E40761E16403143F0BC05F0C2BBE5
:1028C0000CED00E0064900F0070208684FF6FF0330
:1028D000184040EA0220034A104308607047000095
:1028E0000CED00E00000FA051649B0F5007F08681D
:1028F000C0F3412009D0022805D0086820F4C06048
:1029000040F480600860002070470128FBD0086810
:1029100020F4C06040F4007008600B483222006868
:1029200050430A4AB0FBF2F0401C00E0401E4A69E6
:10293000520501D50028F9D148694005E3D50320A7
:1029400070470000007000403800002040420F0037
:102950000248006800F4C06070470000007000404A
:102960000248016841F480710160704700700040C6
:102970002DE9F84F044600270088A84D3E46000583
:1029800015D5606C60B1B0F5000F04D0B0F5400F04
:102990002BD001270AE0E86840F48030E86024E0AA
:1029A0000021201D04F0EEF807001ED03E462068EE
:1029B00080033AD5A86D4FF00008C00009D4A86D77
:1029C00040F08050A865A86D4FF0010800F08050DD
:1029D0000090DFF84CA2DAF8001041F48071CAF8D8
:1029E0000010FFF7BDFE814610E0D5F88800616C4D
:1029F00020F440000843C5F88800D8E7FFF7B0FE90
:102A0000A0EB0900022801D9032705E0DAF800004D
:102A1000C005F3D5002F7DD04FEA0706B8F1000FAF
:102A200003D0A86D20F08050A8652078C00707D09B
:102A3000D5F88800216A20F003000843C5F8880013
:102A40002078800707D5D5F88800616A20F00C004F
:102A50000843C5F888002078400707D5D5F88800D6
:102A6000A16A20F030000843C5F88800207880066D
:102A700007D5D5F88800E16A20F440600843C5F81E
:102A800088002088800507D5D5F88800E16B20F400
:102A900040200843C5F888002088400507D5D5F8B0
:102AA0008800216C20F440100843C5F88800207885
:102AB000400607D5D5F88800216B20F44050084324
:102AC000C5F888002078000607D5D5F88800616B26
:102AD00020F440400843C5F888002088C00507D589
:102AE000D5F88800A16B20F440300843C5F8880071
:102AF00020684FF0006700034FF0806850D5D5F88C
:102B00008800A16C20F040600843C5F88800A06CE4
:102B1000B84200E005E03BD1E86840F48010E8608E
:102B20003EE0D5F8900010F4407014D0A16D8142C1
:102B300011D0D5F89000D5F8901020F4407041F4F1
:102B40008031C5F89010D5F8901021F48031C5F887
:102B50009010C5F89000C00711D0FFF701FE07469E
:102B600041F2883907E000BFFFF7FAFDC11B494574
:102B700001D9032652E7D5F890008007F4D5D5F89F
:102B80009000A16D20F440700843C5F8900045E71F
:102B9000404505D10121201D03F0F4FF00B1064698
:102BA0002068400317D5D5F88800E16C20F040601C
:102BB0000843C5F88800E06CB84204D1E86840F4E6
:102BC0008010E86007E0404505D10121201D03F099
:102BD000D9FF00B106462088400411D5D5F88800F9
:102BE000216D20F040500843C5F88800206DB0F1F9
:102BF000805F05D10221201D03F0C4FF00B106460D
:102C00002088000406D555F8880F616D20F08040BB
:102C100008432860304600F005B80000001002406C
:102C20000070004018BCBDE8E08F00002DE9F047BF
:102C30000F4605006BD0494E306800F00700B842DF
:102C400009D2306820F0070038433060306800F067
:102C50000700B8425BD12878414C80070AD5A868A4
:102C6000A16801F0F001884204D9A16821F0F001C7
:102C70000143A1602878C0072CD06868032811D0D0
:102C8000022812D0216898B1490500293FDAA168CD
:102C900021F003010143A160FFF762FD804641F28C
:102CA000883910E021688901EFE721688903ECE7A2
:102CB0008907EAE7FFF754FDA0EB0801494502D96F
:102CC0000320BDE8F087A068696800F00C00B0EB55
:102CD000810FEFD1287880070AD5A868A16801F094
:102CE000F001884204D2A16821F0F0010143A16003
:102CF000306800F00700B8420BD9306820F00700B8
:102D000038433060306800F00700B84201D001203D
:102D1000D7E72878400705D5A068E96820F4E06087
:102D20000843A0602878000706D5A068296920F428
:102D3000605040EAC100A06000F05EF8A168094A56
:102D4000C1F30311515C01F01F01C840064908603E
:102D500006480068BDE8F047FFF720BD00200240AC
:102D6000001002406C3D02083800002030000020B6
:102D70000F2202600C4A936803F0030343609368D8
:102D800003F0F0038360936803F4E063C360926828
:102D90004FF4E06303EAD20202610448006800F0E5
:102DA0000700086070470000001002400020024049
:102DB0000548064900688968054AC1F30221515C4B
:102DC00001F01F01C8407047380000200010024089
:102DD000AC3D02080548064900688968054AC1F308
:102DE000C221515C01F01F01C8407047380000202B
:102DF00000100240AC3D020870B52549002318467A
:102E00008A68CC6812F00C0204F00306214C4FEAE9
:102E1000640509D00C2A05D0042A32D0082A00D132
:102E2000284670BD012E10D10B681B0704D4D1F8C1
:102E30009430C3F3032302E00B68C3F30313164E6D
:102E400056F82330DAB10C2AEBD1C86800F0030041
:102E5000022818D0032818D01846CA68CB68C2F3D5
:102E60000212C3F306234343521CB3FBF2F2C868B9
:102E7000C0F34160401C4000B2FBF0F070BD18464A
:102E800070BD204670BD2046E7E72846E5E7000014
:102E9000001002400024F4007C3D02082DE9F843B4
:102EA00004006FD0FA4DA86800F00C06E86800F046
:102EB00003072078C00664D576B10C2E01D1012F0E
:102EC0000AD0A069002828687AD040F00100286064
:102ED000FFF746FC80465DE02868800702D5A069C0
:102EE0000028DED0216A2868000703D5286800F092
:102EF000F00004E0D5F89400F02202EA10108142BC
:102F000016D9084603F0D4FE00283BD1286840F0CB
:102F1000080028602868216A20F0F0000843286033
:102F20006868E16920F47F4040EA0120686016E0AB
:102F3000286840F0080028602868216A20F0F00026
:102F4000084328606868E16920F47F4040EA012076
:102F5000686026B9206A03F0ABFE0028D5D1FFF7E0
:102F60004BFFA968CB4AC1F30311515C01F01F016B
:102F7000C840C9490860C9480068FFF70FFC00282D
:102F80007ED12EE0CAE000BFFFF7EAFBA0EB08000D
:102F9000022876D828688007F6D5286840F008000F
:102FA00028602868216A20F0F000084328606868DB
:102FB000E16920F47F4040EA0120686011E0FFE70A
:102FC00020F001002860FFF7CBFB804606E000BF41
:102FD000FFF7C6FBA0EB08000228DAD828688007B4
:102FE000F6D42078C00740D0082E18D00C2E01D17E
:102FF000032F14D06068B0F5803F17D0B0F5A02F34
:10300000286817D020F480302860286820F48020B9
:1030100028606068E0B1FFF7A3FB804614E02868F1
:10302000800322D56068002878D01EE0286840F42C
:103030008030EDE740F480202860F7E7FFF790FB51
:10304000A0EB08006428A4D828688003F6D50CE01B
:10305000FFF786FB804605E0FFF782FBA0EB080048
:10306000642896D828688003F6D4207880073BD55A
:10307000042E11D00C2E01D1022F0DD0E06801E0FA
:10308000AAE1FFE0002828681ED040F48070286084
:10309000FFF766FB07460CE0286840050CD5E068A2
:1030A0000028C1D008E000BFFFF75AFBC01B022870
:1030B00093D828684005F7D56868217C20F0F8503F
:1030C00040EA016068600FE020F480702860FFF73C
:1030D00047FB074605E000BFFFF742FBC01B022885
:1030E000B1D828684005F7D42078000729D5606951
:1030F0000028D5F8940012D040F00100C5F89400E3
:10310000FFF72EFB074604E0FFF72AFBC01B02284F
:1031100099D8D5F894008007F6D512E02BE120F07D
:103120000100C5F89400FFF71BFB074605E000BF50
:10313000FFF716FBC01B022885D8D5F8940080073E
:10314000F6D42078400766D5A86D0027C00008D4C3
:10315000A86D40F08050A865A86D012700F0805050
:1031600000904F480168C90512D40168814641F4B6
:1031700080710160FFF7F4FA804605E0FFF7F0FA8E
:10318000A0EB080002287DD8D9F80000C005F5D5CD
:10319000A068012816D00528D5F8900017D020F097
:1031A0000100C5F89000D5F8900020F0040000BFA1
:1031B000C5F89000A06841F28839C0B1FFF7D0FA95
:1031C00080460FE0D5F8900040F00100F0E740F0B5
:1031D0000400C5F89000F5E7FFF7C2FAA0EB08017C
:1031E00049454FD8D5F890008007F5D50EE0FFF798
:1031F000B7FA804606E000BFFFF7B2FAA0EB08017D
:1032000049453FD8D5F890008007F5D41FB1A86D87
:1032100020F08050A8652078800628D5606A0028B4
:10322000D5F8980012D040F00100C5F89800FFF7DB
:1032300097FA074605E000BFFFF792FAC01B022885
:1032400020D8D5F898008007F6D510E020F00100CE
:10325000C5F89800FFF784FA074604E0FFF780FA04
:10326000C01B02280ED8D5F898008007F6D4A06AB3
:10327000F0B3022816D00C2E7DD0286820F0807084
:10328000286000E0A7E0FFF76BFA0446A6E0000024
:10329000001002406C3D0208380000203000002081
:1032A00000700040E868E26A00F00301914228D112
:1032B000216B00F0700209011039914221D1626B3B
:1032C00000F4FE41B1EB022F1BD194F8382000F03E
:1032D0007841B1EBC26F14D1A18F00F4C00249084C
:1032E0004905A1F5001191420BD194F8401000E07E
:1032F0006AE04908490600F0C060A1F1007181420E
:103300004BD00C2E73D02868400170D4286820F070
:1033100080702860FFF724FA064604E0FFF720FAE1
:10332000801B022857D828688001F7D4F4E90B01E4
:103330006FF00F0202EB01110843218A5204490881
:1033400002EB4151A26841EA02210843217D4FF07E
:103350007E42490802EB41610843217B40EAC1609B
:10336000E968244A11400843E860286840F080700A
:103370002860E86800E03AE040F08070E860FFF71D
:10338000EFF9044605E000BFFFF7EAF9001B022849
:1033900021D828688001F7D527E02868800124D447
:1033A000286840F080702860E86840F08070E8602D
:1033B000FFF7D6F9044604E0FFF7D2F9001B022814
:1033C00009D828688001F7D50FE000BFFFF7C8F9DA
:1033D000001B022802D90320BDE8F8832868800179
:1033E000F4D4E86804490840E8600020F4E70120CC
:1033F000F2E700008C809D01FCFFEEFE006850307B
:1034000050F82100704708B50068503000EB81008B
:103410000090026008BD000010B500680B464168CE
:103420000D480140080CD870C1F304245C7001F011
:103430003F049C70C1F34231197052B903F076FC1D
:10344000D870587803F072FC5870987803F06EFCCE
:103450009870002010BD00003FFFFF0010B50B4624
:103460000168896A596001680969C1F30E019960B0
:10347000006801680D480140C1F305401870C1F3B0
:1034800006245C7001F07F049C70890DD97052B9DC
:1034900003F04CFC1870587803F048FC587098788A
:1034A00003F044FC9870002010BD00007F7F7F0077
:1034B00010B504004FF0010044D094F8210028B961
:1034C000002084F82000204600F040F8022084F814
:1034D00021002168CA2048622168532048622046A2
:1034E00003F03AFC00282DD120688168164A11406B
:1034F0008160216888686268A369104322691A4361
:10350000104388602168E0680861206801692289A9
:1035100041EA02410161204603F042FC002811D13A
:103520002168CA6C22F00302CA646269E16911432E
:103530002268D36C1943D1642268FF2151620121B2
:1035400084F8211010BD0000BFFF8FFF10B598B0A8
:1035500004465C216846FCF75CFF0B492068884202
:1035600010D14FF400300090401216906846FFF7DB
:10357000FFF908B1FEF79AFD044850F8901F41F496
:103580000041016018B010BD00280040001002404A
:1035900070B5044690F820000B4601281BD0012688
:1035A00084F82060022084F82100B2B19878D9789C
:1035B00040EA014558781978000240EA4130054355
:1035C0002168CA204862216853204862204603F0DF
:1035D000C3FBD0B120E0022070BD5878C10603D5EE
:1035E00000F0EF000A305870D87803F0A8FB05040B
:1035F000587803F0A4FB45EA0025987803F09FFB78
:103600000543187845EA4035DAE708480540206860
:103610004560204603F0C4FB2268FF21516208B9CF
:1036200084F82160002184F8201070BD3FFFFF0066
:103630002DE9F041044690F8200090460D460128FF
:1036400011D0012784F82070022084F8210021681D
:10365000CA204862216853204862204603F07CFB60
:10366000002618B129E00220BDE8F0812068B8F1F9
:10367000000F80684FEA406024D0002800DBEE7025
:10368000A8782978EA7840EA01406978090241EA95
:103690008251084318490840216808602068816801
:1036A00021F480218160D5E90301084321688A68FB
:1036B00010438860204603F073FB2268FF215162AB
:1036C000A0B115E0002800DBEE70287803F037FB8E
:1036D0000304687803F033FB43EA0023A87803F07F
:1036E0002EFB0343E87843EA8050D3E784F8217047
:1036F00084F82060B8E700007F7F7F0070B5044643
:103700000068C16821F0A001C160FFF729F80546F3
:103710004FF47A7607E000BFFFF722F8401BB04273
:1037200001D9032070BD2068C0688006F4D5002050
:1037300070BD70B5040009D0606A002540B12561F4
:103740006561A56294F85D0040B10CE0012070BD98
:103750006068B0F5827FF4D0E561F2E784F85C50F0
:10376000204600F057F8022084F85D0020680168C8
:1037700021F040010160E1684FF4E062914201D91B
:10378000002001E04FF48050B1F5706F02D09142FB
:1037900000D0A562A188228901F4827102F404425A
:1037A0001143227C02F002021143227D02F0010249
:1037B0001143228B02F400721143227F02F038027F
:1037C000114394F8202002F080021143228D02F46C
:1037D0000052114322681160A169042202EA1141DA
:1037E00094F8242000F4805002F01002114394F861
:1037F000342002F008021143A28902F470621143DE
:103800000143206841602566012084F85D000020A6
:1038100070BD00002DE9F04186B0044614216846D1
:10382000FCF7F7FD344B21680025344802240326B9
:103830000522994217D1016E41F480510166016E53
:1038400001F480510591C16C41F00101C164C06C6B
:10385000049200F001000590E0208DE871006946B7
:103860004FF090401AE0264BDFF8988099421AD129
:10387000816D41F480418165816D01F48041059144
:10388000C16C41F00201C164C06C049200F00200FE
:10389000059098008DE8710069462BE0FEF76AFEFE
:1038A00006B0BDE8F081184A9142F9D1816D41F42A
:1038B00000418165816D01F400410591C16C41F0C9
:1038C0000401C164C16C01F004010591C16C41F0B7
:1038D0000201C164C06C062700F00200059090143C
:1038E0008DE8F10069460948FEF744FE08208DE89E
:1038F000F10069464046D1E7003001400010024027
:103900000038004000040048003C00400008004827
:103910002DE9F84F044640680025984616460F46A4
:103920004FF0040BB0F5827F01D1A06888B194F804
:103930005C00012818D0012084F85C00FEF710FF1D
:10394000814694F85D004FF0000A01280ED0022550
:1039500099E084F85DB013460A462046CDF8008011
:1039600000F064F900F098B80220FBE7002F77D050
:10397000002E75D084F85DB0C4F860A02764A4F868
:103980004460A4F84660C4F838A0A4F83CA0A4F8A9
:103990003EA0C4F84CA0C4F850A0E0684FF4E06129
:1039A00088422068426802D922F4805201E042F441
:1039B00080524260A068B0F5004F09D120680268CB
:1039C00022F0400202602068026822F48042026015
:1039D00020680268520603D4026842F04002026086
:1039E000E06888421DD93FE020688168C9070BD094
:1039F000017B206C0170206C401C2064B4F84600F0
:103A0000401EA4F846000CE0FEF7AAFEA0EB090158
:103A1000414503D3B8F1FF3F03D03BE0B8F1000FBD
:103A200038D0B4F846000028DED121E02068816853
:103A3000C9070BD0C068216C0880206C801C2064F2
:103A4000B4F84600401EA4F846000DE0FEF788FEDC
:103A5000A0EB0901414504D3B8F1FF3F04D019E0C0
:103A600010E0B8F1000F15D0B4F846000028DDD101
:103A70004A464146204603F0D1F908B1202020668D
:103A8000206E00B10125012084F85D0084F85CA05F
:103A9000284667E70325F6E718BCBDE8E08F2DE967
:103AA000F84F044690F85C0000271D4616468946EC
:103AB00001280DD04FF0010B84F85CB0FEF750FEEA
:103AC000804694F85D00BA46012804D00227A4E09D
:103AD000022000F0A8B8B9F1000F74D0002E72D007
:103AE000032084F85D00C4F860A0C4F83890A6876D
:103AF000E687C4F840A0A4F844A0A4F846A0C4F8FF
:103B000050A0C4F84CA0A068B0F5004F09D12068BF
:103B1000016821F0400101602068016841F48041A2
:103B2000016020680168490603D4016841F0400142
:103B30000160E068B0F5E06F606823D908B1012E3C
:103B40001CD1A06B21680088C86006E020688168ED
:103B5000890709D5A16B0988C160A06B801CA0638F
:103B6000E08F401EE08709E0FEF7FAFDA0EB0800B9
:103B7000A84202D3681C01D046E0ADB3E08F002814
:103B8000E4D136E008B1012E30D1E08F0128A06BDE
:103B900003D921680088C8600FE0216800780873A5
:103BA00014E0E08722E020688168890714D5E18F5E
:103BB0000129A16B08D90988C160A06B801CA06392
:103BC000E08F801EEDE727E009780173A06B401CB1
:103BD000A063E08F401EE4E7FEF7C2FDA0EB080003
:103BE000A84202D3681C01D00EE06DB1E08F00281E
:103BF000D9D142462946204603F04AF908B120208F
:103C00002066A06810B105E0032706E02068C168BF
:103C100080680090206E00B1012784F85DB084F8C0
:103C20005CA0384655E718BCBDE8E08F2DE9F05F91
:103C3000044690F85C0000270A9E1D4692468B467B
:103C40004FF0010901280ED0012084F85C00FEF736
:103C500087FD804694F85D00616801280CD0B1F5BD
:103C6000827F07D102E0022000F011B9A16809B9F2
:103C7000042801D0022700E1BBF1000F24D0BAF1E3
:103C8000000F21D005B394F85D00042802D0052070
:103C900084F85D0000202066C4F840A0A4F84650D7
:103CA000A4F84450C4F838B0E587A587E0642065DF
:103CB000E0684FF4E061884201D8012D06D9206800
:103CC000426822F4805205E00127D6E0206842686D
:103CD00042F48052426020680268520603D40268AF
:103CE00042F040020260E0688842606845D908B14D
:103CF000012D3AD1A06B21680088C860A06B801CA0
:103D0000A063E08F401EE0872FE02068816889076C
:103D10000FD5E18F69B1B9F1010F0AD1A16B098803
:103D2000C160A06B801CA063E08F401EE0874FF055
:103D3000000920688168C9070FD0B4F8461061B146
:103D4000C068216C0880206C801C2064B4F8460098
:103D5000401EA4F846004FF00109FEF701FDA0EB5C
:103D60000800B04201D3701C75D1E08F0028CCD17F
:103D7000B4F846000028C8D176E008B1012D6CD116
:103D8000E08F0128A06B08D921680088C860A06B6B
:103D9000801CA063E08F801E07E021680078087314
:103DA000A06B401CA063E08F401EE08755E02068B8
:103DB000816889071AD5E18FC1B1B9F1010F15D119
:103DC000E18F0129A16B07D90988C160A06B801C14
:103DD000A063E08F801E06E009780173A06B401C91
:103DE000A063E08F401EE0874FF0000920688168E3
:103DF000C90728D0B4F8461029B3B4F846100129F1
:103E000014D9C068216C0880206C801C2064B4F830
:103E10004600801EA4F84600B4F84600012810D8D9
:103E20002068416841F4805141600AE0007B216CC8
:103E30000870206C401C2064B4F84600401EA4F8B2
:103E400046004FF00109FEF78BFCA0EB0800B042E2
:103E500002D3701C01D018E0BEB1E08F0028A6D1BB
:103E6000B4F846000028A2D142463146204603F06D
:103E70000FF810B1012720202066012084F85D0092
:103E8000002084F85C003846EEE60327F5E730BCF6
:103E9000BDE8C09F704770477047000030B590F88C
:103EA0003C20012A37D0012280F83C20CA688C6867
:103EB00022F4407222434C6822F4806222430C6850
:103EC00022F4006222430C6922F4805222434C699E
:103ED00022F4005222438C6A22F4804222430C8B4B
:103EE00022F4702242EA04420C4D04680023AC42E2
:103EF0000CD18D8C22F4700242EA0552CD6922F079
:103F000080722A43096A22F000720A43626480F8D0
:103F10003C30002030BD022030BD0000002C0140AC
:103F2000F0B590F83C20012A29D0012480F83C40CB
:103F3000022280F83D2003685A689D68114EB34202
:103F400003D122F470074A683A4322F070070A68E6
:103F50003A435A600268B24205D0B2F1804F02D0B3
:103F6000094B9A4204D1896825F080031943916076
:103F700080F83D40002180F83C100846F0BD02204A
:103F8000F0BD0000002C01400040014010B50400CD
:103F900003D094F83D0010B107E0012010BD0020CF
:103FA00084F83C00204600F023F8022084F83D000D
:103FB000211D206803F056F9012084F8480084F898
:103FC0003E0084F83F0084F8400084F8410084F803
:103FD000420084F8430084F8440084F8450084F8E3
:103FE000460084F8470084F83D00002010BD000022
:103FF00038B5054600682A4A2A49904227D1086EFA
:1040000040F400600866086E284C00F400600090E0
:1040100025482060072060601020A06000208021DB
:10402000C4E90301490061618900C4E90610206206
:104030002046FEF7F5F908B1FEF738F8AC62002229
:1040400005211A20A562FEF71DFC1A2013E0B0F12D
:10405000804F14D0164A904220D1886D40F0100055
:104060008865886D002200F010000090082136203D
:10407000FEF708FC3620BDE83840FEF7F5BB886D3A
:1040800040F001008865886D002200F0010000907A
:1040900005211C20FEF7F6FB1C20ECE738BD0000D4
:1040A000002C01400010024030000240A804002013
:1040B0000010004090F83D10012901D00120704708
:1040C000022180F83D100168CA6842F00102CA600E
:1040D00000680B49884205D0B0F1804F02D00949F1
:1040E000884207D18168084A1140062906D0B1F5F7
:1040F000803F03D0016841F001010160002070475A
:10410000002C0140004001400700010070B504464A
:1041100090F83C000025012817D0012684F83C6067
:10412000022084F83D00226890682F4B184020F44C
:104130007F4090600868502838D00DDC20284FD090
:1041400005DC90B3102811D14AE0022070BD302860
:1041500046D040280AD13BE060282FD070280DD0EF
:10416000B0F5805F03D0B0F5005F12D0012584F870
:104170003D60002084F83C00284670BDCB68D1E942
:104180000121206803F026F92068816841F0770159
:1041900009E0CB68D1E90121206803F01BF9206810
:1041A000816841F480418160E1E719E0CA684968AB
:1041B000206803F05FFA5021206806E0CA68496869
:1041C000206803F068FA6021206803F00DF9CEE75B
:1041D000CA684968206803F04DFA40212068F4E776
:1041E000226801461046F0E788FFFEFF70477047DF
:1041F00070B50446006801694FF00005C94389079E
:1042000015D4C168C943890711D4E91E0161012091
:104210002077206880698007204602D0FFF7E7FFFB
:1042200004E000F0EBF8204600F0AEF925772068B6
:104230000169C943490717D4C168C943490713D461
:104240006FF004010161022020772068806910F47A
:10425000407F204602D0FFF7CAFF04E000F0CEF80E
:10426000204600F091F9257720680169C9430907C4
:1042700016D4C168C943090712D46FF0080101615F
:10428000042020772068C0698007204602D0FFF70D
:10429000AEFF04E000F0B2F8204600F075F9257793
:1042A00020680169C943C90617D4C168C943C90652
:1042B00013D46FF010010161082020772068C069D5
:1042C00010F4407F204602D0FFF791FF04E000F099
:1042D00095F8204600F058F9257720680169C94310
:1042E000C90708D1C168C943C90704D1891E016142
:1042F000204600F017FB20680169C943090609D46C
:10430000C168C943090605D46FF0800101612046E8
:10431000FFF7C1FD20680169C943C90509D4C16817
:10432000C943090605D46FF4807101612046FFF787
:10433000B1FD20680169C943490609D4C168C94370
:10434000490605D46FF040010161204600F048FBAA
:1043500020680169C94389060BD4C168C94389062D
:1043600007D46FF0200101612046BDE87040FFF7DF
:1043700093BD70BD70B586B0044614216846FCF745
:1043800048F81B4E256800241A49022201234FF0E9
:104390009040B54211D1CD6C45F00105CD64C96C9A
:1043A00001F00101059111028DE81600CDE90343EA
:1043B0006946FEF7DFF806B070BDB5F1804FFAD15F
:1043C000CD6C45F00105CD64C96C0092CDE90124A6
:1043D00001F00101CDE9043103946946FEF7CAF802
:1043E0000421054800F0D8F8034800688463E2E738
:1043F000002C01400010024010040020704770B5EE
:10440000044690F83C0000260D4601280BD0012000
:1044100084F83C000C2A4AD007DC82B1042A20D060
:10442000082A06D131E0022070BD102A53D0142A88
:1044300063D00126002084F83C00304670BD20681F
:1044400002F0DAFF2068816941F00801816120688B
:10445000816921F004018161206881692A69114321
:1044600011E0206803F004F82068816941F40061DC
:1044700081612068816921F480618161206881699E
:104480002A6941EA02218161D4E7206803F02CF80F
:104490002068C16941F00801C1612068C16921F04B
:1044A0000401C1612068C1692A69114311E02068D3
:1044B00003F054F82068C16941F40061C1612068CB
:1044C000C16921F48061C1612068C1692A6941EA3A
:1044D0000221C161AEE7206803F070F82068416DE9
:1044E00041F0080141652068416D21F004014165FA
:1044F0002068416D2A69114311E0206803F08CF8AF
:104500002068416D41F4006141652068416D21F4EE
:10451000806141652068416D2A6941EA0221416557
:1045200088E710B5040003D094F83D0010B107E00F
:10453000012010BD002084F83C00204600F022F845
:10454000022084F83D00211D206802F08BFE01202E
:1045500084F8480084F83E0084F83F0084F8400066
:1045600084F8410084F8420084F8430084F8440051
:1045700084F8450084F8460084F8470084F83D003C
:10458000002010BD704700000421014800F054B91C
:10459000C40300207047000010B50446022269B130
:1045A000042912D0082917D00C291CD0102921D099
:1045B00094F84300012824D0012010BD94F83E0057
:1045C0000128F9D184F83E201DE094F83F0001282D
:1045D000F2D184F83F2016E094F840000128EBD196
:1045E00084F840200FE094F841000128E4D184F8D9
:1045F000412008E094F842000128DDD184F84220EF
:1046000001E084F843200122206802F061FE124993
:104610002068124A884204D0904202D0104B98423F
:1046200003D1436C43F4004343642068884204D0C0
:10463000B0F1804F01D0904207D18168094A114002
:10464000062906D0B1F5803F03D0016841F0010191
:104650000160002010BD0000002C0140004001401E
:1046600000440140070001002DE9F04117460D000C
:1046700004464FF0000610D0042D15D0082D1AD096
:104680000C2D1FD0102D24D094F84300022827D0E1
:1046900094F84300012826D07CE094F83E000228DC
:1046A0001ED094F83E00F5E794F83F00022817D09A
:1046B00094F83F00EEE794F84000022810D094F8F8
:1046C0004000E7E794F84100022809D094F841003F
:1046D000E0E794F84200022802D094F84200D9E7BB
:1046E0000220BDE8F0819FB393B34C494C4ADFF8F8
:1046F00034C1022055B1042D19D0082D29D00C2D1C
:1047000038D0102D48D084F8430047E084F83E00AC
:10471000606AC162606A39460263606AC0F834C088
:104720002268606A3432FDF7DBFE88B938E084F82D
:104730003F00A06AC162A06A39460263A06AC0F85D
:1047400034C02268A06A3832FDF7CAFE00B92CE0F6
:1047500020E084F84000E06AC162E06A3946026302
:10476000E06AC0F834C02268E06A3C32FDF7B8FE67
:1047700080B91FE084F84100206BC162206B39468C
:104780000263206BC0F834C02268206B4032FDF712
:10479000A7FEA0B10120A4E784F8420001263AE078
:1047A0002068C16841F400710DE02068C16841F4DF
:1047B000806108E02068C16841F4006103E020687E
:1047C000C16841F48051C16001222946206802F08D
:1047D0007FFD15492068154A884204D0904202D0D6
:1047E000134B984203D1436C43F400434364206865
:1047F000884204D0B0F1804F01D0904207D1816847
:104800000C4A1140062906D0B1F5803F03D001685B
:1048100041F001010160304663E70000EB720008DF
:104820004973000881730008002C014000400140DA
:10483000004401400700010070B50D0004464FF030
:10484000000607D0042D0CD0082D11D00C2D16D049
:1048500001264FE02068C16821F40071C160606AE0
:1048600013E02068C16821F48061C160A06A0CE097
:104870002068C16821F40061C160E06A05E0206839
:10488000C16821F48051C160206BFDF745FD002215
:104890002946206802F01CFD1F4B41F211112068CF
:1048A0008A10984205D01D4B984202D01C4B98426A
:1048B00009D1036A0B4206D1036A134203D1436C48
:1048C00023F4004343642068036A0B4206D1016A63
:1048D000114203D1016821F00101016001205DB1A5
:1048E000042D0CD0082D0DD00C2D0ED0102D0FD076
:1048F00084F84300304670BD84F83E00FAE784F83F
:104900003F00F7E784F84000F4E784F84100F1E75E
:1049100084F84200EEE70000002C01400040014016
:104920000044014070B5044600682549884201D121
:10493000FDF71CFF2349206888423CD12248234CC4
:104940008188491C8AB28280C188491CC180237831
:104950000021012B09D11E4D2B885B1C9BB22B80A3
:1049600041F28835AB4200D32170B2F5FA7F22D3F1
:10497000818082684FF47A74521C826003885B1CC9
:104980009BB20380A24200D38160A34200D3018086
:1049900010498A7822B9097811B94188491C4180A7
:1049A00000220D490D48FEF759FD074900220C3140
:1049B0000A48FEF731FDBDE87040012019F082BAC7
:1049C00000140040001000400000002050000010C3
:1049D000520000107403001038010020A0030020D2
:1049E000704710B5040002D0A06F10B107E001209D
:1049F00010BD002084F87400204600F025F8242023
:104A0000A0672068016821F001010160204602F0E2
:104A100041FF0128ECD0606A10B1204602F0A8FEE8
:104A20002068416821F4904141602068816821F04C
:104A30002A0181602068016841F00101016020467F
:104A4000BDE8104002F0F8BE2DE9F0479EB00446E4
:104A5000142117A8FBF7DDFC5C216846FBF7D9FCA5
:104A60006A4A21686A4C03260727022500204FF076
:104A70000108914248D1C146CDF800808046089097
:104A80006846FDF775FF08B1FDF710FB206E40F496
:104A900080402066206E00F480401C90E06C40F066
:104AA0000200E064E06C444600F002001C904020EC
:104AB000CDE9170519AADFF85C8182E8D00017A9B3
:104AC0004046FDF757FD17A9802081E821024046A6
:104AD000CDE91A67FDF74EFD002205212520FDF7DF
:104AE000D1FE2520FDF7C0FE4B4801680A6842F060
:104AF00020020A600068016841F010010160474827
:104B000004801EB0BDE8F087454A4FF0040A914288
:104B100036D18146099000956846FDF729FF08B116
:104B2000FDF7C4FAA06D40F40030A065A06D00F45C
:104B300000301C90E06C40F00100E064E06CCDF8C7
:104B40005CA000F001001A96CDE91B70CDE9185960
:104B50004FF0904417A92046FDF70CFD17A9082037
:104B600081E821012046CDE91A67FDF703FD002207
:104B700006212620FDF786FE2620FDF775FEC0E7FC
:104B8000284A9142BDD1CDF800A081460A906846DE
:104B9000FDF7EEFE08B1FDF789FAA06D40F4802024
:104BA000A065A06D00F480201C90E06C40F0040033
:104BB000E064E06C17A900F004001C904FF48060E2
:104BC00081E82102184CCDE91A672046FDF7D2FC96
:104BD00017A94FF4006081E821012046CDE91A674A
:104BE000FDF7C8FC002207212720FDF74BFE2720F8
:104BF000FDF73AFE0D4801680A6842F020020A609B
:104C00000068016841F0100101607AE70038014056
:104C10000010024000040048800600200000001040
:104C20000044004000480040000800488807002079
:104C30002DE9F8430446806F1F4616460D4620288E
:104C40004FD1CDB1C6B194F87400012849D00120EC
:104C500084F874004FF00008C4F880802120A06719
:104C6000FDF77EFDA4F850608146A4F85260A0686C
:104C7000B0F5805F03D004E00120BDE8F88320692F
:104C800028B12E465FF0000584F8748010E00026FD
:104C9000FAE78021204602F0FDFEB8B9C6B116F849
:104CA000010B21680885B4F85200401EA4F8520098
:104CB000B4F852004B464FF0000200970028E8D1AC
:104CC0004FF04001204602F0E5FE30B10320D4E76A
:104CD00035F8020BC0F30800E3E72020A0670020AE
:104CE000CBE70220C9E7000071B54FF461754FF0C2
:104CF000E023104E009819E02C46A04200D804464C
:104D00009869614201EB810110EB011105D49A69A8
:104D1000824208DA8A42FADA05E08A199969814200
:104D2000FCDD9142FADC0098001B00900028E3D1E2
:104D300078BD00008038010070B5214C012240216F
:104D40002046FDF707FD01201EF0E4F80022802137
:104D50002046FDF7FFFC002540212046FDF7F5FC2D
:104D60000028F9D10026012280212046FDF7F2FC1F
:104D70006D000120FFF7B8FF002280212046FDF7DB
:104D8000E9FC40212046FDF7E0FC00B16D1C01204C
:104D9000FFF7AAFF761CF6B2182EE4D30122802179
:104DA0002046FDF7D7FC85F400050120FFF79CFFA6
:104DB000002280212046FDF7CDFC284670BD000072
:104DC0000008004870B500244FEA0405FFF7B4FF5F
:104DD0006D1C04440A2DF9DB0A20B4FBF0F070BD11
:104DE000FEE72DE9F04106461C4617460D462A20EF
:104DF00000F01AF9304600F0F7F8384600F0F4F801
:104E00002B2000F011F9A5F58075A8B200F0ECF8A0
:104E1000A4F58074A0B200F0E7F8BDE8F0412C20C2
:104E200000F002B910B56F4C00224FF480612046AB
:104E3000FDF790FC002261014FF09040FDF78AFCE5
:104E4000002204212046FDF785FC322006F045FEB5
:104E5000012204212046FDF77DFC322006F03DFEB4
:104E6000322006F03AFE112000F0DEF80A2006F0AB
:104E700034FE362000F0D8F8A02000F0E9F83A20FF
:104E800000F0D2F8052000F0E3F8B22000F0CCF8F2
:104E90000C2000F0DDF80C2000F0DAF8002000F023
:104EA000D7F8332000F0D4F8332000F0D1F8B72041
:104EB00000F0BAF8352000F0CBF8BB2000F0B4F8D1
:104EC000352000F0C5F8C02000F0AEF82C2000F02E
:104ED000BFF8C22000F0A8F8012000F0B9F8C32004
:104EE00000F0A2F8132000F0B3F8C42000F09CF802
:104EF000202000F0ADF8C62000F096F80F2000F05A
:104F0000A7F8D02000F090F8A42000F0A1F8A1208C
:104F100000F09EF8D62000F087F8A12000F098F865
:104F2000E02000F081F8D02000F092F8042000F09A
:104F30008FF80D2000F08CF8112000F089F8132074
:104F400000F086F82B2000F083F83F2000F080F876
:104F5000542000F07DF84C2000F07AF8182000F082
:104F600077F80D2000F074F80B2000F071F81F2086
:104F700000F06EF8232000F06BF8E12000F054F808
:104F8000D02000F065F8042000F062F80C2000F05A
:104F90005FF8112000F05CF8132000F059F82C2085
:104FA00000F056F83F2000F053F8442000F050F88D
:104FB000512000F04DF82F2000F04AF81F2000F09B
:104FC00047F81F2000F044F8202000F041F823208B
:104FD00000F03EF8202000F027F8BDE8104029201E
:104FE00000F022B80004004810B50446000A00F0A2
:104FF0002FF8E0B2BDE8104000F02AB870B50D46B9
:105000000446012210210648FDF7A4FBAAB221465E
:10501000BDE870404FF6FF730248FEF740BD000048
:1050200000040048AC02001070B5084C0546002290
:1050300010212046FDF78EFB284600F009F8204697
:10504000BDE8704001221021FDF784BB0004004838
:1050500001B54FF6FF73012269460248FEF71FFDB6
:1050600008BD0000AC0200100848D0F8341208480F
:105070000A29006801DA07A105E00A390A2901D2E4
:1050800005A100E005A114F095B8000044690020D6
:1050900078000010EE9BA700EE9BAB00EE9BB900E2
:1050A0002DE9F0410E46074615460421052000F083
:1050B00029F80021012000F0FFF880210A2000F0EB
:1050C000EFF8002404E0395D092000F0F5F8641CD5
:1050D000B442F8D30321012000F0EEF8084C05207B
:1050E00000F0C0F8641E01D04007F8D5222000F07F
:1050F000B9F82870212000F0B5F86870BDE8F0819B
:10510000A086010070B50C46054600F0ABF820EA19
:1051100004012846BDE8704000F0CEB82DE9FF5FDD
:105120000027FE25DDF838A016468B468146B84696
:105130000C2805D0B9F10E0F05D11227102001E07F
:1051400077273020804647F08001022000F0B4F835
:1051500080210420FFF7D6FF0021012000F0ACF8E9
:1051600080210A2000F09CF8002405E01BF80410C0
:10517000092000F0A1F8641CB442F7D3494601208D
:1051800000F09AF8B9F10C0F03D180210D2000F046
:1051900087F8294E042000F065F80446761E04D0F6
:1051A000E00702D114EA080FF4D080210D20FFF7A8
:1051B000A9FF36B1062000F055F810F01B0F0CD0F7
:1051C000FE2580210C2000F06BF80021012000F06A
:1051D00073F804B0284600F031B800253C40E007E1
:1051E00000D0FF25B9F10C0FEBD10A2000F03AF8FE
:1051F00004460C2000F036F810F007004FEAC40116
:1052000004D008390844AAF8000001E0AAF8001008
:1052100024B1122C04D91224002603E00124FBE758
:10522000002605E0092000F01DF803998855761C3A
:10523000A642F7D3C5E70000E093040030BCBDE808
:10524000C09F000010B5064C012211032046FDF757
:1052500081FA20460122BDE81040D102FDF77ABA5A
:105260000004004870B57E2101EA40000B4E40F07A
:1052700080044FF48055002229463046FDF76AFA33
:10528000204601F0B9FD002001F0B6FD04460122E0
:1052900029463046FDF75EFA204670BD00040048FE
:1052A00070B50C460546FFF7DDFF40EA04012846CD
:1052B000BDE87040AFF300802DE9F0410E467E213D
:1052C00001EA40040A4F4FF480550022294638462F
:1052D000FDF740FA204601F08FFD304601F08CFDCD
:1052E00029463846BDE8F0410122FDF733BA0000F7
:1052F00000040048F8B505461A208DF800000E4657
:105300000846FBF7A3F884B218A12846FBF78CF8EF
:1053100080B119A13046FBF787F858B1284600F054
:10532000BBF932201DF0F6FD1E2116A0FCF77CFE15
:10533000C8B901E00220F8BD42F210752B462246A2
:1053400031461148FFF774FC2B46012269460E488E
:10535000FFF76EFC64201DF0DDFD1E210BA0FCF7A5
:1053600063FE0028E7D00120F8BD000041542B5116
:105370004D5450554200000074696D657374616D41
:10538000700000003E000000800600202B514D54AC
:105390005055423A20302C302C30000010B509A076
:1053A00000F07AF964201DF0B5FD5A2109A0FCF740
:1053B0003BFE08B1012010BD0A49002081F83102EE
:1053C00010BD000041542B514D54434C4F53453DAB
:1053D000300000002B514D54434C4F53453A203080
:1053E0002C3000004469002000B593B00D4A0EA196
:1053F000684602F013FE684600F04EF964201DF086
:1054000089FD3C2113A0FCF70FFE10B1012013B061
:1054100000BD4FF47A701DF07DFD00F073F80020A0
:10542000F5E70000606B002041542B514D54434F71
:105430004E4E3D302C222573222C226E6562756CF7
:10544000697A6572222C226C6A7268313233342296
:10545000000000002B514D54434F4E4E3A20302C4B
:10546000302C300010B509A000F016F964201DF0B2
:1054700051FD5A2109A0FCF7D7FD08B1012010BD4C
:105480000A49002081F8310210BD000041542B511F
:105490004D54444953433D30000000002B514D54BE
:1054A000444953433A20302C300000004469002026
:1054B00010B507A000F0F0F864201DF02BFD3C2192
:1054C0000CA0FCF7B1FD002800D0012010BD0000A9
:1054D00041542B514D544F50454E3D302C223132CA
:1054E000302E32342E3134392E313739222C3138A6
:1054F000383300002B514D544F50454E3A20302C3C
:1055000030000000F0B5424DB7B02888000430D517
:105510004FF4967421463F48FAF77BFF3E493D48D9
:10552000FAF7A9FF21463C48FAF773FF00242C80C4
:105530003848FAF78BFF82B242F210733549374888
:10554000FFF776FB36A13348FAF76EFF314E40B1D4
:1055500086F83142FFF722FF37B0BDE8F040FFF791
:1055600081BF32A12B48FAF75FFF012518B186F8F9
:10557000305237B0F0BD2FA12648FAF755FF00286A
:10558000F7D0DC216846FAF744FF2F4A2CA61746CD
:105590002EA12048FAF788FFDC216846FAF739FF88
:1055A0003A463146684602F039FD2CA11948FAF70F
:1055B0003BFF08B101210EE02AA11648FAF734FF9B
:1055C0002B4F022608B103210FE02AA11148FAF758
:1055D0002BFF20B10221684600F09EFD14E028A1B7
:1055E0000C48FAF721FF38B10421684600F094FD19
:1055F00002F064F83E7007E023A10648FAF714FFB2
:1056000010B12348057044802248C573B1E70000FB
:105610000000001044690020F004002088070020EA
:105620002B514D54535441543A0000002B49503AE9
:10563000000000002B514D54524543563A000000E3
:105640007B25737D7D000000706A0020252A5B5E4B
:105650007B5D7B255B5E7D5D000000007461736B8C
:1056600000000000636C6561725461736B000000A0
:105670006800001073796E63446174650000000077
:1056800062696E640000000065786563757465008A
:1056900050000010907F002010B50446FAF7D6FEA7
:1056A00082B242F2107321460548FFF7C1FABDE805
:1056B00010404FF47A73022202A10148FFF7B8BAF2
:1056C000800600200D0A000010B592B00446482163
:1056D0006846FAF79EFE0E4A2146684602F09EFC96
:1056E0006846FFF7D9FF4FF496701DF013FC3C217C
:1056F00008A0FCF799FC0B4928B1002081F8310281
:10570000012012B010BD012081F831020020F8E71D
:10571000606B00202B514D545355423A20302C31B0
:105720000000000044690020094808B5816C41F080
:1057300001018164806C002200F0010000900521CD
:105740000D20FDF79FF8BDE808400D20FDF78CB84F
:105750000010024010B5A4B001201DF0AFFF204C96
:1057600003220021606001201DF0B3FFA0601C2215
:105770001C496846FAF726FE0021684619F08AFCA3
:10578000184920601C221C3107A8FAF71BFE0021D3
:1057900007A819F07FFC134920611C2238310EA89C
:1057A000FAF710FE00210EA819F074FC0D49606193
:1057B0001C22543115A8FAF705FE002115A819F08E
:1057C00069FC0849E0601C2270311CA8FAF7FAFD58
:1057D00000211CA819F05EFCA06124B010BD0000DF
:1057E00010000020E03C02082DE9F04786B01421AB
:1057F0006846FAF70EFE4648C16C41F00401C164E8
:10580000C16C01F004010591C16C41F08001C164DB
:10581000C16C01F080010591C16C41F00101C164CE
:10582000C16C01F001010591C16C41F00201C1643C
:10583000C06C4FF0904800F002000590012210214A
:105840004046FCF787FFDFF8CCA040F21446002268
:1058500031465046FCF77EFF4FF4C05701223946CF
:105860005046FCF777FFDFF8B090002280214846D1
:10587000FCF770FF00224FF401414046FCF76AFF3D
:105880001020009001250024CDE9015469464046CE
:105890000394FCF76FFECDE900650326CDE90246CF
:1058A00069465046FCF766FE0097CDE9015469460B
:1058B00050460394FCF75EFE4020CDE900046946A3
:1058C00048460294FCF756FE80200090CDE9015432
:1058D000694648460394FCF74DFE2802CDE90005D1
:1058E0000220CDE9024069464046FCF743FEE8034A
:1058F000CDE90005CDE9024669464046FCF73AFE8F
:105900000022A9025046FCF725FF06B0BDE8F0874B
:1059100000100240000400480008004830B587B07D
:1059200014216846FAF775FD23480024214905949F
:10593000C0E900147F218160FF21C0E903144461A4
:105940008461C461FDF7B4FD08B1FCF7AFFB012130
:105950001948FDF753FD122829D0122201211648BB
:10596000FDF751FD08258DF800508DF801508DF898
:1059700002400394012269460F480494FDF758FE43
:1059800008B1FCF793FB04208DF8140012208DF869
:1059900015008DF8165022208DF81700012205A958
:1059A0000548FDF7F5FD002801D0FCF77FFB07B0A7
:1059B00030BD000000280040A003002010B5134CAB
:1059C00011484FF4E06120604FF482706060002065
:1059D000C4E902014FF400712061C4E90501E061EE
:1059E000206207216062C4E90A0120630820606325
:1059F0002046FDF79EFE08B1FCF758FB20680168C1
:105A000041F04001016010BD00300140E401001090
:105A1000124810B5104901604FF4827141600021B5
:105A20004FF4E062C0E902124FF400720161C0E974
:105A300005123822C0E9072107224162C0E90A1293
:105A4000016308214163FDF774FE002803D0BDE81F
:105A50001040FCF72BBB10BD00380040480200107E
:105A600010B5144C12484FF4E06120604FF482707E
:105A700060600020C4E9020102212161012161610D
:105A80004902A1610821C4E9071007216062C4E945
:105A90000A01206360632046FDF74BFE08B1FCF766
:105AA00005FB2068016841F04001016010BD000065
:105AB000003C0040AC02001010B59AB000241794CE
:105AC000189415941694129413941C210BA81494F2
:105AD000FAF79FFC2C216846FAF79BFC2A482949D3
