:020000040800F2
:10000000A03A0010850200088D5C0008834D0008AE
:100010005D5C0008351E00082D7E00080000000011
:10002000000000000000000000000000A501000822
:100030002F2000080000000001020008C97000081D
:100040009F0200089F0200089F0200089F0200080C
:100050009F0200089F0200089F0200089F020008FC
:100060009F0200089F0200089F0200089F020008EC
:100070009F020008F51F00089F0200089F02000869
:100080009F0200089F0200089F0200089F020008CC
:100090009F0200089F0200089F0200089F020008BC
:1000A0009F0200089F020008917100089F0200084B
:1000B0009D71000800000000000000009F02000881
:1000C0009F0200089F0200089F0200089F0200088C
:1000D0009F020008B17A00089F020008217B0008F7
:1000E0009F0200089F0200080000000000000000BE
:1000F0000000000000000000000000000000000000
:10010000000000009F020008000000009F0200089D
:100110000000000000000000A9710008B57100088F
:100120009F0200089F0200089F0200089F0200082B
:100130009F02000800000000000000000000000016
:100140009F0200089F0200089F02000800000000B4
:100150009F0200089F0200089F0200089F020008FB
:100160009F0200089F0200089F0200080000000094
:100170009F0200089F02000800000000000000002D
:100180009F0200089F0200089F020008DFF810D0BD
:1001900001F06EF8004800474DE50108AFF300801C
:1001A000A03A00102C4B1968086800F05AB880F388
:1001B0000988BFF36F8F4FF0000080F311887047FC
:1001C0000000000008480068006880F308884FF0CD
:1001D000000080F3148862B661B6BFF34F8FBFF39F
:1001E0006F8F00DF00BF00BF08ED00E0DFF80C00FC
:1001F000016841F470010160704700BF88ED00E0C4
:10020000EFF30980BFF36F8F134B1A681EF0100FC6
:1002100008BF20ED108A20E9F04F106009B44FF0BC
:10022000500080F31188BFF34F8FBFF36F8F22F020
:1002300013FE4FF0000080F3118809BC19680868AC
:1002400000F014B81EF0100F08BF00F014B880F3CF
:100250000988BFF36F8F704734000010EFF30580FB
:10026000704730C8B0E8C04FFFF7A1BF30C8B0E852
:10027000C04FFFF7E7BFB0EC088AB0EC08CAFFF741
:10028000E6BF00000648804706480047FEE7FEE755
:10029000FEE7FEE7FEE7FEE7FEE7FEE7FEE7FEE736
:1002A000817100088D0100082DE9F05F05460020EE
:1002B00092469B4688460646814640241BE02846D7
:1002C00041464746224600F022FE53465A46C01A8F
:1002D000914110D311461846224600F009FE2D1A0E
:1002E00067EB01084F4622460120002100F000FE86
:1002F00017EB00094E41201EA4F10104DFDC484643
:1003000031462A46434600F000B830BCBDE8C09FE5
:10031000A0F14101192900D82030704738B5D0E943
:100320000221491E01EB410102EBC1014268C1EB10
:10033000011102EB81010268C1EB011102EB8102A4
:10034000D0E9043101EB410103EB81013023A1F538
:10035000527191FBF3F4174D6C4302EBC41291FB05
:10036000F3F403FB141100921A2902DB124B1A4416
:1003700000920C2291FBF2F3104C6343009C04EBBF
:10038000C313009391FBF2F302FB13110C4A08E034
:10039000491E40F2A324535C6343009C04EBC31347
:1003A00000930029F4DC0146684600F0D3FD009874
:1003B00038BD00003F0C0F008051010067C20300F0
:1003C00070D6020810B5431A934209D283188818D0
:1003D00003E010F8011D03F8011D521EF9D210BDF3
:1003E00040EA01039B0703D009E008C9121F08C0B7
:1003F000042AFAD203E011F8013B00F8013B521E37
:10040000F9D210BDD2B201E000F8012B491EFBD297
:1004100070470022F6E710B513460A46044619460F
:10042000FFF7F0FF204610BD30B505462A460B46C3
:1004300012F8010B13F8014B08B1A042F8D01CB11F
:10044000002802D06D1CF1E7284630BD421C10F890
:10045000011B0029FBD1801A704710B5002200E073
:10046000521C835C8C5CA34201D1002BF8D1D8B222
:10047000E1B2401A10BD034611F8012B00F8012B20
:10048000002AF9D11846704730B5054600200346CA
:1004900000E05B1C934205D2EC5CC85C201A01D1E1
:1004A000002CF6D130BD00000FB400B58DB010A9FE
:1004B00009900B9000914FF0FF300A9000200C90B3
:1004C00005480690054807906A4609A80F9900F06C
:1004D0009BFD0DB05DF814FB2510000843100008CB
:1004E0002DE9FF5F1D464FF0FF3BD5E901469146E0
:1004F0005F464FF00008A9697F1C01988847296A68
:10050000824688470028F6D1BAF1FF3F0CD024F488
:10051000C064002E19DD600614D5BAF12B0F09D086
:10052000BAF12D0F0ED103E0584604B000F07EB8AA
:1005300044F48064A9697F1C01988847761E82462E
:10054000002E02DDBAF1300F03D0B9F1000F26D032
:1005500032E0A969761E44F400747F1C0198884734
:100560008246002E05DDBAF1780F06D0BAF1580F99
:1005700003D0B9F1000F10D01EE0B9F1000F02D086
:10058000B9F1100F18D1A969761E24F400747F1CEC
:10059000019888478246102002E0082000E00A20E7
:1005A000814609E008FB0908A969761E44F4007435
:1005B0007F1C019888478246002E05DD494650463B
:1005C00000F00EFD0028EDDAE96901988847A005E2
:1005D00002D46FF00100A8E7E00725D1600613D52B
:1005E000600502D5C8F1000000E0404629680A1DF8
:1005F0002A600968220501D5087015E0220701D597
:10060000088011E008600FE02868011D296000687B
:10061000210502D580F8008006E0210702D5A0F868
:10062000008001E0C0F8008038467EE730BCBDE8BD
:10063000C09F2DE9FF5FD2E901A74FF00008916943
:1006400099461446DDF838B0464601988847054675
:1006500059EA0B0005D009E0A169761C019888478A
:100660000546216A284688470028F5D1681C03D032
:100670005FEACA7005D015E04FF0FF3004B000F01B
:1006800048B82068011D2160D0F800800AE05FEAC8
:10069000CA7001D108F8015BA169761C7F1E019820
:1006A00088470546002F1ADD681C18D0B9F1000FE5
:1006B0000DD0E81705EBD060421120F01F0059F86B
:1006C00022102A1A012090400142E0D107E0BBF13C
:1006D000000FDCD1216A284688470028D7D0E1697D
:1006E00001988847BBF1000F07D1002E05DD5FEAB6
:1006F000CA7002D1002188F80010A068B84203DD5A
:10070000BBF1000F03D017B16FF00100B6E7304620
:10071000B4E730BCBDE8C09F2DE9FF4F087883B037
:100720009946FF2805D0491C2D2804D0002400201C
:1007300008E000200BE00124F9E700EB800003EB68
:100740004000491C0B78FF2BF7D104B14042002335
:100750000293147819461D462D2C01D02B2C04D160
:10076000521C2D2C13D000240294AA461478FF2C7E
:100770000FD00A25A3FB057801FB05814FF0000C83
:1007800003FB0C11521CE3194AEB0101EEE70124B3
:10079000EAE7814453EA010002D019F5C87F06DA7E
:1007A00003980021C0E9001107B000F065B90025E9
:1007B000AE4E2F46DFF8B882184600F035FDCDE981
:1007C0000001B9F1000002DAC9F1000400E00446BA
:1007D0000023A74A1AEB030B42EB045A12E0E0078E
:1007E00007D02A4633463846414600F0F7F9074617
:1007F00088462A4633461046194600F0EFF905466A
:100800000E466410002CEAD1DDE90001B9F1000FB9
:100810005A46534606DA00F056FA3A46434600F086
:1008200052FA05E000F0DAF93A46434600F0D6F90C
:10083000029A0AB181F00041039AC2E90001B3E7CC
:100840002DE9FF4F1F468DB0D7E901464FF0FF3825
:100850002E2045464FF000090B90B9696D1C0E988B
:100860008847396A824688470028F6D1BAF1FF3FA7
:100870000AD024F4D064002E11DDBAF12B0F08D079
:10088000BAF12D0F0BD102E0404611B08DE744F4D0
:100890008064B9696D1C0E9888478246761E694649
:1008A000600501D52D2000E02B208DF8000001F11E
:1008B000010B0DF1200809E0B9696D1C0E988847FD
:1008C00082460F9844F40074761E0560002E02DD07
:1008D000BAF1300FF0D00B998A453ED144F0800434
:1008E00006E00F99681CA9F1010944F4007408603E
:1008F000B9696D1C761E0E98884782463028F0D064
:100900002BE00B998A4505D1200603D444F08004DE
:10091000761E18E0504607F0CDFC08B30DF1130128
:10092000761E44F400748B4508D2AAF130000BF80F
:10093000010B200607D5A9F1010003E0200602D42F
:1009400009F101008146A00502D50F99681C0860D5
:10095000B9696D1C0E9888478246002ED1DC53E0A1
:10096000002E51DDBAF1650F02D0BAF1450F4BD11F
:10097000A00549D5B9696D1C24F44074761E0E9803
:1009800088478246002E0CDD2B2804D0BAF12D0FAB
:1009900007D144F48074B9696D1C0E98884782466B
:1009A000761EE00501D52D2100E02B2108F8011B62
:1009B000CDF82C8021E00DF12901761E44F400745D
:1009C00088450CD2AAF1300010F0FF0088F8000032
:1009D00002D10B99884509D908F1010806E0E00524
:1009E00001D5244801E042F20F708146B9696D1CBF
:1009F0000E98884782460F980560002E04DD504609
:100A000007F058FC0028D6D1F9690E988847FF20D6
:100A10008BF8000088F800000020069007904B46F5
:100A20006A4608A906A8FFF777FEA00502D46FF072
:100A300001002AE714F0240F0AD0E00714D1DDE901
:100A400006123868031D3B600068C0E900120BE025
:100A5000DDE9060100F01AFA0146E00704D1386822
:100A6000021D3A600068016028460EE7000014404D
:100A70000000F03FF1D8FFFF30BCBDE8C08F2DE98A
:100A8000FE4F804681EA0300C00F0C46009021F023
:100A9000004123F00045B8EB0200A94105D24046D1
:100AA000214690461C460B46024623F00040104368
:100AB00047D0270DC7F30A00C3F30A510290401A2A
:100AC000019040286BDAC3F3130040F4801B0098B8
:100AD000924620B10023D2EB030A63EB0B0B019883
:100AE0005946C0F14002504600F002FA06460D4653
:100AF00050465946019A00F01AFA10EB080061417D
:100B0000002487EA115284EAE7731A4340D0009A1E
:100B100062B3019A012A4FEA075215DC001B61EB10
:100B200002014FF0004202EA0752CDE90042001CE8
:100B300041F5801132462B4600F028FB03B000F04F
:100B400045B840462146F9E7001B61EB0201001C55
:100B500041F5801300185B412018A2F5001747EB00
:100B6000030140EAD570B6196D4111E06D084FEAF6
:100B7000360645EAC0754FEA0752001B61EB0201D9
:100B8000001C41F5801149084FEA3000001951411D
:100B900032462B4603B000F01CB800F0E8BA0098CB
:100BA000012240000023D0EB020263EBE0730098C7
:100BB00021464FEAE074B8EB000061EB0401E9E77D
:100BC00083F000435BE781F0004158E730BCBDE8AB
:100BD000C08F30BCBDE8C04FFFF7DFBF2DE9FE4F2F
:100BE00081EA030404F0004421F0004100944FF036
:100BF000000B23F0004350EA01045ED052EA0304E4
:100C00005BD0C3F30A54C1F30A552C44A4F2F33465
:100C10000194A0FB0254C1F3130141F48011C3F30A
:100C2000130343F4801301FB024400FB034E840AC8
:100C3000970A44EA815447EA8357A4FB0768029560
:100C40008D0A05FB07854FEA932C04FB0C542705FE
:100C5000029D4FEA065847EA1637B5EB08056EEBDA
:100C6000070C870E920E47EA811742EA8312A7FB10
:100C70000201B6EB0B0164EB00042B0D43EA0C33CD
:100C80005E1844EB1C50DA465146E7FB0201C5F3FF
:100C900013044FEA0B3343EA14534FEA0432019C26
:100CA00043EA0603A4F10C040294009CCDE900B4CD
:100CB00000F06CFA03B000F003B800200146F9E739
:100CC00030BCBDE8C08F2DE9F04D81EA030404F08B
:100CD000004B21F0004514464FF0000A23F000417C
:100CE00050EA050220D054EA01021DD0C5F30A578C
:100CF0000246C5F31303C1F31300C1F30A5640F4CF
:100D0000801543F48013A7EB0608101BD64608F2A3
:100D1000FD3873EB050002D308F1010801E09218D9
:100D20005B41B8F1000F03DA00200146BDE8F08D09
:100D300000204FF48011064684460EE0171B73EB2B
:100D4000050705D3121B63EB050306434CEA010CB0
:100D500049084FEA300092185B4150EA0107EDD193
:100D600052EA030012D082EA040083EA0501084334
:100D700005D0101BAB4106D20122002306E0002261
:100D80004FF0004302E06FF0010253101AEB06002F
:100D90004CEB085110EB0A0041EB0B01BDE8F04DA4
:100DA00000F0E5B90EB5C10F80EAE0700844CA074B
:100DB000002140F233438DE80E000A460B4600F056
:100DC000E5F903B000BD70B5C1F30A5201F000456A
:100DD0000024C1F3130140F2FF3341F480119A4221
:100DE00001DA002070BD40F233439A42A2F233424E
:100DF00003DC524200F08BF800E090402C43F1D02D
:100E0000404270BD00F0004230F000400AD0C10DF9
:100E100001F56071C0F3160042EA0151C2084007B3
:100E200011437047002001467047000030B5041E92
:100E300071F1000404DB4FF00044404264EB010117
:100E4000141E73F1000405DB1C464FF000435242B0
:100E500063EB04038B4208BF824230BD30B5041EF1
:100E600071F1000404DB4FF00044404264EB0101E7
:100E7000141E73F1000405DB1C464FF00043524280
:100E800063EB0403994208BF904230BD01F0004378
:100E900030B421F0004150EA010206D00A0DA2F55B
:100EA0006072C1F31301002A02DC30BC00207047DD
:100EB000440F44EAC104C100E01830BC00EBC2504A
:100EC00000F01EB930B50B46014600202022012457
:100ED00009E021FA02F59D4205D303FA02F5491B08
:100EE00004FA02F52844151EA2F10102F1DC30BD1E
:100EF000202A04DB203A00FA02F1002070479140DA
:100F0000C2F1200320FA03F3194390407047202ACE
:100F100004DB203A21FA02F00021704721FA02F3A3
:100F2000D040C2F120029140084319467047202A60
:100F300006DBCB17203A41FA02F043EAE07306E001
:100F400041FA02F3D040C2F1200291400843194611
:100F50007047000010B500683C22B0FBF2F302FBC2
:100F60001303B0FBF2F00B60B0FBF2F302FB1303D0
:100F7000B0FBF2F018224B60B0FBF2F302FB13035C
:100F8000B0FBF2F0021D8B600723B2FBF3F403FB0E
:100F90001422800040F2B55300F66C308A61B0FB39
:100FA000F3F2B0FBF3F403FB1400443280084A610F
:100FB000C8613B2802D3920700D0401C0022074C96
:100FC00013460A61E25C824203D8801A5B1C0B6103
:100FD000F8E7401CC860084610BD00007CD6020837
:100FE0003A2800D2303820F02002412A01D3A2F161
:100FF0003700884201D34FF0FF3070470268114438
:101000001378016018467047D16004495161044962
:10101000116200211161114600F042B9FD0F000874
:1010200095120008426842B1016811F8013B23B1F2
:10103000521EC0E90012184670470121C160881E87
:10104000704742685AB1C368016843B983688B42EC
:1010500005D0491E521CC0E90012002070474FF015
:10106000FF3070470FB4002300B589B00CA9009180
:101070000B996FF00042CB601E4B06931E4B0793FB
:101080000423CDE901321D4A089202466B46002036
:10109000FFF7D6FB09B05DF814FB70B586B00646C5
:1010A0004FF0FF300091CDE90101002015460C46BC
:1010B00004903246694604A8FFF7D4FF024604981C
:1010C000211825B108B1084600E0204628600498A0
:1010D00000280DD0002A02DD0098884208D0081BA5
:1010E0000094CDE901043246694604A8FFF7BAFF2F
:1010F00006B070BD251000084310000895120008C6
:101100000029A8BF7047401C490008BF20F001001B
:10111000704710B4B0FA80FC00FA0CF050EA0104F9
:1011200004BF10BC704749B1CCF1200421FA04F48B
:1011300011FA0CF118BF012121430843A3EB0C0164
:10114000CB1D4FEA00614FEA102042BF002010BCC7
:10115000704700EBC35010440029A4BF10BC704777
:10116000401C490008BF20F0010010BC704710B5BA
:10117000141E73F1000408DA401C41F100019218BA
:101180005B411A4301D120F0010010BD2DE9F04D63
:1011900092469B4611B1B1FA81F202E0B0FA80F2B8
:1011A00020329046FFF7A4FE04460F4640EA0A00AC
:1011B00041EA0B0153465A46084313D0114653EAFD
:1011C000010019D0C8F140025046FFF7A0FE0546C5
:1011D0000E46504659464246FFF78AFE084305D060
:1011E000012004E020463946BDE8F08D002005438B
:1011F00046EAE0762C4337430A986305E40AA0EBFD
:1012000008000022FD0A44EA47540A3002D50020B3
:101210000146E9E7010510196941DDE908450019B2
:101220006941BDE8F04DA2E70EB540F233420292AB
:101230000022CDE900221346FFF7A8FF03B000BD4E
:10124000C1F30A52C1F3130140F2FF3341F480119C
:101250009A4202DA00200146704740F233439A4234
:10126000A2F2334202DC5242FFF751BEFFF740BE0A
:10127000064C074D06E0E06840F0010394E80700E3
:1012800098471034AC42F6D3FEF784FF14D8020816
:1012900054D80208C0B24FF4F05100F09DB90000DC
:1012A0002DE9F34F8BB04FF0000801F10C000C4614
:1012B0004FF0010B46460DF1080A019062690121C9
:1012C00001989047051E2DD0252D2CD0216A8847E6
:1012D000C0B16269012101989047216A88470028BE
:1012E000F7D1411E62690198904700E0761CA16920
:1012F0000B988847216A88470028F7D1E1690B9845
:101300008847DBE7A1690B9888470746A84201D1C7
:10131000761CD3E7E1690B9888477F1C02D1B8F1AE
:10132000000F6FD047E1002762693D4639460198BA
:1013300090472A2804D1626901210198904701252C
:10134000DFF888926269012101989047A0F130018D
:101350000A290AD24F45E5DC07EB870100EB41077C
:10136000303FDFD445F01005ECE7E90601D46FF01B
:1013700000476C280AD04C2814D0682815D06A2859
:101380000DD074281CD07A281AD01DE06269012182
:10139000019890476C2802D045F0040514E045F010
:1013A00002050DE045F020050AE06269012101987F
:1013B0009047682802D045F0080505E045F400652F
:1013C0006269012101989047C4E9015765283DD021
:1013D00019DC58287AD00CDC452837D004DC2528C5
:1013E00026D0412831D131E046282FD047282CD1B2
:1013F0002CE05B2877D0612828D063287CD0642833
:1014000023D15AE0D1E06F2848D008DC66281DD0EF
:1014100067281BD0692821D06E2816D127E07028B4
:1014200045D0732868D0752847D078280DD14DE075
:10143000A1690B988847054625283FF469AFE16903
:101440000B9888476D1C3FF46AAFB4E023466A46A8
:101450006FF001000B99FFF7F3F99FE045F04000B2
:101460006060A80723464FF0000236D43EE0E8074C
:101470007FF447AF2068011D21600068290501D570
:1014800006701BE7290701D5068017E7A90703D5D2
:10149000F117C0E9006111E706600FE745F0400071
:1014A0006060A80723464FF0080216D41EE040F6FD
:1014B0000E0125EA0100606016E045F04000606022
:1014C000A80723464FF00A0207D40FE045F040007A
:1014D0006060A80708D5234610226FF001000B9921
:1014E000AFF300805AE007E0234610226FF00100BE
:1014F0000B99FEF7F5FF51E04FF000094F464B46C0
:10150000632802D05B2807D041E02079C00601D4CF
:101510000120A06001273AE062690121019890470B
:101520005E2805D14FF0010962694946019890474C
:10153000216939B900210A46534643F82120491C44
:101540000829FADBB0B3216969B9C11700EBD16290
:1015500053110AEB830122F01F02821A01200B684B
:10156000904003430B6062690121019890475D2818
:10157000E8D1B9F1000F09D00020514651F82020E0
:10158000D24341F82020401C0828F7DB02AB22465A
:1015900000976FF001000B99FFF74BF800280CDA69
:1015A000401C08D1BBF1000F05D04FF0FF300DB04B
:1015B00000F00EB8FFE74046F9E7E90701D108F16E
:1015C000010806444FF0000B78E60000CCCCCC0CB0
:1015D00030BCBDE8C08F00007F2801D9002208E0A0
:1015E000064A02EB5002C007127800D1120902F03D
:1015F0000F020120904008407047000088D6020882
:1016000070B58C1810F8015B15F0070301D110F8C4
:10161000013B2A1106D110F8012B03E010F8016BF1
:1016200001F8016B5B1EF9D12B0705D40023521E74
:101630000DD401F8013BFAE710F8013BCB1A921CDC
:1016400003E013F8015B01F8015B521EF9D5A142DA
:10165000D8D3002070BD00001CB53DA003F098FF5A
:10166000322021F06FFB0A213CA000F09DFC0128F4
:101670006AD03BA003F08CFF642021F063FB1E21A5
:1016800036A000F091FC01285ED0384A38A11446FB
:10169000A2F50770FEF708FF214639A006F07AFC94
:1016A00039A12046FEF7C0FE00284ED037A003F037
:1016B0006FFF322021F046FB142128A000F074FCBB
:1016C000012841D037A003F063FF322021F03AFB1C
:1016D0001E2122A000F068FC012835D038A003F0BC
:1016E00057FF642021F02EFB1E211CA000F05CFCA3
:1016F000012829D06A4634A13748FEF7D5FE1B4A97
:1017000036A118326846FEF7CFFE35A003F040FF41
:10171000642021F017FB1E2110A000F045FC0128D9
:1017200012D0124A31A1143A14462B48FEF7BCFEDF
:10173000214632A006F02EFC33A12046FEF774FEAF
:1017400018B105F02DFC00201CBD01201CBD0000BF
:1017500041542B4350534D533D3000004F4B00003C
:1017600041542B4347534E3D30000000546B002042
:10177000252A5B5E4D5D255B5E0D5D0D0000000062
:10178000736E3D25730D0A004D50000041542B51DE
:101790004D544346473D2273657373696F6E222C27
:1017A000302C300041542B514D544346473D226B61
:1017B000656570616C697665222C302C32300000D2
:1017C00041542B4353510000252A5B5E3A5D3A2079
:1017D000255B5E2C5D000000386900202564000058
:1017E00041542B4347534E3D31000000252A5B5E98
:1017F0003A205D3A20255B5E0D5D0000696D6569EC
:101800003D25730D0A0000003836000088B0DFF86F
:101810003C92DFF82CA209F507708A4F4FF0030BBA
:10182000DFF824820024069003F0F0FD99F83102DD
:101830004D4610B1012822D0FCE0854E30881E288C
:1018400003D295F830020128F6D1FFF705FF0128F1
:101850000AD003F0B1FD03F073FD1DF03FFA95F8D7
:101860003102012803D0E5E085F83142E2E0794910
:1018700034803C800120087005F0CEFEDAE0744828
:101880000088B0F5167F02D305F0C6FE0EE038885A
:1018900032280BD3002170A003F0FEFC012801D0F8
:1018A00018B103E005F074FB00E03C80704EB078A6
:1018B000012870D1F0780228FBD1642006F0E0FB0B
:1018C000050068D0614846214838FEF7A2FD5F4810
:1018D00068A14838069A06F06DFB20F00BFA0090DC
:1018E000714872A1069A8388284606F063FB574820
:1018F0002946483803F0D0FC88F80100012859D067
:1019000000285DD17448017A012902D1417A032966
:1019100002D0017B012950D104940394017B012959
:101920003AD0C07A6D4900EB800303EBC0030AEBA9
:1019300083004A7890F832001044039009780491AB
:101940003C2803DB3C38491CCDE903013F482C60AF
:1019500046214838FEF75DFD3C4861A14838069AAB
:1019600006F028FB20F0C6F903466A4ADDE90310B9
:1019700012788DE8070068A12846069A06F01AFB3F
:1019800032482946483803F087FC88F801000128CE
:1019900010D090B114E016E0407B03AB00EB800167
:1019A00001EBC0010AEB810004AA6BA11130FEF724
:1019B0007BFDCBE705F0ECFA02E03C8086F803B053
:1019C000284606F01BFB3079022833D199F8330200
:1019D0004E4601282ED196F8320201282AD14620FF
:1019E00006F04EFB050025D0184846214838FEF782
:1019F00010FD16485BA14838069A06F0DBFA20F085
:101A000079F9034665A12846069A06F0D3FA0F48ED
:101A10002946483803F040FC88F80100012801D02D
:101A200018B104E005F0B4FA01E086F83342284624
:101A300006F0E4FA4FF4FA7021F084F9F4E60000BD
:101A4000706B002002000010140000203869002094
:101A5000000000109D00001041542B514D54505572
:101A6000423D302C302C302C302C22422200000001
:101A70009C6F002041542B514D545055423D302C09
:101A8000302C302C302C226C6A72682F6E65627597
:101A90006C697A65722F25732F6C6971756964574B
:101AA0006569676874220000846F00207B22736E72
:101AB000223A222573222C22776569676874223ABC
:101AC00025642C2274696D657374616D70223A22ED
:101AD0002564303030227D009C030010000200108D
:101AE00041542B514D545055423D302C302C302C0C
:101AF000302C226C6A72682F6E6562756C697A652B
:101B0000722F25732F6E657874416374696F6E222E
:101B1000000000000C0000107B22736E223A222588
:101B200073222C2274696D657374616D70223A2280
:101B30002564303030222C2274696D65223A2022CF
:101B4000253032643A25303264222C227765656B69
:101B5000223A25647D000000253032643A25303277
:101B60006400000041542B514D545055423D302CDF
:101B7000302C302C302C226C6A72682F6E656275A6
:101B80006C697A65722F25732F7765696768744968
:101B90006E63726561736522000000007B22736EC4
:101BA000223A222573222C2274696D657374616D4B
:101BB00070223A222564227D0000000038B504031B
:101BC00000F07AFD054620208DF80000200C8DF8ED
:101BD0000100200A8DF802008DF8034000F0FEF8A5
:101BE0004FF0904400221021204600F05FFD4FF49A
:101BF0007A73042269460B4801F02EFF012210215E
:101C0000204600F053FD00F00FF80228FBD000F052
:101C100053FD401B40F6B831884201D9032038BD3E
:101C2000002038BD240200107CB511A04FF0904474
:101C30000068009000221021204600F037FD4FF48C
:101C40007A752B46012269460A4801F005FF2B46AA
:101C5000012201A9074801F03DFE01221021204682
:101C600000F024FD9DF80400C00700D002207CBDD8
:101C7000050000002402001038B50DA04FF090447C
:101C80000068009000221021204600F00FFD4FF464
:101C90007A7302226946074801F0DEFE0122102114
:101CA000204600F003FDBDE83840FFF7BDBF00004F
:101CB0006699000024020010F8B5064603208DF84E
:101CC0000000080C8DF80100080A8DF80200154686
:101CD0008DF803104FF0904700221021384600F095
:101CE000E5FC4FF47A74234604226946094801F062
:101CF000B3FEAAB223463146064801F0EBFD08B117
:101D00000120F8BD01221021384600F0CFFC002050
:101D1000F8BD0000240200102DE9F84F17460C46CC
:101D2000064600F0C9FC8046002001E000F5807006
:101D3000A042FBD9051BBD4200D93D4627444FF0C8
:101D4000020B4FF0904A4FF47A798DF800B0200CD6
:101D50008DF80100200A8DF802008DF8034000F094
:101D60003DF800221021504600F0A0FC4B46042212
:101D70006946174801F070FE30B9AAB24B463146A9
:101D8000134801F069FE10B1012000F023B80122D0
:101D90001021504600F08AFC07E000F08DFCA0EB1B
:101DA0000800484501D90320EFE7FFF73DFF02286F
:101DB000F3D02C4404F580702E44B84201D93D1B69
:101DC00001E04FF48075BC42BFD30020DDE7000086
:101DD0002402001018BCBDE8E08F0000F8B513A085
:101DE0000068009000F068FC04464FF09046002226
:101DF0001021304600F05AFC4FF47A752B46012230
:101E000069460B4801F028FE01221021304600F0FF
:101E10004DFCFFF709FF0228FBD000F04DFC001B32
:101E2000A84201D90320F8BD0020F8BD060000003B
:101E300024020010FEE7000070B5414C424D414EB7
:101E4000217A686A51B3E27A40A1521C17F00DF969
:101E5000E07A00EB800101EBC00006EB800202F1AA
:101E60001B033DA11132E86A17F0FFF8E07A00EB9E
:101E7000800101EBC00006EB800039A190F8322010
:101E8000A86A17F0F2F8E07A00EB800101EBC000DD
:101E900006EB800035A1828EE86D38E0217B0029B9
:101EA00039D0627B32A1521C17F0DFF8607B00EB67
:101EB000800101EBC00006EB800202F11B0326A1AA
:101EC0001132E86A17F0D1F8607B00EB800101EB7A
:101ED000C00006EB800022A190F83220A86A17F01B
:101EE000C4F8607B00EB800101EBC00006EB8000D2
:101EF0001EA1828EE86D17F0B8F8607B00EB8001C0
:101F000001EBC00006EB8002686B20A11132BDE836
:101F1000704017F0AAB81EA117F0A7F821A1E86A2F
:101F200017F0A3F81FA1A86A17F09FF81DA1686B0E
:101F300017F09BF8E86DBDE870401AA117F095B84E
:101F40009C030010706B0020A0000010E4BBBBE5F8
:101F50008AA125640000000025737E25730000001F
:101F6000E997B4E99A9425646D696E00256453007D
:101F7000E4B88BE4B880E6ACA1E4BBBBE58AA1E49D
:101F8000B8BA3AE4BBBBE58AA1256400257300001A
:101F9000E4BB8AE697A5E5B7B2E697A0E4BBBBE54C
:101FA0008AA100002000000070B50D4606460024FE
:101FB0000FE00DA10E48FEF737FA08B1012070BD01
:101FC000AC4201D3022070BD641CE4B2642020F056
:101FD000B9FE03F01BFA31460548FEF725FA002842
:101FE000E7D0002070BD00004552524F5200000063
:101FF00038690020014800F068B900009C04002006
:1020000030B590F8444004F01C050124AC40056C48
:102010006C60046863608368102B036803D0996068
:102020000068C26030BD9A600068C16030BD704712
:1020300072B6FEE710B540F21244224600211A485B
:10204000FFF73AFE18480078142803D921461648AD
:10205000FEF7DFF914211548FEF7DBF9042240F200
:102060001C411348FFF728FE1149002408888A788C
:1020700040BA000440EA0220CA7810430D4A486181
:10208000904201D9401C00D14C61012240F22A410A
:102090000948FFF711FE094890F83212012901D9C9
:1020A00080F8324210BD0000706B00209C030010CD
:1020B000846F002000127A006A6B002038690020CB
:1020C00016F0AAFA0A201CF0EBFE1AF08DFD20F0A3
:1020D0002FFC1BF02FFE0A201CF0E2FE1BF02AFE54
:1020E0000A201CF0DDFE4FF47A7000F0F3F90122B3
:1020F00091022F4800F0DAFA2E4F00252E4C2F4E79
:10210000DFF8BC8015E02078012806D0032808D02D
:10211000042828D0052807D128E000221321386898
:1021200027E0FFF789FE25701BF004FE64201CF0F9
:10213000B7FE24A14046FEF777F90028E3D01DF052
:10214000C7FCDFF8848000220721D8F8000014F0D3
:10215000F9FDB94647462078062818D2DFE800F096
:10216000170C111D202303F093FDDCE700221D2135
:10217000306814F0E7FDD6E700221321D9F80000FB
:1021800002E000220721386814F0DCFD25701BF006
:10219000D1FD64201CF084FEDDE7FFF74DFEF5E77E
:1021A00003F076FDF2E700221D213068ECE7000025
:1021B00000040048AC0000109D000010E00000107A
:1021C000546B00204D504E00A800001010B5154C67
:1021D0009FED130A84ED020A02F0C6FD20616169D9
:1021E00088421AD9401A00EE100A94ED031AF8EE4C
:1021F000400A80EE810AF6EE000A84ED020A30EE13
:10220000200ABCEEC00A10EE100A81B2A18006A01E
:1022100005F0C0FE08490120C87094ED020A10BD07
:1022200000000000846F0020D6D8C1BFD6B5CAC751
:10223000A3BA25640D0A00009C6F002010B502F0BF
:1022400093FD0A49020E48610A70020C4A70020AA4
:102250008A70C870042240F21C41044805F0E8FD71
:10226000BDE8104002A005F095BE0000846F00207C
:10227000676574206F6B0D0A0000000010B590F8C0
:1022800025100024022903D00421C16301241AE08F
:1022900001680A6822F00E020A6001680A6822F0EA
:1022A00001020A6090F84410012301F01C0203FAB5
:1022B00002F1026C516080F82530002180F8241072
:1022C000816B01B18847204610BDF0B4016C0B68EA
:1022D00001680A6890F84440042504F01C0405FADB
:1022E00004F61E4211D056070FD50A68920603D491
:1022F0000A6822F004020A6090F8441001F01C0100
:102300008D40016C4D60016B1DE0022606FA04F75A
:102310001F424FF0000C4FF0010518D0970716D55B
:102320000A68920605D40A6822F00A020A6080F858
:10233000255090F8441001F01C018E40016C4E6055
:1023400080F824C0C16A00291AD0F0BC08470826CA
:10235000A6401E4214D0120712D50A6822F00E02BF
:102360000A6090F84410026C01F01C0105FA01F1BA
:102370005160C56380F8255080F824C0416BE2E7C6
:10238000F0BC704770B568B1334C01681423334A10
:10239000A14209D2324C0C44B4FBF3F39B00C0E9D8
:1023A00010230BE0012070BD2B4C64420C44B4FBA5
:1023B000F3F39B004364284B083B0364022380F83B
:1023C00025300C6847F6F0739C43D0E902352B4367
:1023D000D0E9045635432B4385692B43C5692B430C
:1023E000056A2B4323430B608168B1F5804F29D0E8
:1023F000016C0F23914212D152F8A81F90F844406B
:1024000004F01C04A3409943116090F844304168E3
:1024100003F01C03994013681943116012E00E4940
:10242000A0310A6890F8444004F01C04A3409A4389
:102430000A6090F84430426803F01C039A400B682D
:102440001A430A600021C163012280F8252080F828
:102450002410084670BD000008040240000002403D
:10246000F8FFFDBF70B5044690F824000025012850
:102470000CD0012084F8240094F825600020012E5F
:1024800006D084F824000225284670BD022070BDC5
:10249000022684F82560E0632068066826F00106BD
:1024A00006602046FFF7ACFD206B0028206801681D
:1024B00002D041F00E0106E021F004010160206825
:1024C000016841F00A0101602068016841F00101E2
:1024D0000160D9E770B5044600F0EEF80546601CCF
:1024E00002D004480078044400F0E6F8401BA04203
:1024F000FAD370BD080000202DE9F84FDFF8809175
:102500000022A9F1040B03274FF00F0C09F1040A74
:10251000ABF1040EACE0012595402B4073D00C7953
:1025200004F00304012C01D0022C15D1866854005C
:1025300007FA04F826EA0806D1F80C8008FA04F82D
:1025400048EA0608C0F808804468AC430D79C5F332
:1025500000159540254345600C79E443A40708D055
:10256000C568540007FA04F6B5438E68A6402E43AA
:10257000C6600C7904F00304022C11D1D40800EBDE
:102580008406356A5407E40E0CFA04F825EA0805B7
:10259000D1F8108008FA04F848EA0508C6F8208047
:1025A0000568540007FA04F6B5430E7906F00306F1
:1025B000A6402E4306604C6814F4403F57D0314C7F
:1025C000256E45F001052566246E22F0030504F012
:1025D000010400942C4C05EB0408D8F8085094072B
:1025E000260F0CFA06F4A543B0F1904F04D0274C07
:1025F000A04203D1012412E0002410E0244CA042A8
:1026000002D102240BE032E0224CA04201D103248B
:1026100005E0214CA04201D1042400E00724B4408D
:102620002C43C8F80840D9F800404D464E689C43FA
:10263000F60200D51C432C60DAF8004055464E687F
:102640009C43B60200D51C432C60DBF800405D467D
:102650004E689C43B60300D51C432C60DEF8004056
:1026600075464E689C43F60300D51C432C60521CF3
:102670000B6833FA02F47FF44EAF00F00FB800009D
:10268000080401400010024000000140000400481E
:1026900000080048000C00480010004818BCBDE8C5
:1026A000E08F0069084000D0012070470AB18161C5
:1026B00070478162704700000148806870470000E1
:1026C0000800002070B5040011D021684CF6CC4001
:1026D0000860216845F255500860D4E90001416066
:1026E0002168A0688860FFF7E7FF05460CE001203D
:1026F00070BDFFF7E1FF401B312805D92068C06895
:10270000400701D0032070BD2068C0684007F0D1A9
:1027100020680269E1688A4201D0016102E04AF65C
:10272000AA210160002070BD00684AF6AA2101605C
:102730000020704702488168027811448160704728
:102740000800002010B50024032000F09FF80F209F
:1027500000F008F808B1012401E000F04FF820462D
:1027600010BD000030B505461F4887B0816D41F0AF
:1027700020018165806D06A900F020000590684663
:1027800000F0DCFA0398B0B100F0F8FA4000174905
:10279000174AB0FBF1F11748491E0260416040F250
:1027A000E7320021C0E903218160816101F0C8FBAB
:1027B000040003D015E000F0E1FAE8E70D4801F06D
:1027C00053FC04000DD1372000F032F8102D07D251
:1027D00000222946372000F039F80748056000E05C
:1027E000012407B0204630BD0010024040420F00D7
:1027F00000140040500300100C0000200B4882B071
:10280000016E41F001010166016E01F001010091CC
:10281000816D41F080518165806D002200F0805013
:1028200000900F21901E02B000F010B8001002407E
:10283000002809DB00F01F020121914040098000BF
:1028400000F1E020C0F8001170470000F0B40E4B1A
:102850001B68C3F30223C3F10704042C00D904242A
:102860001D1D072D01D2002300E0DB1E012606FA04
:1028700004F56D1E0D409D409E40761E164045EAB3
:102880000601F0BC05F0AABB0CED00E0064A00F022
:10289000070110684FF6FF03184040EA0120034982
:1028A00008431060704700000CED00E00000FA05DE
:1028B0001649B0F5007F0868C0F3412009D002280E
:1028C00005D0086820F4C06040F4806008600020F3
:1028D00070470128FBD0086820F4C06040F4007005
:1028E00008600B483222006850430A4AB0FBF2F0FD
:1028F000401C00E0401E4A69520501D50028F9D16C
:1029000048694005E3D5032070470000007000408F
:102910003000001040420F000248006800F4C06020
:1029200070470000007000400248016841F4807167
:1029300001607047007000402DE9F84F0446002503
:102940000088A64E2F46000515D5606C60B1B0F525
:10295000000F04D0B0F5400F2BD001250AE0F0683D
:1029600040F48030F06024E00021201D04F09EF847
:1029700005001ED02F462068800365D5B06D4FF04E
:102980000009C00009D4B06D40F08050B065B06D52
:102990004FF0010900F080500090DFF844A2DAF80F
:1029A000001041F48071CAF80010FFF785FE8046E0
:1029B00010E0D6F88800616C20F440000843C6F8A7
:1029C0008800D8E7FFF778FEA0EB0800022801D9BD
:1029D000032531E0DAF80000C005F3D565BBD6F871
:1029E000900010F4407014D0A16D814211D0D6F83F
:1029F0009000D6F8901020F4407041F48031C6F871
:102A00009010D6F8901021F48031C6F89010C6F8D6
:102A10009000C0074ED0FFF74FFE804641F2883A43
:102A200005E0FFF749FEA0EB08015145D0D8D6F8E4
:102A300090008007F5D5EDB32F46B9F1000F03D014
:102A4000B06D20F08050B0652078C00707D0D6F870
:102A50008800216A20F003000843C6F88800207827
:102A6000800707D5D6F88800616A20F00C0008437B
:102A7000C6F888002078400707D5D6F88800A16AF4
:102A800020F030000843C6F888002078800607D57B
:102A9000D6F88800E16A20F440600843C6F8880050
:102AA0002088800509D5D6F88800E16B20F4402005
:102AB000084300E044E0C6F888002088400507D5B8
:102AC000D6F88800216C20F440100843C6F888002E
:102AD0002078400607D5D6F88800216B20F44050B6
:102AE0000843C6F888002078000607D5D6F8880085
:102AF000616B20F440400843C6F888002088C00578
:102B000007D5D6F88800A16B20F440300843C6F8FA
:102B1000880020684FF0006500034FF0806820D5E2
:102B2000D6F88800A16C20F040600843C6F8880001
:102B3000A06CA8420DD1F06840F48010F06010E065
:102B4000D6F89000A16D20F440700843C6F89000BC
:102B500073E7404505D10121201D03F0A7FF00B117
:102B600007462068400317D5D6F88800E16C20F0AE
:102B700040600843C6F88800E06CA84204D1F068C1
:102B800040F48010F06007E0404505D10121201D90
:102B900003F08CFF00B107462088400411D5D6F819
:102BA0008800216D20F040500843C6F88800206D51
:102BB000B0F1805F05D10221201D03F077FF00B145
:102BC00007462088000406D556F8880F616D20F06E
:102BD000804008433060384600F004B800100240DE
:102BE0000070004018BCBDE8E08F00002DE9F04700
:102BF0000D46040071D0DFF83081D8F8000000F0F5
:102C00000700A8420CD2D8F8001021F00701294390
:102C1000C8F80010D8F8000000F00700A8425CD106
:102C20002078424E80070AD5A068B16801F0F00113
:102C3000884204D9B16821F0F0010143B1602078E5
:102C4000C0072BD06068032811D0022812D0316849
:102C500098B14905002940DAB16821F00301014328
:102C6000B160FFF729FD074641F288390FE031686E
:102C70008901EFE731688903ECE78907EAE7FFF7A5
:102C80001BFDC11B494502D90320BDE8F087B06890
:102C9000616800F00C00B0EB810FF0D12078800764
:102CA0000AD5A068B16801F0F001884204D2B16889
:102CB00021F0F0010143B160D8F80010404601F066
:102CC0000701A9420BD9016821F0070129430160DE
:102CD000006800F00700A84201D00120D5E7207865
:102CE000400705D5B068E16820F4E0600843B060B3
:102CF0002078000706D5B068216920F4605040EACA
:102D0000C100B06000F05EF8B168094AC1F3031178
:102D1000515C01F01F01C840064908600648006880
:102D2000BDE8F047FFF71EBD002002400010024042
:102D3000843B0208300000100C0000200F220260CB
:102D40000C4A936803F003034360936803F0F003B5
:102D50008360936803F4E063C36092684FF4E063B8
:102D600003EAD20202610448006800F0070008602C
:102D7000704700000010024000200240054806494C
:102D800000688968054AC1F30221515C01F01F0106
:102D9000C84070473000001000100240C43B0208D9
:102DA0000548064900688968054AC1F3C221515C9B
:102DB00001F01F01C84070473000001000100240B1
:102DC000C43B020870B5254B002210469968DC68A8
:102DD00011F00C0104F00306214C4FEA640508D001
:102DE0000C2904D0042931D0082931D010E0012E5B
:102DF00010D11A68120704D4D3F89420C2F3032226
:102E000002E01A68C2F30312164E56F82220D9B116
:102E10000C2918D1D86800F0030002281AD0032822
:102E20001AD01046D968DA68C1F30211C2F306223B
:102E30004243491CB2FBF1F0D968C1F34161491C1E
:102E40004900B0FBF1F070BD104670BD204670BD6A
:102E5000284670BD2046E5E72846E3E7001002401B
:102E60000024F400943B02082DE9F84304006FD0DD
:102E7000F64EB06800F00C05F06800F0030720780B
:102E8000C00664D575B10C2D01D1012F0AD0A069FF
:102E90000028306879D040F001003060FFF70CFC6A
:102EA00080465CE03068800702D5A0690028DED04B
:102EB000216A3068000703D5306800F0F00004E0B4
:102EC000D6F89400F02202EA1010814216D9084682
:102ED00003F080FE00283BD1306840F008003060ED
:102EE0003068216A20F0F000084330607068E169C2
:102EF00020F47F4040EA0120706016E0306840F026
:102F0000080030603068216A20F0F000084330602B
:102F10007068E16920F47F4040EA0120706025B9C3
:102F2000206A03F057FE0028D5D1FFF74BFFB168A8
:102F3000C74AC1F30311515C01F01F01C840C549E4
:102F40000860C5480068FFF70DFC00287ED12CE022
:102F5000C6E0FFF7B1FBA0EB0800022877D8306885
:102F60008007F6D5306840F0080030603068216A8C
:102F700020F0F000084330607068E16920F47F4081
:102F800040EA0120706010E0FFE720F001003060AF
:102F9000FFF792FB804605E0FFF78EFBA0EB0800F1
:102FA0000228DBD830688007F6D42078C00740D0EC
:102FB000082D18D00C2D01D1032F14D06068B0F566
:102FC000803F17D0B0F5A02F306817D020F48030A4
:102FD0003060306820F4802030606068E0B1FFF736
:102FE0006BFB804614E03068800322D560680028BF
:102FF00076D01EE0306840F48030EDE740F4802069
:103000003060F7E7FFF758FBA0EB08006428A5D86D
:1030100030688003F6D50CE0FFF74EFB804605E0F4
:10302000FFF74AFBA0EB0800642897D830688003BC
:10303000F6D42078800739D5042D11D00C2D01D17C
:10304000022F0DD0E0680028306801E0A0E1FBE02D
:103050001DD040F480703060FFF72EFB07460BE078
:10306000306840050BD5E0680028C1D007E0FFF7C5
:1030700023FBC01B022894D830684005F7D5706840
:10308000217C20F0F85040EA016070600EE020F4EE
:1030900080703060FFF710FB074604E0FFF70CFB81
:1030A000C01B0228B3D830684005F7D42078000749
:1030B00028D560690028D6F8940012D040F00100AD
:1030C000C6F89400FFF7F8FA074604E0FFF7F4FAB1
:1030D000C01B02289BD8D6F894008007F6D511E0D3
:1030E00027E120F00100C6F89400FFF7E5FA074653
:1030F00004E0FFF7E1FAC01B022888D8D6F8940054
:103100008007F6D42078400765D5B06D4FF00008F1
:10311000C00009D4B06D40F08050B065B06D4FF084
:10312000010800F0805000904C480168C90511D496
:103130000168814641F480710160FFF7BDFA0746DE
:1031400004E0FFF7B9FAC01B02287DD8D9F80000C7
:10315000C005F6D5A068012815D00528D6F890003E
:1031600016D020F00100C6F89000D6F8900020F0AC
:103170000400C6F89000A06841F28839B8B1FFF7A2
:103180009BFA07460EE0D6F8900040F00100F0E709
:1031900040F00400C6F89000F5E7FFF78DFAC11B78
:1031A000494551D8D6F890008007F6D50CE0FFF7D6
:1031B00083FA074604E0FFF77FFAC11B494543D86D
:1031C000D6F890008007F6D4B8F1000F03D0B06DA8
:1031D00020F08050B0652078800627D5606A0028EE
:1031E000D6F8980011D040F00100C6F89800FFF71B
:1031F00063FA074604E0FFF75FFAC01B022823D8F2
:10320000D6F898008007F6D510E020F00100C6F847
:103210009800FFF751FA074604E0FFF74DFAC01B8C
:10322000022811D8D6F898008007F6D4A06AE8B32F
:10323000022815D00C2D7CD0306820F080703060D2
:10324000FFF73AFA0446A5E0A1E0000000100240B2
:10325000843B0208300000100C0000200070004089
:10326000F068E26A00F00301914228D1216B00F07E
:10327000700209011039914221D1626B00F4FE41C4
:10328000B1EB022F1BD194F8382000F07841B1EB5C
:10329000C26F14D1A18F00F4C00249084905A1F5FD
:1032A000001191420BD194F8401000E069E0490808
:1032B000490600F0C060A1F1007181424AD00C2D96
:1032C00071D0306840016ED4306820F0807030607A
:1032D000FFF7F2F9054604E0FFF7EEF9401B02287C
:1032E00055D830688001F7D4F4E90B016FF00F0274
:1032F00002EB01110843218A5204490802EB4151B3
:10330000A26841EA02210843217D4FF07E4249082C
:1033100002EB41610843217B40EAC160F168234A26
:1033200011400843F060306840F080703060F06811
:1033300000E038E040F08070F060FFF7BDF904462F
:1033400004E0FFF7B9F9001B022820D8306880019B
:10335000F7D526E03068800123D4306840F08070D3
:103360003060F06840F08070F060FFF7A5F9044627
:1033700004E0FFF7A1F9001B022808D8306880019B
:10338000F7D50EE0FFF798F9001B022802D90320B9
:10339000BDE8F88330688001F4D4F068044908403F
:1033A000F0600020F4E70120F2E700008C809D012E
:1033B000FCFFEEFE0068503050F82100704708B561
:1033C0000068503000EB81000090026008BD0000F2
:1033D00010B500680B4641680D480140080CD870D4
:1033E000C1F304245C7001F03F049C70C1F34231CE
:1033F000197052B903F02CFCD870587803F028FCEF
:103400005870987803F024FC9870002010BD0000DC
:103410003FFFFF0010B50B460168896A59600168DB
:103420000969C1F30E019960006801680D48014007
:10343000C1F305401870C1F306245C7001F07F04ED
:103440009C70890DD97052B903F002FC187058783D
:1034500003F0FEFB5870987803F0FAFB9870002098
:1034600010BD00007F7F7F0010B504004FF0010009
:1034700044D094F8210028B9002084F82000204688
:1034800000F040F8022084F821002168CA20486238
:10349000216853204862204603F0EEFB00282DD11E
:1034A00020688168164A11408160206881686268DE
:1034B000A369114322691A43114381602168E068BE
:1034C000086120680169228941EA024101612046C0
:1034D00003F0F4FB002811D12168CA6C22F003022A
:1034E000CA64E26961690A432168CB6C1A43CA6401
:1034F0002268FF215162012184F8211010BD0000D3
:10350000BFFF8FFF10B598B004465C216846FCF7FA
:1035100080FF0B492068884210D14FF400300090A2
:10352000401216906846FFF707FA08B1FEF780FDD3
:10353000044850F8901F41F40041016018B010BDDC
:10354000002800400010024070B5044690F82000AA
:103550000B4601281BD0012684F82060022084F845
:103560002100B2B19878D97840EA014558781978A5
:10357000000240EA413005432168CA2048622168C0
:1035800053204862204603F077FBD0B120E00220B0
:1035900070BD5878C10603D500F0EF000A305870AE
:1035A000D87803F05EFB0204587803F05AFB42EA35
:1035B0000022987803F055FB0243187842EA403520
:1035C000DAE70848054020684560204603F076FBAE
:1035D0002268FF21516208B984F82160002184F833
:1035E000201070BD3FFFFF002DE9F041044690F828
:1035F000200090460D46012811D0012784F8207044
:10360000022084F821002168CA20486221685320E2
:103610004862204603F030FB002618B129E0022062
:10362000BDE8F0812068B8F1000F80684FEA406083
:1036300024D0002800DBEE70A8782978EA7840EAE8
:1036400001406978090241EA82510843184908405B
:10365000216808602068816821F480218160D5E9B3
:10366000031001432068826811438160204603F003
:1036700025FB2268FF215162A0B115E0002800DB84
:10368000EE70287803F0EDFA0204687803F0E9FAA6
:1036900042EA0022A87803F0E4FA0243E87842EA1A
:1036A0008050D3E784F8217084F82060B8E70000E8
:1036B0007F7F7F0070B505460068C16821F0A001DA
:1036C000C160FEF7F9FF04464FF47A7606E0FEF794
:1036D000F3FF001BB04201D9032070BD2868C06809
:1036E0008006F4D5002070BD70B5040009D0606A72
:1036F000002540B125616561A56294F85D0040B187
:103700000CE0012070BD6068B0F5827FF4D0E56107
:10371000F2E784F85C50204600F056F8022084F866
:103720005D002068016821F040010160E0684FF40D
:10373000E062904201D9002101E04FF48051B0F5E0
:10374000706F02D0904200D0A562A088228900F458
:10375000827002F404421043227C02F00202104301
:10376000227D02F001021043228B02F4007210430A
:10377000227F02F03802104394F8202002F08002E9
:103780001043228D02F40052104322681060A06999
:10379000042202EA104094F8242001F4805102F03F
:1037A0001002104394F8342002F008021043A2895A
:1037B00002F47062104308432168486025660120C6
:1037C00084F85D00002070BD2DE9F04186B004460C
:1037D00014216846FCF71DFE384B21680024384848
:1037E000022503260522994217D1016E41F480512A
:1037F0000166016E01F480510591C16C41F0010137
:10380000C164C06C694600F001000590E020CDE97C
:10381000000502944FF090401AE02A4BDFF8A88090
:1038200099421CD1816D41F480418165816D01F423
:1038300080410591C16C41F00201C164C06C6946D0
:1038400000F0020005909800CDE900050294404682
:10385000CDE90362FEF750FE06B0BDE8F0811B4AD9
:103860009142F9D1816D41F400418165816D01F48E
:1038700000410591C16C41F00401C164C16C01F0CB
:1038800004010591C16C41F00201C164C06C0627BE
:1038900000F0020005909014CDE9000502AA6946E7
:1038A00082E8D0000A48FEF727FE0820CDE900058F
:1038B00002AA694682E8D0004046CBE700300140CA
:1038C000001002400038004000040048003C004066
:1038D000000800482DE9F84F0446406800261D46C0
:1038E000904689464FF0040BB0F5827F01D1A06865
:1038F00088B194F85C00012817D0012084F85C009E
:10390000FEF7DAFE074694F85D004FF0000A012842
:103910000DD0022693E084F85DB0009313460A466A
:10392000204600F062F900F094B80220FBE7B9F1FC
:10393000000F73D0B8F1000F70D084F85DB0C4F8F8
:1039400060A0C4F84090A4F84480A4F84680C4F86D
:1039500038A0A4F83CA0A4F83EA0C4F84CA0C4F839
:1039600050A0E0684FF4E06188422068426802D9C4
:1039700022F4805201E042F480524260A068B0F527
:10398000004F09D12068026822F0400202602068DE
:10399000026822F48042026020680268520603D462
:1039A000026842F040020260E068884219D937E0BC
:1039B00020688168C9070BD0007B216C0870206CDF
:1039C000401C2064B4F84600401EA4F8460008E0FD
:1039D000FEF772FEC01BA84202D3681C01D036E07D
:1039E000A5B3B4F846000028E2D11DE02068816844
:1039F000C9070BD0C068216C0880206C801C206433
:103A0000B4F84600401EA4F8460009E0FEF754FE54
:103A1000C01BA84203D3681C02D018E00EE0ADB171
:103A2000B4F846000028E1D13A462946204603F082
:103A300083F908B120202066206E00B10126012004
:103A400084F85D0084F85CA030466CE7FFE703264D
:103A5000F5E718BCBDE8E08F2DE9F84F044690F873
:103A60005C0000261D469046894601280ED04FF086
:103A7000010B84F85CB0FEF71FFE074694F85D006A
:103A80004146B246012804D00226A5E0022000F0FB
:103A9000A9B8B9F1000F76D0B8F1000F73D00320A8
:103AA00084F85D00C4F860A0C4F83890A4F83C80A5
:103AB000A4F83E80C4F840A0A4F844A0A4F846A00E
:103AC000C4F850A0C4F84CA0A068B0F5004F09D1CC
:103AD0002068026822F0400202602068026842F416
:103AE0008042026020680268520603D4026842F0F5
:103AF00040020260E068B0F5E06F606822D908B16A
:103B000001291BD1A06B21680088C86006E02068ED
:103B10008168890709D5A16B0988C160A06B801CE9
:103B2000A063E08F401EE08708E0FEF7C5FDC01BE4
:103B3000A84202D3681C01D045E0A5B3E08F00285D
:103B4000E5D135E008B101292FD1E08F0128A06B24
:103B500003D921680088C8600FE0216800780873E5
:103B600014E0E08721E020688168890714D5E18F9F
:103B70000129A16B08D90988C160A06B801CA063D2
:103B8000E08F801EEDE726E009780173A06B401CF2
:103B9000A063E08F401EE4E7FEF78EFDC01BA84245
:103BA00002D3681C01D00EE06DB1E08F0028DAD19D
:103BB0003A462946204603F0F9F808B1202020664D
:103BC000A06810B105E0032606E02068C16880689F
:103BD0000090206E00B1012684F85DB084F85CA0EE
:103BE000304654E718BCBDE8E08F2DE9F05F04468D
:103BF00090F85C0001250A9E1F4692468B464FF0C6
:103C0000000801280ED0012084F85C00FEF754FD66
:103C1000814694F85D00616801280CD0B1F5827F7F
:103C200007D102E0022000F00DB9A16809B904280B
:103C300001D0022004E1BBF1000F24D0BAF1000F43
:103C400021D007B394F85D00042802D0052084F841
:103C50005D0000202066C4F840A0A4F84670A4F8D7
:103C60004470C4F838B0E787A787E0642065E0684F
:103C70004FF4E061884201D8012F06D920684268DC
:103C800022F4805205E00120DAE02068426842F424
:103C90008052426020680268520603D4026842F0F3
:103CA00040020260E0688842606842D908B1012F92
:103CB00037D1A06B21680088C860A06B801CA0630E
:103CC000E08F401EE0872CE02068816889070DD5D1
:103CD000E18F59B1012D09D1A16B0988C160A06B99
:103CE000801CA063E08F401EE0870025206881686B
:103CF000C9070ED0B4F8461059B1C068216C0880CD
:103D0000206C801C2064B4F84600401EA4F84600D5
:103D10000125FEF7D1FCA0EB0900B04201D3701CD5
:103D200072D1E08F0028CFD1B4F846000028CBD163
:103D300073E008B1012F69D1E08F0128A06B08D989
:103D400021680088C860A06B801CA063E08F801E83
:103D500007E0216800780873A06B401CA063E08F27
:103D6000401EE08752E020688168890718D5E18FFE
:103D7000B1B1012D14D1E18F0129A16B07D90988B7
:103D8000C160A06B801CA063E08F801E06E00978F4
:103D90000173A06B401CA063E08F401EE0870025EC
:103DA00020688168C90727D0B4F8461021B3B4F859
:103DB0004610012914D9C068216C0880206C801C31
:103DC0002064B4F84600801EA4F84600B4F846000B
:103DD000012810D82068416841F4805141600AE010
:103DE000007B216C0870206C401C2064B4F84600F5
:103DF000401EA4F846000125FEF75EFCA0EB09007A
:103E0000B04202D3701C01D019E0C6B1E08F002887
:103E1000A9D1B4F846000028A5D14A46314620462B
:103E200002F0C4FF18B120204FF0010820660120E5
:103E300084F85D00002084F85C004046F3E603202F
:103E40008046F4E730BCBDE8C09F704770477047BC
:103E500030B590F83C20012A37D0012280F83C2070
:103E6000CA688B6822F440721A434B6822F480625D
:103E70001A430B6822F400621A430B6922F4805241
:103E80001A434B6922F400521A438B6A22F480428F
:103E90001A430B8B22F4702242EA03420C4D036852
:103EA0000024AB420CD18D8C22F4700242EA055200
:103EB000CD6922F080722A43096A22F000720A4317
:103EC0005A6480F83C40002030BD022030BD000024
:103ED000002C0140F0B590F83C20012A29D00125A2
:103EE00080F83C50022280F83D2003685A689C68A4
:103EF000114EB34203D122F470074A683A4322F0CC
:103F000070070A683A435A600268B24205D0B2F1BB
:103F1000804F02D0094B9A4204D1896824F0800373
:103F20001943916080F83D50002180F83C1008460C
:103F3000F0BD0220F0BD0000002C01400040014017
:103F400010B5040003D094F83D0010B107E0012043
:103F500010BD002084F83C00204600F023F8022029
:103F600084F83D00211D206803F02AF9012084F81F
:103F7000480084F83E0084F83F0084F8400084F84C
:103F8000410084F8420084F8430084F8440084F837
:103F9000450084F8460084F8470084F83D0000207E
:103FA00010BD000038B5054600682A4A2A499042EB
:103FB00027D1086E40F400600866086E284C00F4B3
:103FC0000060009025482060072060601020A060FD
:103FD00000208021C4E90301490061618900C4E92E
:103FE000061020622046FEF7CDF908B1FEF720F852
:103FF000AC62002205211A20A562FEF727FC1A20D8
:1040000013E0B0F1804F14D0164A904220D1886D51
:1040100040F010008865886D002200F010000090CC
:1040200008213620FEF712FC3620BDE83840FEF7A6
:10403000FFBB886D40F001008865886D002200F0AC
:104040000100009005211C20FEF700FC1C20ECE77D
:1040500038BD0000002C014000100240300002403A
:104060009C0400200010004090F83D10012901D070
:1040700001207047022180F83D100168CA6842F0B3
:104080000102CA6000680B49884205D0B0F1804F38
:1040900002D00949884207D18168084A114006299F
:1040A00006D0B1F5803F03D0016841F00101016005
:1040B00000207047002C0140004001400700010033
:1040C00070B5044690F83C000025012817D0012661
:1040D00084F83C60022084F83D00206882682F4B01
:1040E0001A4022F47F4282600868502838D00DDCE4
:1040F00020284FD005DC90B3102811D14AE00220CF
:1041000070BD302846D040280AD13BE060282FD02F
:1041100070280DD0B0F5805F03D0B0F5005F12D0ED
:10412000012584F83D60002084F83C00284670BDDD
:10413000CB68D1E90121206803F0FAF82068816892
:1041400041F0770109E0CB68D1E90121206803F053
:10415000EFF82068816841F480418160E1E719E06F
:10416000CA684968206803F033FA5021206806E0E5
:10417000CA684968206803F03CFA6021206803F0AF
:10418000E1F8CEE7CA684968206803F021FA4021C7
:104190002068F4E7226801461046F0E788FFFEFF3A
:1041A0007047704770B50446006801694FF000051C
:1041B000C943890715D4C168C943890711D4E91EC9
:1041C000016101202077206880698007204602D0A5
:1041D000FFF7E7FF04E000F0EBF8204600F0AEF94F
:1041E000257720680169C943490717D4C168C943C5
:1041F000490713D46FF00401016102202077206881
:10420000806910F4407F204602D0FFF7CAFF04E027
:1042100000F0CEF8204600F091F92577206801697A
:10422000C943090716D4C168C943090712D46FF0FE
:1042300008010161042020772068C06980072046BA
:1042400002D0FFF7AEFF04E000F0B2F8204600F025
:1042500075F9257720680169C943C90617D4C16873
:10426000C943C90613D46FF01001016108202077FB
:104270002068C06910F4407F204602D0FFF791FF0C
:1042800004E000F095F8204600F058F92577206802
:104290000169C943C90708D1C168C943C90704D125
:1042A000891E0161204600F02DFB20680169C94389
:1042B000090609D4C168C943090605D46FF0800115
:1042C00001612046FFF7C2FD20680169C943C905A5
:1042D00009D4C168C943090605D46FF4807101612E
:1042E0002046FFF7B2FD20680169C943490609D499
:1042F000C168C943490605D46FF0400101612046F9
:1043000000F052FB20680169C94389060BD4C168DB
:10431000C943890607D46FF0200101612046BDE83A
:104320007040FFF794BD70BD70B586B0044614218F
:104330006846FCF76EF81B4E216800241A4A0223D7
:1043400001254FF09040B14211D1D16C41F00101F3
:10435000D164D16C01F00101059151158DE81A006D
:104360006946CDE90345FEF7C7F806B070BDB1F167
:10437000804FFAD1D16C41F00101D164D16C00932E
:10438000CDE9013401F00101CDE9045103946946FE
:10439000FEF7B2F80421054800F0D8F80348006899
:1043A0008463E2E7002C0140001002400404002076
:1043B000704770B5044690F83C0000260D46012871
:1043C0000BD0012084F83C000C2A4AD007DC82B1D3
:1043D000042A20D0082A06D131E0022070BD102A1C
:1043E00053D0142A63D00126002084F83C003046C4
:1043F00070BD206802F0AEFF2068816941F00801BD
:1044000081612068816921F00401816120688169EE
:104410002A69114311E0206802F0D8FF2068816901
:1044200041F4006181612068816921F480618161CA
:10443000206881692A6941EA02218161D4E7206804
:1044400003F000F82068C16941F00801C1612068EB
:10445000C16921F00401C1612068C1692A69114361
:1044600011E0206803F028F82068C16941F4006178
:10447000C1612068C16921F48061C1612068C1699E
:104480002A6941EA0221C161AEE7206803F044F8DD
:104490002068416D41F0080141652068416D21F0BF
:1044A000040141652068416D2A69114311E02068CB
:1044B00003F060F82068416D41F4006141652068B7
:1044C000416D21F4806141652068416D2A6941EAAE
:1044D0000221416588E710B5040003D094F83D003F
:1044E00010B107E0012010BD002084F83C002046F8
:1044F00000F022F8022084F83D00211D206802F01F
:104500005FFE012084F8480084F83E0084F83F00F4
:1045100084F8400084F8410084F8420084F84300A5
:1045200084F8440084F8450084F8460084F8470085
:1045300084F83D00002010BD7047000004210148B0
:1045400000F06AB9B80300207047000010B50446B7
:1045500069B104290ED008290FD00C2910D01029D8
:1045600011D094F84300012810D0012010BD94F818
:104570003E00F8E794F83F00F5E794F84000F2E7D2
:1045800094F84100EFE794F84200ECE7022089B389
:10459000042933D0082934D00C2935D0102936D03D
:1045A00084F843000122206802F040FE1949206887
:1045B000194A884204D0904202D0184B984203D145
:1045C000436C43F4004343642068884204D0B0F154
:1045D000804F01D0904207D18168114A11400629CD
:1045E00006D0B1F5803F03D0016841F001010160C0
:1045F000002010BDFFE784F83E00D3E784F83F00B9
:10460000D0E784F84000CDE784F84100CAE784F899
:104610004200C7E7002C0140004001400044014037
:10462000070001002DE9F04117460D0004464FF048
:10463000000619D0042D1AD0082D1BD00C2D1CD02B
:10464000102D1DD094F8430002287CD0DDB1042D3C
:104650001CD0082D1DD00C2D1ED0102D1FD094F86D
:10466000430001281ED0C2E094F83E00ECE794F825
:104670003F00E9E794F84000E6E794F84100E3E7FB
:1046800094F84200E0E794F83E00EAE794F83F002F
:10469000E7E794F84000E4E794F84100E1E794F894
:1046A0004200DEE7002F75D0002B73D00220ADB1A1
:1046B000042D16D0082D17D00C2D18D0102D19D080
:1046C00084F843004D484E494E4AB5B1042D28D0D8
:1046D000082D68D00C2D7BD0012661E084F83E00C7
:1046E000F0E784F83F00EDE784F84000EAE784F85B
:1046F0004100E7E784F84200E4E7D4F824C0CCF8AE
:104700002C00606A0163606A394642632268606A0D
:104710003432FDF7A7FEE8BB2068C16841F40071A0
:1047200014E0D4F828C0CCF82C00A06A0163A06A79
:10473000394642632268A06A3832FDF793FE48BBCF
:104740002068C16800E02CE041F48061C160012272
:104750002946206802F06AFD2B4920682B4A8842CE
:1047600004D0904202D02A4B984203D1436C43F4C8
:10477000004343642068884204D0B0F1804F01D0E8
:10478000904209D18168234A1140062908D0B1F529
:10479000803F00E02BE003D0016841F0010101609F
:1047A0003046BDE8F081D4F82CC0CCF82C00E06A8B
:1047B0000163E06A394642632268E06A3C32FDF7F1
:1047C00051FEA0B92068C16841F40061BEE7FFE76F
:1047D000D4F830C0CCF82C00206B0163206B394634
:1047E00042632268206B4032FDF73CFE08B1012095
:1047F000D7E72068C16841F48051A7E747720008F5
:10480000A5720008DD720008002C01400040014044
:10481000004401400700010070B50D0004464FF050
:10482000000607D0042D0CD0082D47D00C2D4CD0FD
:10483000012641E02068C16821F40071C160606A0E
:1048400005E02068C16821F48061C160A06AFDF7BD
:1048500015FD00222946206802F0E8FC264941F2B5
:10486000111220689310884205D02449884202D052
:104870002349884209D1016A114206D1016A1942CD
:1048800003D1416C21F4004141642068016A114266
:1048900006D1016A194203D1016821F001010160CA
:1048A0000120CDB1042D1AD0082D1BD00C2D1CD009
:1048B000102D1DD084F84300304670BD2068C168BB
:1048C00021F40061C160E06AC1E72068C16821F499
:1048D0008051C160206BBAE784F83E00ECE784F8B1
:1048E0003F00E9E784F84000E6E784F84100E3E7A9
:1048F00084F84200E0E70000002C01400040014045
:104900000044014070B5044600682149884201D145
:10491000FDF710FF1F492068884234D11E481F4C04
:104920000023C188491C89B2C1800289521C0281BE
:104930004289521C42812278012A09D1184D2A88C5
:10494000521C92B22A8041F28835AA4200D32370C9
:10495000B1F5FA7F17D3C3800188491C89B2018061
:104960004288521C92B24280B1F5E16F00D30380BD
:10497000642A00D343800B498A7822B9097811B997
:104980008188491C8180BDE87040012019F096B9EA
:10499000001400400010004000000010140000202F
:1049A000180000209C6F0020704710B5040002D052
:1049B000A06F10B107E0012010BD002084F8740042
:1049C000204600F025F82420A0672068016821F027
:1049D00001010160204602F00BFF0128ECD0606A63
:1049E00010B1204602F072FE2068416821F4904127
:1049F00041602068816821F02A0181602068016897
:104A000041F0010101602046BDE8104002F0C2BE45
:104A10002DE9F0479EB00446142117A8FBF7F9FCD6
:104A20005C216846FBF7F5FC634A2068634C03266B
:104A30000727022500214FF00108904237D1C146D7
:104A4000CDF80080884668460891FDF775FF08B1EB
:104A5000FDF7EEFA206E40F480402066206E00F4F0
:104A600080401C90E06C40F00200E064E06C17A90C
:104A700000F002001C90402081E82101504CCDE95B
:104A80001A672046FDF738FD17A9802081E821022A
:104A90002046CDE91A67FDF72FFD002205212520CC
:104AA000FDF7D4FE2520FDF7C3FE464978E0464ACF
:104AB0004FF0040A904238D1894668460095099122
:104AC000FDF73AFF08B1FDF7B3FAA06D40F40030EE
:104AD000A065A06D00F400301C90E06C40F0010077
:104AE000E064E06CCDF85CA000F001001A96CDE91E
:104AF0001B70CDE918594FF0904417A92046FDF7D7
:104B0000FBFC17A9082081E821012046CDE91A679E
:104B1000FDF7F2FC002206212620FDF797FE262055
:104B2000FDF786FE1EB0BDE8F087284A9042F9D115
:104B3000CDF800A0894668460A91FDF7FDFE08B150
:104B4000FDF776FAA06D40F48020A065A06D00F41A
:104B500080201C90E06C40F00400E064E06C17A939
:104B600000F004001C904FF4806081E82102184C92
:104B7000CDE91A672046FDF7BFFC17A94FF4006086
:104B800081E821012046CDE91A67FDF7B5FC002236
:104B900007212720FDF75AFE2720FDF749FE0D4982
:104BA0000868026842F0200202600868016841F06B
:104BB00010010160B6E7000000380140001002401B
:104BC00000040048740600200044004000480040F3
:104BD000000800487C0700202DE9F8430446806F58
:104BE0001F4615460E4620284ED1CEB1C5B194F8C9
:104BF0007400012848D0012084F874004FF00008A8
:104C0000C4F880802120A067FDF756FDA4F850501D
:104C10008146A4F85250A068B0F5805F03D004E04C
:104C20000120BDE8F883206920B13546002684F8CC
:104C3000748010E00025FAE78021204602F0D6FEBD
:104C4000B8B9C5B115F8010B21680885B4F8520050
:104C5000401EA4F85200B4F852004B464FF0000238
:104C600000970028E8D14FF04001204602F0BEFE38
:104C700030B10320D5E736F8020BC0F30800E3E7B4
:104C80002020A0670020CCE70220CAE771B54FF4CE
:104C900061754FF0E024104E009819E02B469842C1
:104CA00000D80346A069594201EB810110EB0111C4
:104CB00005D4A269824208DA8A42FADA05E08A1942
:104CC000A1698142FCDD9142FADC0098C01A009093
:104CD0000028E3D178BD00008038010070B5214E76
:104CE000012240213046FDF7E1FC01201EF02AF8A8
:104CF000002280213046FDF7D9FC002440213046B7
:104D0000FDF7CFFC0028F9D1002501228021304693
:104D1000FDF7CCFC64000120FFF7B8FF00228021E2
:104D20003046FDF7C3FC40213046FDF7BAFC00B128
:104D3000641C0120FFF7AAFF6D1CEDB2182DE4D30F
:104D4000012280213046FDF7B1FC84F400040120EB
:104D5000FFF79CFF002280213046FDF7A7FC20468C
:104D600070BD00000008004870B500252C46FFF714
:104D7000B5FF641C05440A2CF9DB0A20B5FBF0F0F2
:104D800070BDFEE72DE9F04106461D4617460C466C
:104D90002A2000F01BF9304600F0F8F8384600F001
:104DA000F5F82B2000F012F9A4F58074A0B200F001
:104DB000EDF8A5F58075A8B200F0E8F8BDE8F0417F
:104DC0002C2000F003B9000010B56F4C00224FF406
:104DD00080612046FDF76AFC002261014FF090409F
:104DE000FDF764FC002204212046FDF75FFC322021
:104DF00006F0FAFD012204212046FDF757FC32207F
:104E000006F0F2FD322006F0EFFD112000F0DEF892
:104E10000A2006F0E9FD362000F0D8F8A02000F0C6
:104E2000E9F83A2000F0D2F8052000F0E3F8B220CB
:104E300000F0CCF80C2000F0DDF80C2000F0DAF8DF
:104E4000002000F0D7F8332000F0D4F8332000F031
:104E5000D1F8B72000F0BAF8352000F0CBF8BB202D
:104E600000F0B4F8352000F0C5F8C02000F0AEF82E
:104E70002C2000F0BFF8C22000F0A8F8012000F0BC
:104E8000B9F8C32000F0A2F8132000F0B3F8C42052
:104E900000F09CF8202000F0ADF8C62000F096F855
:104EA0000F2000F0A7F8D02000F090F8A42000F028
:104EB000A1F8A12000F09EF8D62000F087F8A120EC
:104EC00000F098F8E02000F081F8D02000F092F88F
:104ED000042000F08FF80D2000F08CF8112000F075
:104EE00089F8132000F086F82B2000F083F83F208B
:104EF00000F080F8542000F07DF84C2000F07AF8A3
:104F0000182000F077F80D2000F074F80B2000F066
:104F100071F81F2000F06EF8232000F06BF8E120FC
:104F200000F054F8D02000F065F8042000F062F89A
:104F30000C2000F05FF8112000F05CF8132000F066
:104F400059F82C2000F056F83F2000F053F8442088
:104F500000F050F8512000F04DF82F2000F04AF8F2
:104F60001F2000F047F81F2000F044F8202000F038
:104F700041F8232000F03EF8202000F027F8BDE89B
:104F80001040292000F022B80004004810B5044663
:104F9000000A00F02FF8E0B2BDE8104000F02AB897
:104FA00070B50C460546012210210648FDF77EFB30
:104FB000A2B22946BDE870404FF6FF730248FEF7E3
:104FC0004BBD000000040048EC02001070B5084C16
:104FD0000546002210212046FDF768FB284600F018
:104FE00009F82046BDE8704001221021FDF75EBBA4
:104FF0000004004801B54FF6FF73012269460248DC
:10500000FEF72AFD08BD0000EC0200100848D0F8A9
:10501000341208480A29006801DA07A105E00A39B4
:105020000A2901D205A100E005A113F0E9BF0000A3
:1050300038690020AC000010EE9BA700EE9BAB008F
:10504000EE9BB9002DE9F0410E46074615460421B6
:10505000052000F029F80021012000F0FFF8802150
:105060000A2000F0EFF8002404E0395D092000F088
:10507000F5F8641CB442F8D30321012000F0EEF8E7
:10508000084C052000F0C0F8641E01D04007F8D598
:10509000222000F0B9F82870212000F0B5F86870DF
:1050A000BDE8F081A086010070B50C46054600F011
:1050B000ABF820EA04012846BDE8704000F0CEB805
:1050C0002DE9FF5F0025DDF838B017468A46814696
:1050D0004FF0FE082E460C2805D0B9F10E0F04D172
:1050E0001225102601E07725302645F080010220A8
:1050F00000F0B4F880210420FFF7D6FF0021012042
:1051000000F0ACF880210A2000F09CF8002405E0B3
:105110001AF80410092000F0A1F8641CBC42F7D36F
:105120004946012000F09AF8B9F10C0F03D1802113
:105130000D2000F087F8294C042000F065F80746A0
:10514000641E03D0F80701D13742F5D080210D202D
:10515000FFF7AAFF3CB1062000F056F810F01B0F35
:105160000DD04FF0FE0880210C2000F06BF80021DC
:10517000012000F073F804B0404600F031B82F4031
:105180004FF00008F80701D04FF0FF08B9F10C0FFD
:10519000E9D10A2000F038F805460C2000F034F878
:1051A00010F007004FEAC50104D008390844ABF8F5
:1051B000000001E0ABF8001025B1122D00D9122536
:1051C000002407E00125FBE7092000F01DF8039902
:1051D0000855641CAC42F7D3C5E70000E093040017
:1051E00030BCBDE8C09F000010B5064C0122110381
:1051F0002046FDF75BFA20460122BDE81040D102AF
:10520000FDF754BA0004004870B57E2101EA400061
:105210000B4E40F080044FF4805500222946304662
:10522000FDF744FA204601F075FD002001F072FD03
:105230000446012229463046FDF738FA204670BD63
:105240000004004870B50C460546FFF7DDFF40EA54
:1052500004012846BDE87040AFF300802DE9F0411D
:105260000D467E2101EA40040A4F4FF48056002289
:1052700031463846FDF71AFA204601F04BFD284624
:1052800001F048FD31463846BDE8F0410122FDF706
:105290000DBA0000000400482DE9F84304461A2026
:1052A0008DF8000088460846FBF7D0F885B2204606
:1052B00000F06EF94FF4FA701DF044FD0A211AA0B7
:1052C000FCF772FE01281DD00026184C42F2107324
:1052D000022819D01F462A4641461548FFF77CFC94
:1052E00064201DF02FFD3B46012269461048FFF760
:1052F00073FC64201DF026FD0A210EA0FCF754FE6D
:10530000A6700020BDE8F883A0780122401CA070A0
:1053100069460748FFF760FCA078042802D3A6700E
:105320000120EFE70220EDE73E000000140000201E
:10533000740600202B514D545055423A0000000095
:1053400000B593B00C4A0DA1684602F033FE6846E2
:1053500000F01EF964201DF0F5FC3C2112A0FCF7C2
:1053600023FE012806D04FF47A701DF0EBFC00F00C
:105370004DF8002013B000BD546B002041542B5158
:105380004D54434F4E4E3D302C222573222C226E1D
:105390006562756C697A6572222C226C6A7268315A
:1053A00032333422000000002B514D54434F4E4EF7
:1053B0003A20302C302C300010B507A000F0E8F86F
:1053C00064201DF0BFFC3C210CA0FCF7EDFD012882
:1053D00000D0002010BD000041542B514D544F50BF
:1053E000454E3D302C223132302E32342E3134397C
:1053F0002E313739222C3138383300002B514D549F
:105400004F50454E3A20302C30000000F0B53E4D54
:10541000B7B02888000421D54FF4967421463B4844
:10542000FAF7F7FF3A493948FBF725F8214638489B
:10543000FAF7EFFF00242C803448FBF707F882B21C
:1054400042F2107331493348FFF7C6FB32A12F48AF
:10545000FAF7EAFF2D4E18B186F8314237B0F0BDA9
:1054600030A12A48FAF7E0FF012510B186F8305242
:10547000F4E72EA12548FAF7D7FF0028EED02E4AF0
:105480002EA116462148FBF70FF8DC216846FAF7F3
:10549000C0FF2EA11D48FAF7C7FF002832462DA1F4
:1054A000684603D002F086FD012110E002F082FD83
:1054B0002AA11648FAF7B8FF2B4E022708B103219C
:1054C0000FE02AA11148FAF7AFFF20B10221684688
:1054D00000F0A6FD14E028A10C48FAF7A5FF38B1AA
:1054E0000421684600F09CFD02F096F8377007E052
:1054F00023A10648FAF798FF10B12348057084806D
:105500002248C573AAE700002C000010386900206B
:10551000E40400207C0700202B514D545354415487
:105520003A0000002B49503A000000002B514D5426
:10553000524543563A000000646A0020252A5B5E0B
:105540007B5D7B255B5E7D5D000000007461736B9D
:10555000000000007B25737D7D000000636C6561A9
:10556000725461736B0000009D00001073796E63CC
:10557000446174650000000062696E640000000010
:105580006578656375746500140000209C03001045
:1055900010B50446FAF75AFF82B242F21073214660
:1055A0000548FFF719FBBDE810404FF47A7302225B
:1055B00002A10148FFF710BB740600200D0A00008D
:1055C00010B592B0044648216846FAF722FF0D4A0A
:1055D0002146684602F0EEFC6846FFF7D9FF4FF41B
:1055E00096701DF0AFFB3C2107A0FCF7DDFC012805
:1055F0004FF0000003D1084981F83102012012B0B8
:1056000010BD0000546B00202B514D545355423AAD
:1056100020302C310000000038690020094808B50E
:10562000816C41F001018164806C002200F0010076
:10563000009005210D20FDF709F9BDE808400D2077
:10564000FDF7F6B80010024010B5A4B001201DF01F
:1056500039FF204C03220021606001201DF03DFF36
:10566000A0601C221C496846FAF7ACFE002168467F
:1056700019F022FC184920601C221C3107A8FAF7F7
:10568000A1FE002107A819F017FC134920611C2274
:1056900038310EA8FAF796FE00210EA819F00CFC7E
:1056A0000D4960611C22543115A8FAF78BFE0021C8
:1056B00015A819F001FC0849E0601C2270311CA8F3
:1056C000FAF780FE00211CA819F0F6FBA06124B0B7
:1056D00010BD000010000010F83A02082DE9F04754
:1056E00086B014216846FAF794FE4448C16C41F034
:1056F0000401C164C16C01F004010591C16C41F069
:105700008001C164C16C01F080010591C16C41F060
:105710000101C164C16C01F001010591C16C41F04E
:105720000201C164C06C4FF0904A00F00200059085
:10573000012210215046FCF7B9FFDFF8C48040F287
:105740001446002231464046FCF7B0FF4FF4C057E4
:10575000012239464046FCF7A9FFDFF8A890002255
:1057600080214846FCF7A2FF00224FF40141504639
:10577000FCF79CFF1020009001250024CDE9015486
:10578000694650460394FCF7B7FECDE90065032651
:10579000CDE9024669464046FCF7AEFE0097CDE9EA
:1057A0000154694640460394FCF7A6FE4020CDE92B
:1057B0000004694648460294FCF79EFE8020009053
:1057C000CDE90154694648460394FCF795FE28024A
:1057D000CDE900050220CDE9024069465046FCF7BC
:1057E0008BFEE803CDE90005CDE902466946504647
:1057F000FCF782FE06B0BDE8F08700000010024012
:1058000000040048000800480A4810B50849016033
:105810000321416040F6B831C1608160FCF752FF5E
:10582000002803D0BDE81040FCF702BC10BD00000A
:10583000003000401402001038B5284850F8581FB6
:1058400041F080510160016801F080510091816B4D
:1058500041F400418163234C21480021206020460F
:10586000FDF7A8FD122837D000257F20C4E901509C
:10587000FF20C4E903056561A5612046E561FDF7E8
:10588000F3FD08B1FCF7D4FB122200211548FDF707
:1058900096FD14480824143801460470447085703D
:1058A000C560056101221430FDF79EFE08B1FCF7CA
:1058B000BFFB0D4804210122017012214170847048
:1058C0002221C17001460748FDF73EFE002803D0A3
:1058D000BDE83840FCF7ACBB38BD0000001002400A
:1058E00000280040940300200000002010B5134C55
:1058F00011484FF4E06120604FF482706060002036
:10590000C4E902014FF400712061C4E90501E061BE
:10591000206207216062C4E90A01206308206063F5
:105920002046FDF7E1FE08B1FCF782FB2068016824
:1059300041F04001016010BD003001402402001020
:10594000124810B5104901604FF482714160002186
:105950004FF4E062C0E902124FF400720161C0E945
:1059600005123822C0E9072107224162C0E90A1264
:10597000016308214163FDF7B7FE002803D0BDE8AD
:105980001040FCF755BB10BD0038004088020010E5
:1059900010B5144C12484FF4E06120604FF482704F
:1059A00060600020C4E902010221216101216161DE
:1059B0004902A1610821C4E9071007216062C4E916
:1059C0000A01206360632046FDF78EFE08B1FCF7F4
:1059D0002FFB2068016841F04001016010BD00000C
:1059E000003C0040EC02001010B59AB0002417945F
:1059F000189415941694129413941C210BA81494C3
:105A0000FAF707FD2C216846FAF703FD2A482949D1
:105A1000C0E900146321C0E902410461446184616A
:105A2000FEF78EFA08B1FCF703FB4FF48050159097
:105A300015A92148FEF744FB08B1FCF7F9FA1E4806
:105A4000FEF749FD08B1FCF7F3FA1294139412A97A
:105A500019481494FEF73EFA08B1FCF7E9FA602001
:105A6000CDE90B040D940E940F94109404220BA90D
:105A700011481194FEF79DFC08B1FCF7D9FA009487
:105A80004FF40050CDE904400194029403940003C4
:105A90000694CDE907400994694607480A94FEF741
:105AA000D7F908B1FCF7C4FA0348FEF73DFC1AB079
:105AB00010BD0000002C0140B803002010B58EB0CE
:105AC00000240794089409940A940B940C941C21C4
:105AD00068460D94FAF79DFC1F484FF08041016025
