:020000040800F2
:10000000D047002085020008C94C000819400008AC
:10001000B14C0008391A0008456A000800000000C9
:10002000000000000000000000000000A501000822
:100030009D1A00080000000001020008855E00080B
:100040009F0200089F0200089F0200089F0200080C
:100050009F0200089F0200089F0200089F020008FC
:100060009F0200089F0200089F0200089F020008EC
:100070009F0200089F0200089F0200089F020008DC
:100080009F0200089F0200089F0200089F020008CC
:100090009F0200089F0200089F0200089F020008BC
:1000A0009F0200084D5F00089F0200089F020008A1
:1000B000595F000800000000000000009F020008D7
:1000C0009F0200089F0200089F0200089F0200088C
:1000D0009F020008CD6600082967000889670008AC
:1000E0009F0200089F0200080000000000000000BE
:1000F0000000000000000000000000000000000000
:10010000000000009F020008000000009F0200089D
:100110000000000000000000655F00089F0200086A
:100120009F0200089F0200089F0200089F0200082B
:100130009F02000800000000000000000000000016
:100140009F0200089F0200089F02000800000000B4
:100150009F0200089F0200089F0200089F020008FB
:100160009F0200089F0200089F0200080000000094
:100170009F0200089F02000800000000000000002D
:100180009F0200089F0200089F020008DFF810D0BD
:1001900000F0C6FF0048004771780008AFF3008008
:1001A000D04700202C4B1968086800F05AB880F33B
:1001B0000988BFF36F8F4FF0000080F311887047FC
:1001C0000000000008480068006880F308884FF0CD
:1001D000000080F3148862B661B6BFF34F8FBFF39F
:1001E0006F8F00DF00BF00BF08ED00E0DFF80C00FC
:1001F000016841F470010160704700BF88ED00E0C4
:10020000EFF30980BFF36F8F134B1A681EF0100FC6
:1002100008BF20ED108A20E9F04F106009B44FF0BC
:10022000500080F31188BFF34F8FBFF36F8F08F03A
:10023000AFFA4FF0000080F3118809BC1968086814
:1002400000F014B81EF0100F08BF00F014B880F3CF
:100250000988BFF36F8F70473C000020EFF30580E3
:10026000704730C8B0E8C04FFFF7A1BF30C8B0E852
:10027000C04FFFF7E7BFB0EC088AB0EC08CAFFF741
:10028000E6BF00000648804706480047FEE7FEE755
:10029000FEE7FEE7FEE7FEE7FEE7FEE7FEE7FEE736
:1002A0003D5F00088D0100082DE9F05F0546002044
:1002B00092469B4688460646814640241BE02846D7
:1002C00041464746224600F0C0FD53465A46C01AF2
:1002D000914110D311461846224600F0A7FD2D1A71
:1002E00067EB01084F4622460120002100F09EFDE9
:1002F00017EB00094E41201EA4F10104DFDC484643
:1003000031462A46434600F000B830BCBDE8C09FE5
:10031000A0F14101192900D82030704740EA0103BB
:100320009B0703D009E008C9121F08C0042AFAD2AB
:1003300003E011F8013B00F8013B521EF9D270476F
:10034000D2B201E000F8012B491EFBD27047002217
:10035000F6E710B513460A4604461946FFF7F0FFC4
:10036000204610BD30B505462A460B4612F8010B53
:1003700013F8014B08B1A042F8D01CB1002802D0FC
:100380006D1CF1E7284630BD421C10F8011B002906
:10039000FBD1801A704710B5002200E0521C835C2C
:1003A0008C5CA34201D1002BF8D1D8B2E1B2401A43
:1003B00010BD034611F8012B00F8012B002AF9D1DA
:1003C0001846704730B505460020034600E05B1C28
:1003D000934205D2EC5CC85C201A01D1002CF6D106
:1003E00030BD00000FB400B58DB010A909900B907E
:1003F00000914FF0FF300A9000200C9005480690C5
:10040000054807906A4609A80F9900F055FD0DB000
:100410005DF814FBD50E0008F30E00082DE9FF5F10
:100420001D464FF0FF3BD5E9014691465F464FF030
:100430000008A9697F1C01988847296A8246884775
:100440000028F6D1BAF1FF3F0CD024F4C064002E8E
:1004500019DD600614D5BAF12B0F09D0BAF12D0FB2
:100460000ED103E0584604B000F07EB844F4806436
:10047000A9697F1C01988847761E8246002E02DDFE
:10048000BAF1300F03D0B9F1000F26D032E0A969DC
:10049000761E44F400747F1C019888478246002E23
:1004A00005DDBAF1780F06D0BAF1580F03D0B9F1D3
:1004B000000F10D01EE0B9F1000F02D0B9F1100FFB
:1004C00018D1A969761E24F400747F1C019888470E
:1004D0008246102002E0082000E00A20814609E060
:1004E00008FB0908A969761E44F400747F1C019872
:1004F00088478246002E05DD4946504600F0C7FC7D
:100500000028EDDAE96901988847A00502D46FF068
:100510000100A8E7E00725D1600613D5600502D5E4
:10052000C8F1000000E0404629680A1D2A600968F9
:10053000220501D5087015E0220701D5088011E0D9
:1005400008600FE02868011D29600068210502D5B8
:1005500080F8008006E0210702D5A0F8008001E0C5
:10056000C0F8008038467EE730BCBDE8C09F2DE96A
:10057000FF5FD2E901A74FF0000891699946144640
:10058000DDF838B0464601988847054659EA0B0021
:1005900005D009E0A169761C019888470546216AC3
:1005A000284688470028F5D1681C03D05FEACA7046
:1005B00005D015E04FF0FF3004B000F048B82068D7
:1005C000011D2160D0F800800AE05FEACA7001D105
:1005D00008F8015BA169761C7F1E019888470546D3
:1005E000002F1ADD681C18D0B9F1000F0DD0E817E4
:1005F00005EBD060421120F01F0059F822102A1A92
:10060000012090400142E0D107E0BBF1000FDCD1B6
:10061000216A284688470028D7D0E1690198884791
:10062000BBF1000F07D1002E05DD5FEACA7002D1D1
:10063000002188F80010A068B84203DDBBF1000F6C
:1006400003D017B16FF00100B6E73046B4E730BC15
:10065000BDE8C09F2DE9FF4F087883B09946FF2879
:1006600005D0491C2D2804D00024002008E00020DB
:100670000BE00124F9E700EB800003EB4000491C8C
:100680000B78FF2BF7D104B140420023029314787A
:1006900019461D462D2C01D02B2C04D1521C2D2C7B
:1006A00013D000240294AA461478FF2C0FD00A25F8
:1006B000A3FB057801FB05814FF0000C03FB0C1137
:1006C000521CE3194AEB0101EEE70124EAE78144F9
:1006D00053EA010002D019F5C87F06DA0398002119
:1006E000C0E9001107B000F065B90025AE4E2F46F5
:1006F000DFF8B882184600F0EFFCCDE90001B9F14F
:10070000000002DAC9F1000400E004460023A74A11
:100710001AEB030B42EB045A12E0E00707D02A461B
:1007200033463846414600F0F7F9074688462A46E0
:1007300033461046194600F0EFF905460E466410A0
:10074000002CEAD1DDE90001B9F1000F5A46534609
:1007500006DA00F056FA3A46434600F052FA05E04F
:1007600000F0DAF93A46434600F0D6F9029A0AB1A7
:1007700081F00041039AC2E90001B3E72DE9FF4F80
:100780001F468DB0D7E901464FF0FF382E20454671
:100790004FF000090B90B9696D1C0E988847396AB3
:1007A000824688470028F6D1BAF1FF3F0AD024F4E8
:1007B000D064002E11DDBAF12B0F08D0BAF12D0F45
:1007C0000BD102E0404611B08DE744F48064B96972
:1007D0006D1C0E9888478246761E6946600501D5D5
:1007E0002D2000E02B208DF8000001F1010B0DF110
:1007F000200809E0B9696D1C0E98884782460F9859
:1008000044F40074761E0560002E02DDBAF1300F4C
:10081000F0D00B998A453ED144F0800406E00F9950
:10082000681CA9F1010944F400740860B9696D1CE1
:10083000761E0E98884782463028F0D02BE00B9920
:100840008A4505D1200603D444F08004761E18E0C2
:10085000504606F00EFB08B30DF11301761E44F46A
:1008600000748B4508D2AAF130000BF8010B20066A
:1008700007D5A9F1010003E0200602D409F1010027
:100880008146A00502D50F99681C0860B9696D1CE6
:100890000E9888478246002ED1DC53E0002E51DDB1
:1008A000BAF1650F02D0BAF1450F4BD1A00549D579
:1008B000B9696D1C24F44074761E0E9888478246F0
:1008C000002E0CDD2B2804D0BAF12D0F07D144F4F3
:1008D0008074B9696D1C0E9888478246761EE005C3
:1008E00001D52D2100E02B2108F8011BCDF82C802B
:1008F00021E00DF12901761E44F4007488450CD2E4
:10090000AAF1300010F0FF0088F8000002D10B9926
:10091000884509D908F1010806E0E00501D5244819
:1009200001E042F20F708146B9696D1C0E9888474C
:1009300082460F980560002E04DD504606F099FAB5
:100940000028D6D1F9690E988847FF208BF800005F
:1009500088F800000020069007904B466A4608A9D8
:1009600006A8FFF777FEA00502D46FF001002AE782
:1009700014F0240F0AD0E00714D1DDE9061238681C
:10098000031D3B600068C0E900120BE0DDE90601D1
:1009900000F01AFA0146E00704D13868021D3A60F7
:1009A0000068016028460EE7000014400000F03F98
:1009B000F1D8FFFF30BCBDE8C08F2DE9FE4F804667
:1009C00081EA0300C00F0C46009021F0004123F0A3
:1009D0000045B8EB0200A94105D2404621469046A9
:1009E0001C460B46024623F00040104347D0270D1B
:1009F000C7F30A00C3F30A510290401A019040283D
:100A00006BDAC3F3130040F4801B0098924620B1C8
:100A10000023D2EB030A63EB0B0B01985946C0F19C
:100A20004002504600F002FA06460D46504659462E
:100A3000019A00F01AFA10EB08006141002487EADD
:100A4000115284EAE7731A4340D0009A62B3019AC4
:100A5000012A4FEA075215DC001B61EB02014FF03F
:100A6000004202EA0752CDE90042001C41F5801124
:100A700032462B4600F0E2FA03B000F045B840469B
:100A80002146F9E7001B61EB0201001C41F58013D0
:100A900000185B412018A2F5001747EB030140EA5C
:100AA000D570B6196D4111E06D084FEA360645EA7A
:100AB000C0754FEA0752001B61EB0201001C41F5B3
:100AC000801149084FEA30000019514132462B4647
:100AD00003B000F01CB800F0A2BA00980122400058
:100AE0000023D0EB020263EBE073009821464FEA4B
:100AF000E074B8EB000061EB0401E9E783F0004328
:100B00005BE781F0004158E730BCBDE8C08F30BCE6
:100B1000BDE8C04FFFF7DFBF2DE9FE4F81EA0304B8
:100B200004F0004421F0004100944FF0000B23F04A
:100B3000004350EA01045ED052EA03045BD0C3F3E1
:100B40000A54C1F30A552C44A4F2F3340194A0FBD7
:100B50000254C1F3130141F48011C3F3130343F4AE
:100B6000801301FB024400FB034E840A970A44EA07
:100B7000815447EA8357A4FB076802958D0A05FB59
:100B800007854FEA932C04FB0C542705029D4FEA7E
:100B9000065847EA1637B5EB08056EEB070C870ECB
:100BA000920E47EA811742EA8312A7FB0201B6EBD5
:100BB0000B0164EB00042B0D43EA0C335E1844EB8D
:100BC0001C50DA465146E7FB0201C5F313044FEA15
:100BD0000B3343EA14534FEA0432019C43EA060301
:100BE000A4F10C040294009CCDE900B400F026FAB4
:100BF00003B000F003B800200146F9E730BCBDE8BF
:100C0000C08F2DE9F04D81EA030404F0004B21F080
:100C1000004514464FF0000A23F0004150EA050257
:100C200020D054EA01021DD0C5F30A570246C5F38D
:100C30001303C1F31300C1F30A5640F4801543F4C3
:100C40008013A7EB0608101BD64608F2FD3873EB9D
:100C5000050002D308F1010801E092185B41B8F1E8
:100C6000000F03DA00200146BDE8F08D00204FF4AC
:100C70008011064684460EE0171B73EB050705D36B
:100C8000121B63EB050306434CEA010C49084FEACB
:100C9000300092185B4150EA0107EDD152EA03009F
:100CA00012D082EA040083EA0501084305D0101B34
:100CB000AB4106D20122002306E000224FF00043A0
:100CC00002E06FF0010253101AEB06004CEB0851E2
:100CD00010EB0A0041EB0B01BDE8F04D00F09FB9AD
:100CE0000EB5C10F80EAE0700844CA07002140F247
:100CF00033438DE80E000A460B4600F09FF903B01F
:100D000000BD70B5C1F30A5201F000450024C1F3E3
:100D1000130140F2FF3341F480119A4201DA0020BE
:100D200070BD40F233439A42A2F2334203DC524296
:100D300000F08BF800E090402C43F1D0404270BDB1
:100D400000F0004230F000400AD0C10D01F56071A2
:100D5000C0F3160042EA0151C20840071143704730
:100D6000002001467047000030B5041E71F10004F8
:100D700004DB4FF00044404264EB0101141E73F1A8
:100D8000000405DB1C464FF00043524263EB0403B2
:100D90008B4208BF824230BD30B5041E71F10004A1
:100DA00004DB4FF00044404264EB0101141E73F178
:100DB000000405DB1C464FF00043524263EB040382
:100DC000994208BF904230BD01F0004330B421F099
:100DD000004150EA010206D00A0DA2F56072C1F38B
:100DE0001301002A02DC30BC00207047440F44EAA3
:100DF000C104C100E01830BC00EBC25000F0D8B80C
:100E000030B50B46014600202022012409E021FADA
:100E100002F59D4205D303FA02F5491B04FA02F5D7
:100E20002844151EA2F10102F1DC30BD202A04DBAA
:100E3000203A00FA02F1002070479140C2F12003ED
:100E400020FA03F3194390407047202A04DB203A2C
:100E500021FA02F00021704721FA02F3D040C2F1DA
:100E600020029140084319467047202A06DBCB1721
:100E7000203A41FA02F043EAE07306E041FA02F355
:100E8000D040C2F1200291400843194670473A28E9
:100E900000D2303820F02002412A01D3A2F13700DD
:100EA000884201D34FF0FF307047000002681144C0
:100EB0001378016018467047D160044951610449B4
:100EC000116200211161114600F042B9AD0E000817
:100ED00045110008426842B1016811F8013B23B195
:100EE000521EC0E90012184670470121C160881ED9
:100EF000704742685AB1C368016843B983688B423E
:100F000005D0491E521CC0E90012002070474FF066
:100F1000FF3070470FB4002300B589B00CA90091D1
:100F20000B996FF00042CB601E4B06931E4B07934C
:100F30000423CDE901321D4A089202466B46002087
:100F4000FFF71CFC09B05DF814FB70B586B00646CF
:100F50004FF0FF300091CDE90101002015460C460D
:100F600004903246694604A8FFF7D4FF024604986D
:100F7000211825B108B1084600E0204628600498F1
:100F800000280DD0002A02DD0098884208D0081BF6
:100F90000094CDE901043246694604A8FFF7BAFF80
:100FA00006B070BDD50E0008F30E0008451100080C
:100FB0000029A8BF7047401C490008BF20F001006D
:100FC000704710B4B0FA80FC00FA0CF050EA01044B
:100FD00004BF10BC704749B1CCF1200421FA04F4DD
:100FE00011FA0CF118BF012121430843A3EB0C01B6
:100FF000CB1D4FEA00614FEA102042BF002010BC19
:10100000704700EBC35010440029A4BF10BC7047C8
:10101000401C490008BF20F0010010BC704710B50B
:10102000141E73F1000408DA401C41F1000192180B
:101030005B411A4301D120F0010010BD2DE9F04DB4
:1010400092469B4611B1B1FA81F202E0B0FA80F209
:1010500020329046FFF7EAFE04460F4640EA0A00B7
:1010600041EA0B0153465A46084313D0114653EA4E
:10107000010019D0C8F140025046FFF7E6FE0546D0
:101080000E46504659464246FFF7D0FE084305D06B
:10109000012004E020463946BDE8F08D00200543DC
:1010A00046EAE0762C4337430A986305E40AA0EB4E
:1010B00008000022FD0A44EA47540A3002D5002005
:1010C0000146E9E7010510196941DDE90845001904
:1010D0006941BDE8F04DA2E70EB540F233420292FD
:1010E0000022CDE900221346FFF7A8FF03B000BDA0
:1010F000C1F30A52C1F3130140F2FF3341F48011EE
:101100009A4202DA00200146704740F233439A4285
:10111000A2F2334202DC5242FFF797BEFFF786BECF
:10112000064C074D06E0E06840F0010394E8070034
:1011300098471034AC42F6D3FFF72CF8E893000838
:1011400008940008C0B24FF4F05100F09DB90000BF
:101150002DE9F34F8BB04FF0000801F10C000C4665
:101160004FF0010B46460DF1080A0190626901211A
:1011700001989047051E2DD0252D2CD0216A884737
:10118000C0B16269012101989047216A884700280F
:10119000F7D1411E62690198904700E0761CA16971
:1011A0000B988847216A88470028F7D1E1690B9896
:1011B0008847DBE7A1690B9888470746A84201D119
:1011C000761CD3E7E1690B9888477F1C02D1B8F100
:1011D000000F6FD047E1002762693D46394601980C
:1011E00090472A2804D1626901210198904701257E
:1011F000DFF888926269012101989047A0F13001DF
:101200000A290AD24F45E5DC07EB870100EB4107CD
:10121000303FDFD445F01005ECE7E90601D46FF06C
:1012200000476C280AD04C2814D0682815D06A28AA
:101230000DD074281CD07A281AD01DE062690121D3
:10124000019890476C2802D045F0040514E045F061
:1012500002050DE045F020050AE0626901210198D0
:101260009047682802D045F0080505E045F4006580
:101270006269012101989047C4E9015765283DD072
:1012800019DC58287AD00CDC452837D004DC252816
:1012900026D0412831D131E046282FD047282CD103
:1012A0002CE05B2877D0612828D063287CD0642884
:1012B00023D15AE0D1E06F2848D008DC66281DD041
:1012C00067281BD0692821D06E2816D127E0702806
:1012D00045D0732868D0752847D078280DD14DE0C7
:1012E000A1690B988847054625283FF469AFE16955
:1012F0000B9888476D1C3FF46AAFB4E023466A46FA
:101300006FF001000B99FFF739FA9FE045F04000BC
:101310006060A80723464FF0000236D43EE0E8079D
:101320007FF447AF2068011D21600068290501D5C1
:1013300006701BE7290701D5068017E7A90703D523
:10134000F117C0E9006111E706600FE745F04000C2
:101350006060A80723464FF0080216D41EE040F64E
:101360000E0125EA0100606016E045F04000606073
:10137000A80723464FF00A0207D40FE045F04000CB
:101380006060A80708D5234610226FF001000B9972
:10139000AFF300805AE007E0234610226FF001000F
:1013A0000B99FFF73BF851E04FF000094F464B46D1
:1013B000632802D05B2807D041E02079C00601D421
:1013C0000120A06001273AE062690121019890475D
:1013D0005E2805D14FF0010962694946019890479E
:1013E000216939B900210A46534643F82120491C96
:1013F0000829FADBB0B3216969B9C11700EBD162E2
:1014000053110AEB830122F01F02821A01200B689C
:10141000904003430B6062690121019890475D2869
:10142000E8D1B9F1000F09D00020514651F8202031
:10143000D24341F82020401C0828F7DB02AB2246AB
:1014400000976FF001000B99FFF791F800280CDA74
:10145000401C08D1BBF1000F05D04FF0FF300DB09C
:1014600000F00EB8FFE74046F9E7E90701D108F1BF
:10147000010806444FF0000B78E60000CCCCCC0C01
:1014800030BCBDE8C08F00007F2801D9002208E0F1
:10149000064A02EB5002C007127800D1120902F08E
:1014A0000F0201209040084070470000B8920008E9
:1014B00070B52DA003F0D4F84FF49674204607F0D1
:1014C000DDF829A12BA000F0B9FA00284AD12AA002
:1014D00003F0C6F8204607F0D1F827A125A000F0B8
:1014E000ADFA00283ED12AA003F0BAF8204607F052
:1014F000C5F827A11FA000F0A1FA012831D0274A82
:1015000027A11546A2F56170FEF76CFF294628A0B9
:1015100005F03CFB21462948FEF719FF204607F05D
:10152000ADF827A003F09CF8204607F0A7F824A107
:1015300010A000F083FA012813D0184A23A1143216
:1015400015461E48FEF74EFF294624A005F01EFB57
:1015500024A12846FEF706FF20B1204607F08EF8AA
:10156000002070BD012070BD41542B4350534D539A
:101570003D3000004F4B000041542B514D54434629
:10158000473D2273657373696F6E222C302C3000D7
:1015900041542B4347534E3D310000002625002087
:1015A000252A5B5E3A205D3A20255B5E0D5D0000DA
:1015B000696D65693D25730D0A000000A2210020B8
:1015C00041542B4347534E3D30000000252A5B5EBB
:1015D0004D5D255B5E0D5D0D00000000736E3D25C9
:1015E000730D0A004D504E0088B0614C5E4FDFF81D
:1015F0007C91604E4FF0010804F5667A00254FF4A7
:10160000FA7B00BF02F09CFF94F8AD0310B10128F3
:1016100023D0A4E03868142803D294F8AC0301283E
:10162000F7D184F8AD83FFF743FF01287DD003F0A5
:1016300091F802F029FF0028EBD106F08FF894F81A
:10164000AD030128E5D13D60358005F0ABFF58467C
:1016500007F014F805F09FFF81E0386878281DD363
:1016600043483D603580C821C838FEF770FE07F05A
:1016700073FCCDF80080CDE901803F4B52463F49D5
:10168000A3F24C4005F092FA3949C83901F570705F
:1016900002F0EEFD012801D106F060F899F8020091
:1016A000012823D199F8030002281FD13248358040
:1016B00046212B30FEF74BFE1C2231A16846FEF777
:1016C0002DFE36486946D9F8082083882A482B30F1
:1016D00005F06CFA284932A02B3102F0C9FD01282F
:1016E00001D106F03BF8032189F803103088142853
:1016F0000BD32DA0358000680090694628A002F029
:10170000B7FD012801D106F029F899F80400022854
:1017100020D194F8AE0301281CD1174846212B3064
:10172000FEF715FE21A007C800E016E08DE80700CF
:101730001148524669462B3005F038FA0E492B31D4
:10174000A1F1710002F094FD012801D106F006F824
:1017500084F8AE533088282801D984F8AD53584610
:1017600006F08CFF4EE7000004000020B0250020AA
:10177000A2210020000000202625002094930008CC
:101780007B22436172645F4944223A25782C2257B8
:101790006569676874223A25647D000098250020F9
:1017A00042433236305900004F4B00007B22736EAB
:1017B000223A222573227D0038B5040300F0FAFA9C
:1017C000054620208DF80000200C8DF80100200A2D
:1017D0008DF802008DF8034000F000F94FF09044BE
:1017E00000221021204600F0DFFA4FF47A73042221
:1017F00069460C4801F085FC01221021204600F0CA
:10180000D3FA00BF00F010F80228FBD000F0D2FAA3
:10181000401B40F6B831884201D9032038BD002072
:1018200038BD00006C0300207CB511A04FF090443F
:101830000068009000221021204600F0B5FA4FF415
:101840007A752B46012269460A4801F05AFC2B465C
:10185000012201A9074801F08DFB01221021204639
:1018600000F0A2FA9DF80400C00700D002207CBD61
:10187000050000006C03002038B50DA04FF0904427
:101880000068009000221021204600F08DFA4FF4ED
:101890007A7302226946074801F033FC01221021C5
:1018A000204600F081FABDE83840FFF7BDBF0000D8
:1018B000669900006C030020F8B5054603208DF8FA
:1018C0000000080C8DF80100080A8DF8020014468B
:1018D0008DF803104FF0904700221021384600F099
:1018E00063FA4FF47A76334604226946094801F0D8
:1018F00008FCA2B233462946064801F03BFB08B17A
:101900000120F8BD01221021384600F04DFA0020D8
:10191000F8BD00006C0300202DE9F84F16460C4678
:10192000834600F047FA0746002001E000F580708A
:10193000A042FBD9051BB54200D9354604EB060A87
:101940004FF002094FF090484FF47A768DF80090EE
:10195000200C8DF80100200A8DF802008DF803405C
:1019600000F03CF800221021404600F01DFA3346FA
:1019700004226946164801F0C4FB30B9AAB23346C6
:101980005946134801F0BDFB10B1012000F022B808
:1019900001221021404600F007FA06E000F00AFAA2
:1019A000C01BB04201D90320F0E7FFF73DFF02283A
:1019B000F4D02C4404F58070AB44504502D9AAEB16
:1019C000040501E04FF480755445BFD30020DDE7E6
:1019D0006C03002018BCBDE8E08F0000F8B514A02F
:1019E0000068009000F0E6F904464FF090460022AF
:1019F0001021304600F0D8F94FF47A752B460122B9
:101A000069460C4801F07DFB01221021304600F0B0
:101A1000CBF900BFFFF708FF0228FBD000F0CAF99E
:101A2000001BA84201D90320F8BD0020F8BD00002A
:101A3000060000006C030020FEE700002DE9F041E5
:101A40000E460746002402F07BFD4FF4967516E023
:101A50000FA11148FEF786FC08B90A2C02D3012019
:101A6000BDE8F081641CE4B2304602F0F9FD28467E
:101A700006F004FE02F064FD284606F0FFFD39463C
:101A80000548FEF76FFC0028E2D00020E8E70000E0
:101A90004552524F52000000A2210020704772B6FA
:101AA000FEE7000010B540F2C2342246002114487F
:101AB000FFF702FF12480078142803D92146104886
:101AC000FEF745FC0F480024042204604460846053
:101AD000C46040F226410C48FFF7EEFE0A48018838
:101AE000827849BA090441EA0221C2781143074ABF
:101AF0004161914201D9491C00D1446110BD0000EF
:101B0000181D0020BC2500209825002040420F0011
:101B100010B5134C9FED110A84ED020A02F06EFA23
:101B200020616169884215D9401A00EE100A94EDCF
:101B3000031AF8EE400A80EE810AB2EE041AF6EEBD
:101B4000000A84ED020A40EE010ABCEEE00A10EE43
:101B5000100AA08094ED020A10BD000000000000F1
:101B60009825002010B502F049FA0A49020E486192
:101B70000A70020C4A70020A8A70C870042240F28D
:101B80002641044804F060FFBDE8104002A004F0C4
:101B9000FDBF000098250020676574206F6B0D0A5B
:101BA0000000000070B5044600F004F90546601C12
:101BB00002D004480078044400F0FCF8401BA04226
:101BC000FAD370BD2C0000202DE9F04FDFF8AC9166
:101BD00000230325A9F1040B85B04FF0010C0F275A
:101BE00009F1040AABF1040EBFE000BF0CFA03F6E2
:101BF000324075D00C7904F00304012C01D0022C82
:101C00001BD1846800945C0005FA04F80494009CDD
:101C100024EA08040094D1F80C80049C08FA04F823
:101C2000009C48EA0408C0F808804468B4430E7970
:101C3000C6F300169E40264346600C79E443A40791
:101C40000AD0C4684FEA430805FA08F6B4438E6820
:101C500006FA08F62643C6600C7904F00304022C49
:101C600010D1DC0800EB84040294246A5E074FEA7A
:101C7000D66807FA08F6B4430E6906FA08F6264352
:101C8000029C266204684FEA430805FA08F6B4434A
:101C90000E7906F0030606FA08F6264306604C683D
:101CA00014F4403F60D0364C266E46F0010626669E
:101CB000246E23F0030604F001040094314C3444F4
:101CC0000294A4689E074FEA167807FA08F6B44310
:101CD000B0F1904F05D02C4EB04204D1012612E055
:101CE00042E000260FE0294EB04201D102260AE070
:101CF000274EB04201D1032605E0264EB04201D165
:101D0000042600E0072606FA08F62643029CA66091
:101D1000D9F800604C46D1F8048096435FEAC828A1
:101D200000D516432660DAF800405646D1F8048004
:101D300094435FEA882800D514433460DBF8004000
:101D40005E46D1F8048094435FEA883800D5144396
:101D50003460DEF800407646D1F8048094435FEAB0
:101D6000C83800D5144334605B1C0A6832FA03F4A7
:101D70007FF43CAF05B000F00FB80000080401404C
:101D80000010024000000140000400480008004824
:101D9000000C00480010004830BCBDE8C08F00694E
:101DA000084000D0012070470AB18161704781620C
:101DB0007047000001488068704700002C00002038
:101DC00070B5040011D021684CF6CC400860216841
:101DD00045F255500860D4E9000141602168A068CF
:101DE0008860FFF7E7FF05460DE0012070BD00BFEA
:101DF000FFF7E0FF401B312805D92068C068400785
:101E000001D0032070BD2068C0684007F0D1206871
:101E10000269E1688A4201D0016102E04AF6AA2122
:101E20000160002070BD00684AF6AA210160002010
:101E30007047000002488168027811448160704751
:101E40002C00002010B50024032000F099F80F208A
:101E500000F008F808B1012401E000F049F820463C
:101E600010BD000030B505461C4887B0016E41F436
:101E700000610166006E06A900F40060009001A8F0
:101E800000F0D4FA00F004FB1549164AB0FBF1F15A
:101E90001548491E0260416040F2E7320021C0E966
:101EA00003218160816101F061FB040012D10E48C1
:101EB00001F0BEFB04000DD1192000F033F8102D05
:101EC00007D200222946192000F03AF80748056099
:101ED00000E0012407B0204630BD000000100240A1
:101EE00040420F00002C0140DC090020300000209F
:101EF0000B4882B0016E41F001010166016E01F0F4
:101F000001010091816D41F080518165806D002259
:101F100000F0805000900F21901E02B000F010B829
:101F200000100240002809DB00F01F02012191404F
:101F30004009800000F1E020C0F800117047000067
:101F4000F0B40E4B1B680C46C3F30223C3F1070524
:101F5000042D00D90425191D072901D2002300E012
:101F6000DB1E012606FA05F1491E214099409E40DC
:101F7000761E16403143F0BC04F02CBE0CED00E0A0
:101F8000064900F0070208684FF6FF03184040EAD0
:101F90000220034A10430860704700000CED00E087
:101FA0000000FA051649B0F5007F0868C0F341202B
:101FB00009D0022805D0086820F4C06040F4806091
:101FC0000860002070470128FBD0086820F4C0603A
:101FD00040F4007008600B483222006850430A4AFF
:101FE000B0FBF2F0401C00E0401E4A69520501D5EA
:101FF0000028F9D148694005E3D503207047000067
:10200000007000403800002040420F000248006885
:1020100000F4C06070470000007000400248016892
:1020200041F4807101607047007000402DE9F84F65
:10203000044600270088A84D3E46000515D5606C73
:1020400060B1B0F5000F04D0B0F5400F2BD00127E0
:102050000AE0E86840F48030E86024E00021201DB8
:1020600003F088FC07001ED03E46206880033AD566
:10207000A86D4FF00008C00009D4A86D40F0805052
:10208000A865A86D4FF0010800F080500090DFF8BF
:102090004CA2DAF8001041F48071CAF80010FFF782
:1020A00089FE814610E0D5F88800616C20F440007C
:1020B0000843C5F88800D8E7FFF77CFEA0EB0900CD
:1020C000022801D9032705E0DAF80000C005F3D59E
:1020D000002F7DD04FEA0706B8F1000F03D0A86D9E
:1020E00020F08050A8652078C00707D0D5F8880078
:1020F000216A20F003000843C5F888002078800793
:1021000007D5D5F88800616A20F00C000843C5F8AF
:1021100088002078400707D5D5F88800A16A20F00C
:1021200030000843C5F888002078800607D5D5F828
:102130008800E16A20F440600843C5F888002088E0
:10214000800507D5D5F88800E16B20F440200843CE
:10215000C5F888002088400507D5D5F88800216C8F
:1021600020F440100843C5F888002078400607D5C1
:10217000D5F88800216B20F440500843C5F888004A
:102180002078000607D5D5F88800616B20F4404020
:102190000843C5F888002088C00507D5D5F8880011
:1021A000A16B20F440300843C5F8880020684FF048
:1021B000006700034FF0806850D5D5F88800A16C07
:1021C00020F040600843C5F88800A06CB84200E0E9
:1021D00005E03BD1E86840F48010E8603EE0D5F8C7
:1021E000900010F4407014D0A16D814211D0D5F848
:1021F0009000D5F8901020F4407041F48031C5F87B
:102200009010D5F8901021F48031C5F89010C5F8E1
:102210009000C00711D0FFF7CDFD074641F2883985
:1022200007E000BFFFF7C6FDC11B494501D90326E2
:1022300052E7D5F890008007F4D5D5F89000A16D4D
:1022400020F440700843C5F8900045E7404505D1AB
:102250000121201D03F08EFB00B1064620684003DB
:1022600017D5D5F88800E16C20F040600843C5F828
:102270008800E06CB84204D1E86840F48010E8605F
:1022800007E0404505D10121201D03F073FB00B19B
:1022900006462088400411D5D5F88800216D20F02D
:1022A00040500843C5F88800206DB0F1805F05D12B
:1022B0000221201D03F05EFB00B1064620880004C9
:1022C00006D555F8880F616D20F0804008432860DE
:1022D000304600F005B800000010024000700040D9
:1022E00018BCBDE8E08F00002DE9F0470F4605005F
:1022F0006BD0494E306800F00700B84209D2306810
:1023000020F0070038433060306800F00700B84222
:102310005BD12878414C80070AD5A868A16801F0F4
:10232000F001884204D9A16821F0F0010143A160C5
:102330002878C0072CD06868032811D0022812D052
:10234000216898B1490500293FDAA16821F003010D
:102350000143A160FFF72EFD804641F2883910E06D
:1023600021688901EFE721688903ECE78907EAE73B
:10237000FFF720FDA0EB0801494502D90320BDE885
:10238000F087A068696800F00C00B0EB810FEFD116
:10239000287880070AD5A868A16801F0F001884272
:1023A00004D2A16821F0F0010143A160306800F07F
:1023B0000700B8420BD9306820F00700384330607E
:1023C000306800F00700B84201D00120D7E7287834
:1023D000400705D5A068E96820F4E0600843A060E4
:1023E0002878000706D5A068296920F4605040EAE3
:1023F000C100A06000F05EF8A168094AC1F30311B2
:10240000515C01F01F01C840064908600648006899
:10241000BDE8F047FFF726BD002002400010024053
:102420007092000838000020300000200F22026067
:102430000C4A936803F003034360936803F0F003CE
:102440008360936803F4E063C36092684FF4E063D1
:1024500003EAD20202610448006800F00700086045
:102460007047000000100240002002400548064965
:1024700000688968054AC1F30221515C01F01F011F
:10248000C84070473800002000100240B092000899
:102490000548064900688968054AC1F3C221515CB4
:1024A00001F01F01C84070473800002000100240B2
:1024B000B092000870B52549002318468A68CC6898
:1024C00012F00C0204F00306214C4FEA640509D017
:1024D0000C2A05D0042A32D0082A00D1284670BD23
:1024E000012E10D10B681B0704D4D1F89430C3F32C
:1024F000032302E00B68C3F30313164E56F8233090
:10250000DAB10C2AEBD1C86800F00300022818D019
:10251000032818D01846CA68CB68C2F30212C3F366
:1025200006234343521CB3FBF2F2C868C0F3416078
:10253000401C4000B2FBF0F070BD184670BD204654
:1025400070BD2046E7E72846E5E70000001002409E
:102550000024F400809200082DE9F84304006FD0B5
:10256000FA4DA86800F00C06E86800F00307207830
:10257000C00664D576B10C2E01D1012F0AD0A06916
:10258000002828687AD040F001002860FFF712FC8C
:1025900080465DE02868800702D5A0690028DED06B
:1025A000216A2868000703D5286800F0F00004E0DD
:1025B000D5F89400F02202EA1010814216D908469C
:1025C00003F06EFA00283BD1286840F0080028602C
:1025D0002868216A20F0F000084328606868E169F3
:1025E00020F47F4040EA0120686016E0286840F04F
:1025F000080028602868216A20F0F000084328605D
:102600006868E16920F47F4040EA0120686026B9EB
:10261000206A03F045FA0028D5D1FFF74BFFA968DF
:10262000CB4AC1F30311515C01F01F01C840C949F5
:102630000860C9480068FFF715FC00287ED12EE02D
:10264000CAE000BFFFF7B6FBA0EB0800022876D86F
:1026500028688007F6D5286840F0080028602868B8
:10266000216A20F0F000084328606868E16920F4DE
:102670007F4040EA0120686011E0FFE720F00100A0
:102680002860FFF797FB804606E000BFFFF792FB4C
:10269000A0EB08000228DAD828688007F6D4207852
:1026A000C00740D0082E18D00C2E01D1032F14D013
:1026B0006068B0F5803F17D0B0F5A02F286817D01C
:1026C00020F480302860286820F48020286060682A
:1026D000E0B1FFF76FFB804614E02868800322D545
:1026E0006068002878D01EE0286840F48030EDE76C
:1026F00040F480202860F7E7FFF75CFBA0EB0800C0
:102700006428A4D828688003F6D50CE0FFF752FBB4
:10271000804605E0FFF74EFBA0EB0800642896D842
:1027200028688003F6D4207880073BD5042E11D08A
:102730000C2E01D1022F0DD0E06801E0AAE1FFE0EC
:10274000002828681ED040F480702860FFF732FB14
:1027500007460CE0286840050CD5E0680028C1D089
:1027600008E000BFFFF726FBC01B022893D82868AB
:102770004005F7D56868217C20F0F85040EA0160F8
:1027800068600FE020F480702860FFF713FB0746B5
:1027900005E000BFFFF70EFBC01B0228B1D8286878
:1027A0004005F7D42078000729D560690028D5F8BE
:1027B000940012D040F00100C5F89400FFF7FAFA37
:1027C000074604E0FFF7F6FAC01B022899D8D5F8AF
:1027D00094008007F6D512E02BE120F00100C5F847
:1027E0009400FFF7E7FA074605E000BFFFF7E2FABB
:1027F000C01B022885D8D5F894008007F6D420782D
:10280000400766D5A86D0027C00008D4A86D40F029
:102810008050A865A86D012700F0805000904F48B7
:102820000168C90512D40168814641F480710160D4
:10283000FFF7C0FA804605E0FFF7BCFAA0EB0800FE
:1028400002287DD8D9F80000C005F5D5A068012878
:1028500016D00528D5F8900017D020F00100C5F853
:102860009000D5F8900020F0040000BFC5F890005B
:10287000A06841F28839C0B1FFF79CFA80460FE0AA
:10288000D5F8900040F00100F0E740F00400C5F8F2
:102890009000F5E7FFF78EFAA0EB080149454FD805
:1028A000D5F890008007F5D50EE0FFF783FA804653
:1028B00006E000BFFFF77EFAA0EB080149453FD8CC
:1028C000D5F890008007F5D41FB1A86D20F0805096
:1028D000A8652078800628D5606A0028D5F8980079
:1028E00012D040F00100C5F89800FFF763FA0746E0
:1028F00005E000BFFFF75EFAC01B022820D8D5F81C
:1029000098008007F6D510E020F00100C5F8980087
:10291000FFF750FA074604E0FFF74CFAC01B022805
:102920000ED8D5F898008007F6D4A06AF0B3022834
:1029300016D00C2E7DD0286820F08070286000E032
:10294000A7E0FFF737FA0446A6E0000000100240B7
:102950007092000838000020300000200070004015
:10296000E868E26A00F00301914228D1216B00F08F
:10297000700209011039914221D1626B00F4FE41CD
:10298000B1EB022F1BD194F8382000F07841B1EB65
:10299000C26F14D1A18F00F4C00249084905A1F506
:1029A000001191420BD194F8401000E06AE0490810
:1029B000490600F0C060A1F1007181424BD00C2E9D
:1029C00073D02868400170D4286820F08070286097
:1029D000FFF7F0F9064604E0FFF7ECF9801B022848
:1029E00057D828688001F7D4F4E90B016FF00F0283
:1029F00002EB01110843218A5204490802EB4151BC
:102A0000A26841EA02210843217D4FF07E42490835
:102A100002EB41610843217B40EAC160E968244A36
:102A200011400843E860286840F080702860E8683A
:102A300000E03AE040F08070E860FFF7BBF9044640
:102A400005E000BFFFF7B6F9001B022821D828686F
:102A50008001F7D527E02868800124D4286840F059
:102A600080702860E86840F08070E860FFF7A2F9A5
:102A7000044604E0FFF79EF9001B022809D82868E5
:102A80008001F7D50FE000BFFFF794F9001B022883
:102A900002D90320BDE8F88328688001F4D4E868EF
:102AA00004490840E8600020F4E70120F2E7000054
:102AB0008C809D01FCFFEEFE0068503050F8210034
:102AC000704708B50068503000EB8100009002604C
:102AD00008BD000010B500680B4641680D48014074
:102AE000080CD870C1F304245C7001F03F049C70A2
:102AF000C1F34231197052B903F010F8D870587808
:102B000003F00CF85870987803F008F898700020DB
:102B100010BD00003FFFFF0010B50B460168896A39
:102B2000596001680969C1F30E0199600068016884
:102B30000D480140C1F305401870C1F306245C70D4
:102B400001F07F049C70890DD97052B902F0E6FF44
:102B50001870587802F0E2FF5870987802F0DEFFA3
:102B60009870002010BD00007F7F7F0010B504002A
:102B70004FF0010044D094F8210028B9002084F8D7
:102B80002000204600F040F8022084F8210021684F
:102B9000CA204862216853204862204602F0D4FFD0
:102BA00000282DD120688168164A11408160216873
:102BB00088686268A369104322691A4310438860D9
:102BC0002168E068086120680169228941EA0241C0
:102BD0000161204602F0DCFF002811D12168CA6C97
:102BE00022F00302CA646269E16911432268D36C6E
:102BF0001943D1642268FF215162012184F8211018
:102C000010BD0000BFFF8FFF10B598B004465C21D7
:102C10006846FDF79CFB0B492068884210D14FF4B1
:102C200000300090401216906846FFF7FFF908B197
:102C3000FEF735FF044850F8901F41F40041016051
:102C400018B010BD002800400010024070B50446C6
:102C500090F820000B4601281BD0012684F8206044
:102C6000022084F82100B2B19878D97840EA014571
:102C700058781978000240EA413005432168CA209B
:102C80004862216853204862204602F05DFFD0B1BF
:102C900020E0022070BD5878C10603D500F0EF0097
:102CA0000A305870D87802F042FF0504587802F0D4
:102CB0003EFF45EA0025987802F039FF0543187871
:102CC00045EA4035DAE70848054020684560204677
:102CD00002F05EFF2268FF21516208B984F821608A
:102CE000002184F8201070BD3FFFFF002DE9F04166
:102CF000044690F8200090460D46012811D0012787
:102D000084F82070022084F821002168CA204862DB
:102D1000216853204862204602F016FF002618B1B1
:102D200029E00220BDE8F0812068B8F1000F80683A
:102D30004FEA406024D0002800DBEE70A8782978A4
:102D4000EA7840EA01406978090241EA8251084381
:102D500018490840216808602068816821F48021B2
:102D60008160D5E90301084321688A6810438860BF
:102D7000204602F00DFF2268FF215162A0B115E04C
:102D8000002800DBEE70287802F0D1FE030468789A
:102D900002F0CDFE43EA0023A87802F0C8FE034308
:102DA000E87843EA8050D3E784F8217084F8206003
:102DB000B8E700007F7F7F0070B504460068C168F7
:102DC00021F0A001C160FEF7F5FF05464FF47A76C9
:102DD00007E000BFFEF7EEFF401BB04201D9032021
:102DE00070BD2068C0688006F4D5002070BD70B545
:102DF000040009D0606A002540B125616561A562C3
:102E000094F85D0040B10CE0012070BD6068B0F541
:102E1000827FF4D0E561F2E784F85C50204600F050
:102E200057F8022084F85D002068016821F0400115
:102E30000160E1684FF4E062914201D9002001E0B5
:102E40004FF48050B1F5706F02D0914200D0A5626E
:102E5000A188228901F4827102F404421143227C88
:102E600002F002021143227D02F001021143228B83
:102E700002F400721143227F02F03802114394F8E9
:102E8000202002F080021143228D02F400521143EF
:102E900022681160A169042202EA114194F82420F9
:102EA00000F4805002F01002114394F8342002F034
:102EB00008021143A28902F47062114301432068A1
:102EC00041602566012084F85D00002070BD00008F
:102ED00070B586B0044614216846FDF738FA214ED5
:102EE000256800212048022203230524B54219D178
:102EF000056E45F480550566056E05F4805505950B
:102F0000C56C45F00105C564C06C02AD00F0010060
:102F1000059085E81A00E020CDE9000269464FF0EF
:102F200090401AE0114EB54219D1856D45F48045A7
:102F30008565856D05F480450595C56C45F00205F0
:102F4000C564C06C02AD00F00200059085E81A006F
:102F5000B000CDE9000269460548FEF735FE06B02F
:102F600070BD0000003001400010024000380040F9
:102F7000000400482DE9F84F0446406800259846B3
:102F800016460F464FF0040BB0F5827F01D1A068C2
:102F900088B194F85C00012818D0012084F85C0006
:102FA000FEF708FF814694F85D004FF0000A012803
:102FB0000ED0022599E084F85DB013460A462046FB
:102FC000CDF8008000F064F900F098B80220FBE72B
:102FD000002F77D0002E75D084F85DB0C4F860A0C3
:102FE0002764A4F84460A4F84660C4F838A0A4F8A4
:102FF0003CA0A4F83EA0C4F84CA0C4F850A0E068DF
:103000004FF4E06188422068426802D922F480527D
:1030100001E042F480524260A068B0F5004F09D14F
:103020002068026822F0400202602068026822F4F0
:103030008042026020680268520603D4026842F0AF
:1030400040020260E06888421DD93FE02068816844
:10305000C9070BD0017B206C0170206C401C2064E0
:10306000B4F84600401EA4F846000CE0FEF7A2FEAD
:10307000A0EB0901414503D3B8F1FF3F03D03BE08A
:10308000B8F1000F38D0B4F846000028DED121E0B6
:1030900020688168C9070BD0C068216C0880206C4B
:1030A000801C2064B4F84600401EA4F846000DE0E1
:1030B000FEF780FEA0EB0901414504D3B8F1FF3FC4
:1030C00004D019E010E0B8F1000F15D0B4F84600B4
:1030D0000028DDD14A464146204602F097FD08B15E
:1030E00020202066206E00B10125012084F85D00BB
:1030F00084F85CA0284667E70325F6E718BCBDE81E
:10310000E08F2DE9F84F044690F85C0000271D463B
:103110001646894601280DD04FF0010B84F85CB0AB
:10312000FEF748FE804694F85D00BA46012804D0B8
:103130000227A4E0022000F0A8B8B9F1000F74D073
:10314000002E72D0032084F85D00C4F860A0C4F89B
:103150003890A687E687C4F840A0A4F844A0A4F855
:1031600046A0C4F850A0C4F84CA0A068B0F5004F29
:1031700009D12068016821F04001016020680168E0
:1031800041F48041016020680168490603D4016868
:1031900041F040010160E068B0F5E06F606823D95C
:1031A00008B1012E1CD1A06B21680088C86006E020
:1031B00020688168890709D5A16B0988C160A06B67
:1031C000801CA063E08F401EE08709E0FEF7F2FD5F
:1031D000A0EB0800A84202D3681C01D046E0ADB3C2
:1031E000E08F0028E4D136E008B1012E30D1E08F25
:1031F0000128A06B03D921680088C8600FE021680E
:103200000078087314E0E08722E02068816889076D
:1032100014D5E18F0129A16B08D90988C160A06B81
:10322000801CA063E08F801EEDE727E00978017322
:10323000A06B401CA063E08F401EE4E7FEF7BAFDE0
:10324000A0EB0800A84202D3681C01D00EE06DB1CB
:10325000E08F0028D9D142462946204602F010FDD1
:1032600008B120202066A06810B105E0032706E021
:103270002068C16880680090206E00B1012784F842
:103280005DB084F85CA0384655E718BCBDE8E08F17
:103290002DE9F05F044690F85C0000270A9E1D4669
:1032A00092468B464FF0010901280ED0012084F888
:1032B0005C00FEF77FFD804694F85D0061680128A0
:1032C0000CD0B1F5827F07D102E0022000F011B9E5
:1032D000A16809B9042801D0022700E1BBF1000F61
:1032E00024D0BAF1000F21D005B394F85D00042872
:1032F00002D0052084F85D0000202066C4F840A0BC
:10330000A4F84650A4F84450C4F838B0E587A5871F
:10331000E0642065E0684FF4E061884201D8012D47
:1033200006D92068426822F4805205E00127D6E0E1
:103330002068426842F48052426020680268520667
:1033400003D4026842F040020260E068884260688C
:1033500045D908B1012D3AD1A06B21680088C86019
:10336000A06B801CA063E08F401EE0872FE02068E8
:10337000816889070FD5E18F69B1B9F1010F0AD1D1
:10338000A16B0988C160A06B801CA063E08F401E08
:10339000E0874FF0000920688168C9070FD0B4F8B2
:1033A000461061B1C068216C0880206C801C2064CC
:1033B000B4F84600401EA4F846004FF00109FEF79D
:1033C000F9FCA0EB0800B04201D3701C75D1E08F6E
:1033D0000028CCD1B4F846000028C8D176E008B166
:1033E000012D6CD1E08F0128A06B08D921680088DD
:1033F000C860A06B801CA063E08F801E07E021687E
:1034000000780873A06B401CA063E08F401EE0872B
:1034100055E02068816889071AD5E18FC1B1B9F1FB
:10342000010F15D1E18F0129A16B07D90988C1606E
:10343000A06B801CA063E08F801E06E009780173FA
:10344000A06B401CA063E08F401EE0874FF0000996
:1034500020688168C90728D0B4F8461029B3B4F8A9
:103460004610012914D9C068216C0880206C801C8A
:103470002064B4F84600801EA4F84600B4F8460064
:10348000012810D82068416841F4805141600AE069
:10349000007B216C0870206C401C2064B4F846004E
:1034A000401EA4F846004FF00109FEF783FCA0EB94
:1034B0000800B04202D3701C01D018E0BEB1E08F0A
:1034C0000028A6D1B4F846000028A2D142463146D1
:1034D000204602F0D5FB10B10127202020660120F4
:1034E00084F85D00002084F85C003846EEE603278F
:1034F000F5E730BCBDE8C09F7047704770470000DB
:10350000F0B590F83C20012A29D0012480F83C40F5
:10351000022280F83D2003685A689D68114EB3422C
:1035200003D122F470074A683A4322F070070A6810
:103530003A435A600268B24205D0B2F1804F02D0DD
:10354000094B9A4204D1896825F0800319439160A0
:1035500080F83D40002180F83C100846F0BD022074
:10356000F0BD0000002C01400040014010B50400F7
:1035700003D094F83D0010B107E0012010BD0020F9
:1035800084F83C00204600F023F8022084F83D0037
:10359000211D206802F0ECFC012084F8480084F82A
:1035A0003E0084F83F0084F8400084F8410084F82D
:1035B000420084F8430084F8440084F8450084F80D
:1035C000460084F8470084F83D00002010BD00004C
:1035D00008B501681448B1F1804F14D0134A9142E4
:1035E00020D1816D41F010018165806D002200F0D5
:1035F0001000009008213620FEF7A2FC3620BDE81E
:103600000840FEF78FBC816D41F001018165806D3E
:10361000002200F00100009005211C20FEF790FC24
:103620001C20ECE708BD0000001002400010004024
:1036300090F83D10012901D001207047022180F847
:103640003D100168CA6842F00102CA6000680B4977
:10365000884205D0B0F1804F02D00949884207D195
:103660008168084A1140062906D0B1F5803F03D091
:10367000016841F00101016000207047002C014009
:10368000004001400700010070B5044690F83C007E
:103690000025012817D0012684F83C60022084F818
:1036A0003D00226890682F4B184020F47F409060C6
:1036B0000868502838D00DDC20284FD005DC90B3A6
:1036C000102811D14AE0022070BD302846D0402891
:1036D0000AD13BE060282FD070280DD0B0F5805F74
:1036E00003D0B0F5005F12D0012584F83D600020C2
:1036F00084F83C00284670BDCB68D1E901212068E0
:1037000002F079FC2068816841F0770109E0CB681C
:10371000D1E90121206802F06EFC2068816841F443
:1037200080418160E1E719E0CA684968206802F0D9
:10373000B3FD5021206806E0CA684968206802F09D
:10374000BCFD6021206802F060FCCEE7CA684968D1
:10375000206802F0A1FD40212068F4E722680146BC
:103760001046F0E788FFFEFF704770B5044600681A
:1037700001694FF00005C943890715D4C168C943E1
:10378000890711D4E91E0161012020772068806932
:103790008007204602D0FFF7E7FF04E000F0D6F8EC
:1037A000204600F098F9257720680169C943490748
:1037B00017D4C168C943490713D46FF004010161EC
:1037C000022020772068806910F4407F204602D0D4
:1037D000FFF7CAFF04E000F0B9F8204600F07BF9DB
:1037E000257720680169C943090716D4C168C94310
:1037F000090712D46FF008010161042020772068C6
:10380000C0698007204602D0FFF7AEFF04E000F059
:103810009DF8204600F05FF9257720680169C943CB
:10382000C90617D4C168C943C90613D46FF0100183
:103830000161082020772068C06910F4407F20468D
:1038400002D0FFF791FF04E000F080F8204600F07E
:1038500042F9257720680169C943C90708D1C168C1
:10386000C943C90704D1891E0161204600F09CF9B3
:1038700020680169C943090609D4C168C94309061A
:1038800005D46FF0800101612046FFF736FE206805
:103890000169C943C90509D4C168C943090605D4EA
:1038A0006FF4807101612046FFF726FE20680169F0
:1038B000C943490609D4C168C943490605D46FF014
:1038C00040010161204600F0AFF920680169C94359
:1038D00089060BD4C168C943890607D46FF020015B
:1038E00001612046BDE87040FFF708BE70BD0000D2
:1038F00010B586B0044614216846FCF728FD206800
:10390000B0F1804F1CD10F48C16C41F00101C1647E
:10391000C06C002400F00100059002200090CDE969
:1039200001040120CDE9034069464FF09040FEF7C5
:103930004BF90421044800F0CFF803480068846381
:1039400006B010BD0010024034040020704770B56E
:10395000044690F83C0000260D4601280BD00120BB
:1039600084F83C000C2A4AD007DC82B1042A20D01B
:10397000082A06D131E0022070BD102A53D0142A43
:1039800063D00126002084F83C00304670BD2068DA
:1039900002F044FB2068816941F0080181612068E0
:1039A000816921F004018161206881692A691143DC
:1039B00011E0206802F06EFB2068816941F400612B
:1039C00081612068816921F4806181612068816959
:1039D0002A6941EA02218161D4E7206802F096FB5E
:1039E0002068C16941F00801C1612068C16921F006
:1039F0000401C1612068C1692A69114311E020688E
:103A000002F0BEFB2068C16941F40061C161206819
:103A1000C16921F48061C1612068C1692A6941EAF4
:103A20000221C161AEE7206802F0DAFB2068416D37
:103A300041F0080141652068416D21F004014165B4
:103A40002068416D2A69114311E0206802F0F6FBFD
:103A50002068416D41F4006141652068416D21F4A9
:103A6000806141652068416D2A6941EA0221416512
:103A700088E710B5040003D094F83D0010B107E0CA
:103A8000012010BD002084F83C00204600F022F800
:103A9000022084F83D00211D206802F069FA01200F
:103AA00084F8480084F83E0084F83F0084F8400021
:103AB00084F8410084F8420084F8430084F844000C
:103AC00084F8450084F8460084F8470084F83D00F7
:103AD000002010BD7047704710B50446022269B13E
:103AE000042912D0082917D00C291CD0102921D064
:103AF00094F84300012824D0012010BD94F83E0022
:103B00000128F9D184F83E201DE094F83F000128F7
:103B1000F2D184F83F2016E094F840000128EBD160
:103B200084F840200FE094F841000128E4D184F8A3
:103B3000412008E094F842000128DDD184F84220B9
:103B400001E084F843200122206802F047FA12497C
:103B50002068124A884204D0904202D0104B98420A
:103B600003D1436C43F4004343642068884204D08B
:103B7000B0F1804F01D0904207D18168094A1140CD
:103B8000062906D0B1F5803F03D0016841F001015C
:103B90000160002010BD0000002C014000400140E9
:103BA000004401400700010010B5044600681849B0
:103BB000884201D1FEF73EF916492068884225D196
:103BC00015484FF47A7400234168491C416002880B
:103BD000521C92B20280A14200D34360A24200D3A1
:103BE00003800E498A7822B9097811B94188491CA5
:103BF000418000220A490B48FEF78EFF0649002249
:103C0000BDE8104008310748FEF764BF10BD000052
:103C1000002C01400010004000000020B0250020D2
:103C2000D000002048030020704710B5040002D0E7
:103C3000A06F10B107E0012010BD002084F87400CF
:103C4000204600F025F82420A0672068016821F0B4
:103C500001010160204602F0D5FB0128ECD0606A2A
:103C600010B1204602F03BFB2068416821F49041EE
:103C700041602068816821F02A0181602068016824
:103C800041F0010101602046BDE8104002F08BBB0D
:103C90002DE9F0479EB00446142117A8FCF757FB06
:103CA0005C216846FCF753FB674A2168674C032692
:103CB0000727022500204FF0010891423DD1C1465F
:103CC000CDF80080804608906846FEF7AFF908B14D
:103CD000FDF7E5FE206E40F480402066206E00F483
:103CE00080401C90E06C40F00200E064E06C17A99A
:103CF00000F002001C90402081E82101544CCDE9E5
:103D00001A672046FDF760FF17A9802081E821028D
:103D10002046CDE91A67FDF757FF0022052125202F
:103D2000FEF70EF92520FEF7FDF84A4908680268FB
:103D300042F02002026008683DE0474A4FF0040A62
:103D400091423FD18146099000956846FEF76EF991
:103D500008B1FDF7A4FEA06D40F40030A065A06D91
:103D600000F400301C90E06C40F00100E064E06C76
:103D7000CDF85CA000F001001A96CDE91B70CDE9EA
:103D800018594FF0904417A92046FDF71DFF17A9B9
:103D9000082081E821012046CDE91A67FDF714FFCC
:103DA000002206212620FEF7CBF82620FEF7BAF8DF
:103DB0002848843041E0016841F0100101601EB0E4
:103DC000BDE8F087254A9142F9D1CDF800A081469F
:103DD0000A906846FEF72AF908B1FDF760FEA06D6B
:103DE00040F48020A065A06D00F480201C90E06C61
:103DF00040F00400E064E06C17A900F004001C909F
:103E00004FF4806081E82102154CCDE91A67204605
:103E1000FDF7DAFE17A94FF4006081E82101204682
:103E2000CDE91A67FDF7D0FE002207212720FEF713
:103E300087F82720FEF776F80A4801680A6842F0FA
:103E400020020A600068B6E7003801400010024016
:103E50000004004850080020004400400048004092
:103E600000080048580900202DE9F8430446806FF7
:103E70001F4616460D4620284FD1CDB1C6B194F845
:103E80007400012849D0012084F874004FF0000824
:103E9000C4F880802120A067FDF78CFFA4F8506053
:103EA0008146A4F85260A068B0F5805F03D004E0BA
:103EB0000120BDE8F883206928B12E465FF0000597
:103EC00084F8748010E00026FAE78021204602F092
:103ED00099FBB8B9C6B116F8010B21680885B4F88A
:103EE0005200401EA4F85200B4F852004B464FF066
:103EF000000200970028E8D14FF04001204602F070
:103F000081FB30B10320D4E735F8020BC0F3080081
:103F1000E3E72020A0670020CBE70220C9E70000EC
:103F200071B54FF461754FF0E023104E009819E021
:103F30002C46A04200D804469869614201EB8101F9
:103F400010EB011105D49A69824208DA8A42FADA42
:103F500005E08A1999698142FCDD9142FADC0098FA
:103F6000001B00900028E3D178BD000080380100DC
:103F700070B5214C012240212046FDF715FF01209C
:103F800004F07CFB002280212046FDF70DFF002578
:103F900040212046FDF703FF0028F9D10026012229
:103FA00080212046FDF700FF6D000120FFF7B8FFDC
:103FB000002280212046FDF7F7FE40212046FDF734
:103FC000EEFE00B16D1C0120FFF7AAFF761CF6B2D1
:103FD000182EE4D3012280212046FDF7E5FE85F46A
:103FE00000050120FFF79CFF002280212046FDF7FD
:103FF000DBFE284670BD00000008004870B50024B4
:104000004FEA0405FFF7B4FF6D1C04440A2DF9DBE9
:104010000A20B4FBF0F070BDFEE700002DE9F0418E
:104020000E46074615460421052000F029F8002118
:10403000012000F0FFF880210A2000F0EFF80024B2
:1040400004E0395D092000F0F5F8641CB442F8D3AF
:104050000321012000F0EEF8084C052000F0C0F824
:10406000641E01D04007F8D5222000F0B9F828706E
:10407000212000F0B5F86870BDE8F081A08601004D
:1040800070B50C46054600F0ABF820EA040128465E
:10409000BDE8704000F0CEB82DE9FF5F0027FE2597
:1040A000DDF838A016468B468146B8460C2805D068
:1040B000B9F10E0F05D11227102001E0772730202B
:1040C000804647F08001022000F0B4F880210420EF
:1040D000FFF7D6FF0021012000F0ACF880210A2074
:1040E00000F09CF8002405E01BF80410092000F003
:1040F000A1F8641CB442F7D34946012000F09AF8B5
:10410000B9F10C0F03D180210D2000F087F8294E62
:10411000042000F065F80446761E04D0E00702D1C2
:1041200014EA080FF4D080210D20FFF7A9FF36B163
:10413000062000F055F810F01B0F0CD0FE25802152
:104140000C2000F06BF80021012000F073F804B09F
:10415000284600F031B800253C40E00700D0FF259C
:10416000B9F10C0FEBD10A2000F03AF804460C200C
:1041700000F036F810F007004FEAC40104D0083907
:104180000844AAF8000001E0AAF8001024B1122C9B
:1041900004D91224002603E00124FBE7002605E0F1
:1041A000092000F01DF803998855761CA642F7D324
:1041B000C5E70000E093040030BCBDE8C09F0000EC
:1041C00010B5064C012211032046FDF7EDFD2046F7
:1041D0000122BDE81040D102FDF7E6BD0004004811
:1041E00070B57E2101EA40000B4E40F080044FF490
:1041F0008055002229463046FDF7D6FD204601F0C5
:10420000F3FC002001F0F0FC044601222946304670
:10421000FDF7CAFD204670BD0004004870B50C468D
:104220000546FFF7DDFF40EA04012846BDE870407F
:10423000AFF300802DE9F0410E467E2101EA4004F3
:104240000A4F4FF48055002229463846FDF7ACFD51
:10425000204601F0C9FC304601F0C6FC294638462C
:10426000BDE8F0410122FDF79FBD000000040048B9
:104270002DE9F04796B08A461A213BA28DF85010DE
:10428000D2E90012CDE912120346002538A212A984
:10429000684602F08BFC684600F0E2F94FF496782D
:1042A000404604F0EBF900F04BF936A13648FCF734
:1042B00059F8364C0027344E206012E000F040F9E7
:1042C00033A13148FCF74EF898BB052D0CD26D1C7C
:1042D000EDB22CA12C48FCF745F82060404604F0D4
:1042E000CDF920680028E9D000255046FCF74CF8AD
:1042F00082B242F210794B4651462748FFF7B4FD8F
:104300004B46012214A92448FFF7AEFD404604F0B5
:10431000B5F900F015F921A11B48FCF723F820603E
:104320001AE000BF00F00CF919A11748FCF71AF8C1
:1043300028B186F8AD73012016B0BDE8F087052DD1
:104340000CD26D1CEDB215A10F48FCF70BF82060E4
:10435000404604F093F920680028E3D0012086F855
:10436000AD030020E8E7000025732C22257322000E
:1043700041542B514D545055423D302C302C302C53
:10438000300000003E000000A2210020B800002004
:104390004552524F52000000500800202B514D54FE
:1043A0005055423A20302C302C300000F0B599B0F6
:1043B0000025204A20A1684602F0F8FB684600F07C
:1043C0004FF94FF49677384604F058F900F0B8F8F2
:1043D00022A12648FBF7C6FF254C244E20601DE095
:1043E00000F0AEF823A12148FBF7BCFF20B923A1C0
:1043F0001E48FBF7B7FF28B1002086F8AD03012067
:1044000019B0F0BD1E2D0CD214A11848FBF7AAFF5D
:104410006D1C2060EDB2384604F030F920680028A9
:10442000DED0642004F02AF9012086F8AD030020D4
:10443000E6E700003A25002041542B514D54434FEC
:104440004E4E3D302C222573222C2261646D696E04
:10445000222C223132333435362200002B514D5478
:10446000434F4E4E3A20302C302C3000A2210020F9
:10447000B80000204552524F520000002B514D54BD
:10448000535441543A0000002DE9F04100251BA08F
:1044900000F0E6F84FF49677384604F0EFF800F0B5
:1044A0004FF81FA12248FBF75DFF224C204E2060F1
:1044B00019E000BF00F044F81FA11D48FBF752FFB0
:1044C00028B1002086F8AD030120BDE8F0811E2D43
:1044D0000CD213A11648FBF745FF6D1C2060EDB20E
:1044E000384604F0CBF820680028E3D0642004F0BC
:1044F000C5F8012086F8AD030020E6E741542B51B2
:104500004D544F50454E3D302C223132302E3234F6
:104510002E3134392E313739222C313838330000DE
:104520002B514D544F50454E3A20302C3000000056
:10453000A2210020B80000204552524F5200000036
:1045400070B5334C2088000421D54FF49675294668
:104550003048FBF7FCFE30492E48FBF72AFF29467E
:104560002D48FBF7F4FE002525802A48FBF70CFFB9
:1045700082B242F2107327492848FFF775FC28A140
:104580002448FBF7EFFE234C10B184F8AD5370BD07
:1045900026A12048FBF7E6FE18B1012084F8AC0301
:1045A00070BD24A11B48FBF7DDFE0028F8D0264A89
:1045B00023A4164625A11748FBF714FF3046FBF746
:1045C000E3FE0A3002F058FB05463246214602F06F
:1045D000EDFA1D490F48FA31FBF7C4FE08B101217D
:1045E0000DE01E490B48FBF7BDFE08B1032106E0B4
:1045F0001A4908484631FBF7B5FE18B10221284692
:1046000000F0F2FC2846BDE8704002F0F3BA00006A
:1046100020000020A2210020CC0400205809002006
:104620002B514D54535441543A0000002B49503AF9
:10463000000000002B514D54524543563A000000F3
:104640007B25737D7D000000CE220020252A5B5E45
:104650007B5D7B255B5E7D5D000000000E240020FD
:1046600010B50446FBF790FE82B242F21073214669
:104670000548FFF7F9FBBDE810404FF47A730222BA
:1046800002A10148FFF7F0BB500800200D0A00000E
:10469000F0B521A397B01CCB8DE81E000346002582
:1046A00020A201A904A802F081FA04A8FFF7D8FF0C
:1046B0004FF49677384603F0E1FFFFF741FF1DA165
:1046C0002048FBF74FFE204C1E4E206019E000BF33
:1046D000FFF736FF1DA11B48FBF744FE28B1002061
:1046E00086F8AD03012017B0F0BD1E2D0CD26D1C55
:1046F000EDB210A11348FBF735FE2060384603F0F9
:10470000BDFF20680028E3D0642003F0B7FF01203C
:1047100086F8AD030020E6E725732C222573222CB2
:104720002564000041542B514D545355423D302CCB
:10473000310000002B514D545355423A20302C315A
:1047400000000000A2210020B80000204552524F76
:104750005200000010B5104A10A11446A2F5B9701D
:1047600002F024FA0C48224612A1A03802F01EFAE8
:10477000224618A11E4802F019FA1D4822461DA122
:10478000463002F013FA22460348BDE8104020A14B
:104790005A3802F00BBA00003A2500206C6A7268A1
:1047A0002F6E6562756C697A65722F25732F74613F
:1047B000736B00006C6A72682F6E6562756C697A43
:1047C00065722F25732F6465766963655374617410
:1047D000757300006C6A72682F6E6562756C697A19
:1047E00065722F25732F636C6561727461736B0042
:1047F0000E2400206C6A72682F6E6562756C697A8F
:1048000065722F25732F73796E63446174650000A0
:104810006C6A72682F6E6562756C697A65722F2595
:10482000732F776569676874496E63726561736534
:104830000000000010B59CB0012004F0C9F9174C2D
:104840001C22174960606846FBF768FD0021684636
:1048500003F045F8124920601C221C3107A8FBF721
:104860005DFD002107A803F03AF80D49E0601C2225
:1048700038310EA8FBF752FD00210EA803F02FF8E7
:10488000074920611C22543115A8FBF747FD002180
:1048900015A803F024F8A0601CB010BD0C00002087
:1048A000009200082DE9F04786B014216846FBF716
:1048B0004EFD3748C16C41F00401C164C16C01F088
:1048C00004010591C16C41F08001C164C16C01F02B
:1048D00080010591C16C41F00101C164C16C01F01E
:1048E00001010591C16C41F00201C164C06C4FF03F
:1048F000904A00F002000590012210215046FDF779
:1049000053FADFF890804FF4C056012231464046FA
:10491000FDF74AFADFF88090002280214846FDF733
:1049200043FA4FF48077002239465046FDF73CFAAF
:104930001020009001250024CDE90154694650461D
:104940000394FDF741F90096CDE9015469464046CC
:104950000394FDF739F94020CDE900046946484643
:104960000294FDF731F980200090CDE901546946A9
:1049700048460394FDF728F90220CDE90240CDE92D
:10498000007569465046FDF71FF906B0BDE8F0878F
:104990000010024000040048000800480A4810B512
:1049A000084901600321416040F6B831C16081606F
:1049B000FDF706FA002803D0BDE81040FDF76FB8F8
:1049C00010BD0000003000403803002030B587B033
:1049D00014216846FBF7BBFC2348002421490594B9
:1049E000C0E900147F218160FF21C0E90314446104
:1049F0008461C461FEF7BAF808B1FDF750F80121EF
:104A00001948FEF759F8122829D012220121164818
:104A1000FEF757F808258DF800508DF801508DF8F5
:104A200002400394012269460F480494FEF75EF9A0
:104A300008B1FDF734F804208DF8140012208DF829
:104A400015008DF8165022208DF81700012205A9B7
:104A50000548FEF7FBF8002801D0FDF720F807B065
:104A600030BD0000002800404803002010B5134C62
:104A700011484FF4E06120604FF4827060600020C4
:104A8000C4E902014FF400712061C4E90501E0614D
:104A9000206207216062C4E90A0120630820606384
:104AA0002046FEF7A4F908B1FCF7F9FF2068016879
:104AB00041F04001016010BD003001406C03002056
:104AC000124810B5104901604FF482714160002115
:104AD0004FF4E062C0E902124FF400720161C0E9D4
:104AE00005123822C0E9072107224162C0E90A12F3
:104AF000016308214163FEF77AF9002803D0BDE87D
:104B00001040FCF7CCBF10BD00380040D00300209F
:104B100010B58EB000240794089409940A940B945D
:104B20000C941C2168460D94FBF711FC1F484FF0B4
:104B3000804101604F21C0E9011440F2E731C0E932
:104B4000031480218161FEF711FD08B1FCF7A7FF76
:104B50004FF48050079007A91448FEF795FD08B15F
:104B6000FCF79DFF1148FEF784FF08B1FCF797FFA3
:104B70000B940BA90D480D94FEF7C2FC08B1FCF78D
:104B80008EFF602000904FF41670CDE901040422DE
:104B9000694606480494FEF7DAFE08B1FCF77FFF89
:104BA0000248FEF7A5FE0EB010BD00003404002040
:104BB0003EB500241048009401940E49029401600F
:104BC00041F63F71C0E9011441F287318461C1604F
:104BD000FEF7CCFC08B1FCF762FF0094694606487A
:104BE0000294FEF78DFC08B1FCF759FF0248FEF76E
:104BF0001FFD3EBD00100040800400200D4810B590
:104C00000B4901604FF416514160002181600C2274
:104C1000C160C0E904128161C16101624162FFF7B4
:104C200004F8002803D0BDE81040FCF738BF10BDE1
:104C300000380140500800200D4810B50B490160B4
:104C40004FF416514160002181600C22C160C0E91F
:104C500004128161C16101624162FEF7E6FF002832
:104C600003D0BDE81040FCF71ABF10BD004400405F
:104C7000D40800200D4810B50B4901604FF41651BF
:104C80004160002181600C22C160C0E90412816191
:104C9000C16101624162FEF7C8FF002803D0BDE890
:104CA0001040FCF7FCBE10BD004800405809002031
:104CB000FEE700004FF4967110FB01F0014909680E
:104CC0008863704734040020FEE703211420FFF7B7
:104CD000D7B910B51420FFF783FA800705D1032157
:104CE000BDE810401420FFF799BA10BD70B5064614
:104CF000082188B000240846FFF7C2F900210D20E2
:104D0000FFF798FA80210E20FFF7BAF993208DF86B
:104D1000040020208DF8050006A801AB00900222B7
:104D200019460C20FFF7B8F905000DD1002101A8A4
:104D3000425C7254425C491C5440C9B20429F7D306
:104D4000405CA04200D0FE2580210E20FFF766FACD
:104D500008B0284670BD30B587B08DF804008DF8D6
:104D60000510002001A9145C0D18401CC0B2AC70E5
:104D70000628F8D300200C181A5C401CC0B222721E
:104D80000428F8D306A800900B460C220E20FFF74B
:104D900083F9040004D10820FFF722FA000700D4A9
:104DA000FE2407B0204630BD00B587B050208DF8F6
:104DB000040000208DF805000DF10602022101A873
:104DC000FFF72CF906A801AB0090042219460C202D
:104DD000FFF762F907B000BD30B587B00D4630214E
:104DE0008DF8041001AC8DF8050002212046A21CAC
:104DF000FFF714F906A801AB0090042219460C2015
:104E0000FFF74AF918B9BDF81810902902D0FE2012
:104E100007B030BD0023E15CE9545B1CDBB2102B12
:104E2000F9D3F5E730B50C460546082187B00846AA
:104E3000FFF726F907210D20FFF7FCF903211420C5
:104E4000FFF7ECF906A801AB00908DF804500122A1
:104E500019460C20FFF720F9002809D1BDF81810D9
:104E6000102905D19DF8041021709DF8051061707E
:104E700007B030BD70B50122204DD402214628462E
:104E8000FCF792FF0220FCF78DFE00222146284607
:104E9000FCF78AFF0220FCF785FE01222146284606
:104EA000FCF782FF0220FCF77DFE0F210120FFF7B7
:104EB000C1F90220FCF776FE3D211120FFF7BAF977
:104EC0001E212D20FFF7B6F900212C20FFF7B2F9A3
:104ED0008D212A20FFF7AEF93E212B20FFF7AAF9FA
:104EE00040211520FFF7A6F9FFF7EFFE0220FCF79F
:104EF00059FEBDE87040FFF7ECBE0000000400481A
:104F000010B588B093218DF8041070218DF805102C
:104F100000218DF80A1001AA5418435CA370445C68
:104F20009DF80A30491C6340C9B28DF80A30042943
:104F3000F2D3072101A8D21DFFF770F80821084617
:104F4000FFF79EF806A801AB0090092219460C2035
:104F5000FFF7A2F818B9BDF81810182900D0FE20E4
:104F600008B010BD70B588B00D46A0218DF80410B2
:104F700001AC8DF8050002212046A21CFFF74EF877
:104F800006AE01AB042219460C200096FFF784F808
:104F900038BBBDF81800042823D19DF8040000F0A8
:104FA0000F000A281DD10020295C2154401CC0B2EA
:104FB0001028F9D305AA102101A8FFF72FF801AB9B
:104FC000122219460C200096FFF766F848B9BDF882
:104FD0001810042905D19DF8041001F00F010A29C9
:104FE00000D0FE2008B070BD2DE9F04F9BB00F46F9
:104FF00002F030FB06000AD00025FF4C40F2C23917
:10500000012F11D0022F7DD0032F1BD119E302F005
:105010000BFB0146F9A001F0B9FD304602F0E0FAC1
:1050200001201BB000F054BBF9A102F005FBFAA16E
:10503000039002F001FB4069012804D002287DD0D2
:1050400003287CD0F1E2F6A1039802F0F5FA00699A
:105050000090F4A1039802F0EFFA00690FAB0EAADA
:10506000F2A1FBF7BFF9F3A1039802F0E5FA0746B6
:10507000F2A1039802F0E0FA00690BAB82460AAA9B
:10508000F0A1FBF7AFF9786950B9F0A1039802F0ED
:10509000D3FA00690DAB0CAAEAA10190FBF7A2F9C3
:1050A000EBA1039802F0C8FA8346EBA1039802F043
:1050B000C3FA0790EAA1039802F0BEFA0690EAA1AB
:1050C000039802F0B9FA804620781428BAD200EB8F
:1050D000400004EB001051461130FBF76AF92078CC
:1050E000009900EB400004EB0010801CFBF761F915
:1050F00021780E9801EB410104EB011181F82500A4
:10510000217800E0CEE101EB410104EB01110F98A1
:1051100081F8260021789BF8140001EB410104EB93
:10512000011181F82D002178079801EB410104EB72
:105130000111007D81F82E00069801E05FE02FE16B
:10514000818A207800EB400004EB00100186217872
:1051500098F8140001EB410104EB011181F82B00D8
:1051600021780A9801EB410104EB011181F8270035
:1051700021780B9801EB410104EB011181F8280023
:10518000786910B32078BAA100EB400004EB00105E
:105190000988A0F81B10207800EB400004EB0010F9
:1051A00080F82950207800EB400004EB001080F8D4
:1051B0002A502178387D01EB410104EB011181F87F
:1051C0002C002078401C2070E1E021780C9801EB45
:1051D000410104EB011181F8290021780D9801EBC0
:1051E000410104EB011181F82A002078019900EBBC
:1051F000400004EB00101B30FBF7DBF8D9E700257B
:1052000087A1039802F018FAD0F810A085A103989E
:1052100002F012FA00690FAB0EAA84A1FBF7E2F8C4
:1052200086A1039802F008FA00690BAB80460AAA2F
:1052300084A1FBF7D7F885A1039802F0FDF9006976
:105240000DAB83460CAA7FA1FBF7CCF880A1039895
:1052500002F0F2F9089080A1039802F0EDF90790AE
:105260007FA1039802F0E8F906907FA1039802F06D
:10527000E3F905906FA1039802F0DEF9074604E018
:105280002078A8420BD96D1CEDB205EB450004EB6C
:1052900000115046891CFBF77EF80028F0D12078D9
:1052A000A8427CD900EB400004EB001041461130CD
:1052B000FBF77FF82078594600EB400004EB001024
:1052C0001B30FBF776F82078514600EB400004EBEA
:1052D0000010801CFBF76DF821780E9801EB41015E
:1052E00004EB011181F8250021780F9801EB4101B1
:1052F00004EB011181F826002178089801EB4101A7
:1053000004EB0111007D81F82D002178079801EB55
:10531000410104EB0111007D81F82E0021780698EF
:1053200001EB410104EB0111808A08862178059880
:1053300001EB410104EB0111007D81F82B00217884
:105340000A9801EB410104EB011181F82700217853
:105350000B9801EB410104EB011181F82800217841
:105360000C9801EB410104EB011181F8290021782F
:105370000D9801EB410104EB011181F82A0021781D
:10538000387D01EB410104EB011181F82C004A4604
:105390000021194801F058FB36A001F0F7FB44E169
:1053A00000251FA1039802F047F9076904E020785F
:1053B000A8420BD96D1CEDB205EB450004EB0011C2
:1053C0003846891CFAF7E7FF0028F0D12F4610E095
:1053D00007EB470004EB001303F132084146981C29
:1053E0003022FAF79BFF40463021FAF7B0FF7F1CCE
:1053F000FFB22078B84243E0181D00204A534F4EB8
:10540000B8F1CABDB4EDCEF33A2573200D0A000001
:105410007461736B00000000666C6167000000003F
:105420006E6F00007765656B0000000025642D2518
:105430006400000073696E676C65000073746172CC
:105440007400000025643A2564000000656E640065
:105450006563686F000000006C6576656C00000095
:1054600074696D65000000007374617475730000E9
:1054700030000000736574206F6B0D0A000000009F
:10548000A6D810F0FF0003D0A84201D9401E20701A
:105490004A4600216E4801F0D7FA29466DA001F076
:1054A00075FBC2E06EA102F0C7F8074600696EA165
:1054B000FAF758FFF0B3142101A8FAF748FF6EA1DC
:1054C0003046139502F0B8F8D0F810806DA1304640
:1054D00002F0B2F8AFF2B4010769304602F0ACF85E
:1054E000047D08A8009006AB07AA69A14046FAF718
:1054F00079FF12A8009011AB14AA68A13846FAF7F8
:1055000071FF14988DF8040011988DF80500129819
:105510008DF806000495012201A963480595FDF761
:10552000E5FB8DF84C4007988DF84F0006988DF8F4
:105530004D0000E005E008988DF84E00012213A907
:1055400070E05AA13869FAF70DFF60B358A13046F0
:1055500002F072F80546C068082803D13DA06969C9
:1055600001F014FB2D7D10E005EB450004EB00136A
:1055700003F132073946981C3022FAF7CFFE38463D
:105580003021FAF7E4FE6D1CEDB22078A842EBD88A
:1055900010F0FF0001D0401E20704A4600212C4828
:1055A00001F052FA41E0142104A8FAF7D0FE33A129
:1055B0003046169502F040F8AFF298110469304673
:1055C00002F03AF8076915AB14AA17A912A88DE8DA
:1055D0000F0011AB10AA38A12046FAF703FF13AA57
:1055E0003AA13846FAF7FEFE17988DF81000149885
:1055F0008DF8110015988DF812000795012204A965
:1056000029480895FDF772FB13988DF858001098FB
:105610008DF85B0011988DF8590012988DF85A009A
:10562000012216A92048FDF711FB01F0BBFFC8209D
:1056300003F024F801F0AFFF304601F0D1FF002065
:10564000EFE44C4649460248FAF781FE2246A5E7B8
:10565000181D0020D0F2BAC53A2564200D0A0000BA
:1056600061726465720000007365745F7274635FD9
:1056700074696D65000000007365745F6461746532
:10568000000000007365745F74696D6500000000C0
:1056900025782D25782D25780000000025783A25DD
:1056A000783A2578000000004803002064656C000B
:1056B00073657269616C000025782D25782D257839
:1056C0002025783A25783A257800000025640000E6
:1056D00030BCBDE8C08F000008B50024DFF870A121
:1056E0004FF0010B26469FED5B0A00948AED030AFA
:1056F000DAF8140008B9FCF735FAA046DFF858913B
:10570000564C4FF4967700BF01F0EFF920B184F8C2
:105710000080A07888B196E0FE20207084F8028096
:1057200084F80380C4F8088084F801800026A9F872
:1057300000803046FFF7BEFAEBE72078002866D1FC
:10574000B9F8000006287ED300F098F888B94FEA2F
:105750008B006946FFF740FB58B90120A0706846EE
:1057600001F0D4F9E0800146012802D03CA001F00C
:105770000DFAA078012823D1E07808BB607810BB2F
:10578000FCF7C6F9E6B9BAF80400E18888422FD3DD
:10579000401A2EE0022037492071012081F8AE0323
:1057A0005FF0000501F0FEFE384602F067FF01F0F1
:1057B000F2FE384602F062FF6D1CEDB2032DF1D30C
:1057C000E078012818D01CE001202071E07001F081
:1057D000E9FE384602F052FF01F0DDFE2649C1F82D
:1057E0000080C1F80480C1F80880C1F80C80E7E7A8
:1057F000081AB842E8DDCDE72079012804D101F08C
:10580000A3F92079012803D0A078012804D01AE058
:105810000126A9F8008016E06078012813D1FCF772
:1058200077F9BAF80400E188884203D3401A322895
:1058300003DC08E0081A642805DD01F085F984F826
:10584000028084F801804FF4FA7002F017FF5BE7E2
:1058500098250020F0B3D24402000020B02500209B
:10586000B6C1B5BDB5C4D6B5CAC7A3BA2025640AAA
:1058700000000000A2210020BC25002000B528A1C6
:1058800097B0D1E90001CDE9040102A95220FFF748
:10589000C9FA38B102A95220FFF7C4FA10B1FF20AB
:1058A00017B000BD9DF809309DF808201EA10EA874
:1058B00001F07CF90EA923A001F068F902A8FFF716
:1058C00015FA50BB9DF80B109DF80A00CDE90001B8
:1058D0009DF809309DF808201CA106A801F066F982
:1058E000BDF808009DF80A1040BA000440EA012003
:1058F0009DF80B1008431E49886006A911A001F00D
:1059000045F902A8FFF7FCFA38B9072102AB04AA4F
:105910006020FFF720FA0028C2D0FE20C0E7000078
:10592000FFFFFFFFFFFF00005468652043617264C2
:1059300020547970652069733A202530325825301B
:105940003258000025730D0A0000000054686520DD
:10595000436172642049442069733A2025303258EB
:10596000253032582530325825303258000000009A
:10597000B02500202DE9F041444C05468846E068FA
:105980000026810728680DD0E16801F003018142FB
:1059900016D1A8B1E0686968C0F30210401C8842C3
:1059A0000ED120E0012804D0022805D0032807D119
:1059B00008E02168890701E021684905002907DB23
:1059C00001265FE02168890302D421684903F5E7D5
:1059D000E1686A686FF00F0321F0730103EB0212B4
:1059E00011430143E160206820F080602060FCF7F3
:1059F000E1F9074605E000BFFCF7DCF9C01B02280F
:105A000037D820680001F7D4B8F1000F18D0B8F1EA
:105A1000010F1DD0287D4FF07E41400801EB406012
:105A2000A96840EA01202169194A11400843206110
:105A3000206840F080602060FCF7BCF907461AE05F
:105A4000A868297B000240EAC1602169114AECE79D
:105A5000288A1149400801EB4050A96840EA01201A
:105A600021690E4AE1E700BFFCF7A4F9C01B022838
:105A700001D9032606E020680001F5D52069A9694F
:105A8000084320613046BDE8F0810000001002406C
:105A9000FF80FFF9FF80FF070000E0FFFF809FFF0E
:105AA000F8B51C4D06460024A86DC00002D5FCF7D1
:105AB000ADFA0DE0A86D40F08050A865A86D00F02B
:105AC00080500090FCF7A2FAA96D21F08051A965E1
:105AD000B0F5007F04D0802E07D94FF003040AE010
