:020000040800F2
:10000000D03F0010850200080D5200088942000808
:10001000F5510008B91B0008F16F0008000000004E
:10002000000000000000000000000000A501000822
:100030001D1C000800000000010200089163000878
:100040009F0200089F0200089F0200089F0200080C
:100050009F0200089F0200089F0200089F020008FC
:100060009F0200089F0200089F0200089F020008EC
:100070009F0200089F0200089F0200089F020008DC
:100080009F0200089F0200089F0200089F020008CC
:100090009F0200089F0200089F0200089F020008BC
:1000A0009F020008596400089F0200089F02000890
:1000B0006564000800000000000000009F020008C6
:1000C0009F0200089F0200089F0200089F0200088C
:1000D0009F0200088D6C0008E96C0008496D00085B
:1000E0009F0200089F0200080000000000000000BE
:1000F0000000000000000000000000000000000000
:10010000000000009F020008000000009F0200089D
:100110000000000000000000716400089F02000859
:100120009F0200089F0200089F0200089F0200082B
:100130009F02000800000000000000000000000016
:100140009F0200089F0200089F02000800000000B4
:100150009F0200089F0200089F0200089F020008FB
:100160009F0200089F0200089F0200080000000094
:100170009F0200089F02000800000000000000002D
:100180009F0200089F0200089F020008DFF810D0BD
:1001900001F06EF8004800471DD00108AFF3008061
:1001A000D03F00102C4B1968086800F05AB880F353
:1001B0000988BFF36F8F4FF0000080F311887047FC
:1001C0000000000008480068006880F308884FF0CD
:1001D000000080F3148862B661B6BFF34F8FBFF39F
:1001E0006F8F00DF00BF00BF08ED00E0DFF80C00FC
:1001F000016841F470010160704700BF88ED00E0C4
:10020000EFF30980BFF36F8F134B1A681EF0100FC6
:1002100008BF20ED108A20E9F04F106009B44FF0BC
:10022000500080F31188BFF34F8FBFF36F8F21F021
:100230000BF94FF0000080F3118809BC19680868B9
:1002400000F014B81EF0100F08BF00F014B880F3CF
:100250000988BFF36F8F704710000010EFF305801F
:10026000704730C8B0E8C04FFFF7A1BF30C8B0E852
:10027000C04FFFF7E7BFB0EC088AB0EC08CAFFF741
:10028000E6BF00000648804706480047FEE7FEE755
:10029000FEE7FEE7FEE7FEE7FEE7FEE7FEE7FEE736
:1002A000496400088D0100082DE9F05F0546002033
:1002B00092469B4688460646814640241BE02846D7
:1002C00041464746224600F022FE53465A46C01A8F
:1002D000914110D311461846224600F009FE2D1A0E
:1002E00067EB01084F4622460120002100F000FE86
:1002F00017EB00094E41201EA4F10104DFDC484643
:1003000031462A46434600F000B830BCBDE8C09FE5
:10031000A0F14101192900D82030704738B5D0E943
:100320000221491E01EB410102EBC1014268C1EB10
:10033000011102EB81010268C1EB011102EB8102A4
:10034000D0E9043101EB410103EB81013023A1F538
:10035000527191FBF3F4174D6C4302EBC41291FB05
:10036000F3F403FB141100921A2902DB124B1A4416
:1003700000920C2291FBF2F3104C6343009C04EBBF
:10038000C313009391FBF2F302FB13110C4A08E034
:10039000491E40F2A324535C6343009C04EBC31347
:1003A00000930029F4DC0146684600F0D3FD009874
:1003B00038BD00003F0C0F008051010067C20300F0
:1003C00050BB020810B5431A934209D2831888180B
:1003D00003E010F8011D03F8011D521EF9D210BDF3
:1003E00040EA01039B0703D009E008C9121F08C0B7
:1003F000042AFAD203E011F8013B00F8013B521E37
:10040000F9D210BDD2B201E000F8012B491EFBD297
:1004100070470022F6E710B513460A46044619460F
:10042000FFF7F0FF204610BD30B505462A460B46C3
:1004300012F8010B13F8014B08B1A042F8D01CB11F
:10044000002802D06D1CF1E7284630BD421C10F890
:10045000011B0029FBD1801A704710B5002200E073
:10046000521C835C8C5CA34201D1002BF8D1D8B222
:10047000E1B2401A10BD034611F8012B00F8012B20
:10048000002AF9D11846704730B5054600200346CA
:1004900000E05B1C934205D2EC5CC85C201A01D1E1
:1004A000002CF6D130BD00000FB400B58DB010A9FE
:1004B00009900B9000914FF0FF300A9000200C90B3
:1004C00005480690054807906A4609A80F9900F06C
:1004D0009BFD0DB05DF814FB2510000843100008CB
:1004E0002DE9FF5F1D464FF0FF3BD5E901469146E0
:1004F0005F464FF00008A9697F1C01988847296A68
:10050000824688470028F6D1BAF1FF3F0CD024F488
:10051000C064002E19DD600614D5BAF12B0F09D086
:10052000BAF12D0F0ED103E0584604B000F07EB8AA
:1005300044F48064A9697F1C01988847761E82462E
:10054000002E02DDBAF1300F03D0B9F1000F26D032
:1005500032E0A969761E44F400747F1C0198884734
:100560008246002E05DDBAF1780F06D0BAF1580F99
:1005700003D0B9F1000F10D01EE0B9F1000F02D086
:10058000B9F1100F18D1A969761E24F400747F1CEC
:10059000019888478246102002E0082000E00A20E7
:1005A000814609E008FB0908A969761E44F4007435
:1005B0007F1C019888478246002E05DD494650463B
:1005C00000F00EFD0028EDDAE96901988847A005E2
:1005D00002D46FF00100A8E7E00725D1600613D52B
:1005E000600502D5C8F1000000E0404629680A1DF8
:1005F0002A600968220501D5087015E0220701D597
:10060000088011E008600FE02868011D296000687B
:10061000210502D580F8008006E0210702D5A0F868
:10062000008001E0C0F8008038467EE730BCBDE8BD
:10063000C09F2DE9FF5FD2E901A74FF00008916943
:1006400099461446DDF838B0464601988847054675
:1006500059EA0B0005D009E0A169761C019888478A
:100660000546216A284688470028F5D1681C03D032
:100670005FEACA7005D015E04FF0FF3004B000F01B
:1006800048B82068011D2160D0F800800AE05FEAC8
:10069000CA7001D108F8015BA169761C7F1E019820
:1006A00088470546002F1ADD681C18D0B9F1000FE5
:1006B0000DD0E81705EBD060421120F01F0059F86B
:1006C00022102A1A012090400142E0D107E0BBF13C
:1006D000000FDCD1216A284688470028D7D0E1697D
:1006E00001988847BBF1000F07D1002E05DD5FEAB6
:1006F000CA7002D1002188F80010A068B84203DD5A
:10070000BBF1000F03D017B16FF00100B6E7304620
:10071000B4E730BCBDE8C09F2DE9FF4F087883B037
:100720009946FF2805D0491C2D2804D0002400201C
:1007300008E000200BE00124F9E700EB800003EB68
:100740004000491C0B78FF2BF7D104B14042002335
:100750000293147819461D462D2C01D02B2C04D160
:10076000521C2D2C13D000240294AA461478FF2C7E
:100770000FD00A25A3FB057801FB05814FF0000C83
:1007800003FB0C11521CE3194AEB0101EEE70124B3
:10079000EAE7814453EA010002D019F5C87F06DA7E
:1007A00003980021C0E9001107B000F065B90025E9
:1007B000AE4E2F46DFF8B882184600F035FDCDE981
:1007C0000001B9F1000002DAC9F1000400E00446BA
:1007D0000023A74A1AEB030B42EB045A12E0E0078E
:1007E00007D02A4633463846414600F0F7F9074617
:1007F00088462A4633461046194600F0EFF905466A
:100800000E466410002CEAD1DDE90001B9F1000FB9
:100810005A46534606DA00F056FA3A46434600F086
:1008200052FA05E000F0DAF93A46434600F0D6F90C
:10083000029A0AB181F00041039AC2E90001B3E7CC
:100840002DE9FF4F1F468DB0D7E901464FF0FF3825
:100850002E2045464FF000090B90B9696D1C0E988B
:100860008847396A824688470028F6D1BAF1FF3FA7
:100870000AD024F4D064002E11DDBAF12B0F08D079
:10088000BAF12D0F0BD102E0404611B08DE744F4D0
:100890008064B9696D1C0E9888478246761E694649
:1008A000600501D52D2000E02B208DF8000001F11E
:1008B000010B0DF1200809E0B9696D1C0E988847FD
:1008C00082460F9844F40074761E0560002E02DD07
:1008D000BAF1300FF0D00B998A453ED144F0800434
:1008E00006E00F99681CA9F1010944F4007408603E
:1008F000B9696D1C761E0E98884782463028F0D064
:100900002BE00B998A4505D1200603D444F08004DE
:10091000761E18E0504606F081FD08B30DF1130174
:10092000761E44F400748B4508D2AAF130000BF80F
:10093000010B200607D5A9F1010003E0200602D42F
:1009400009F101008146A00502D50F99681C0860D5
:10095000B9696D1C0E9888478246002ED1DC53E0A1
:10096000002E51DDBAF1650F02D0BAF1450F4BD11F
:10097000A00549D5B9696D1C24F44074761E0E9803
:1009800088478246002E0CDD2B2804D0BAF12D0FAB
:1009900007D144F48074B9696D1C0E98884782466B
:1009A000761EE00501D52D2100E02B2108F8011B62
:1009B000CDF82C8021E00DF12901761E44F400745D
:1009C00088450CD2AAF1300010F0FF0088F8000032
:1009D00002D10B99884509D908F1010806E0E00524
:1009E00001D5244801E042F20F708146B9696D1CBF
:1009F0000E98884782460F980560002E04DD504609
:100A000006F00CFD0028D6D1F9690E988847FF2022
:100A10008BF8000088F800000020069007904B46F5
:100A20006A4608A906A8FFF777FEA00502D46FF072
:100A300001002AE714F0240F0AD0E00714D1DDE901
:100A400006123868031D3B600068C0E900120BE025
:100A5000DDE9060100F01AFA0146E00704D1386822
:100A6000021D3A600068016028460EE7000014404D
:100A70000000F03FF1D8FFFF30BCBDE8C08F2DE98A
:100A8000FE4F804681EA0300C00F0C46009021F023
:100A9000004123F00045B8EB0200A94105D24046D1
:100AA000214690461C460B46024623F00040104368
:100AB00047D0270DC7F30A00C3F30A510290401A2A
:100AC000019040286BDAC3F3130040F4801B0098B8
:100AD000924620B10023D2EB030A63EB0B0B019883
:100AE0005946C0F14002504600F002FA06460D4653
:100AF00050465946019A00F01AFA10EB080061417D
:100B0000002487EA115284EAE7731A4340D0009A1E
:100B100062B3019A012A4FEA075215DC001B61EB10
:100B200002014FF0004202EA0752CDE90042001CE8
:100B300041F5801132462B4600F028FB03B000F04F
:100B400045B840462146F9E7001B61EB0201001C55
:100B500041F5801300185B412018A2F5001747EB00
:100B6000030140EAD570B6196D4111E06D084FEAF6
:100B7000360645EAC0754FEA0752001B61EB0201D9
:100B8000001C41F5801149084FEA3000001951411D
:100B900032462B4603B000F01CB800F0E8BA0098CB
:100BA000012240000023D0EB020263EBE0730098C7
:100BB00021464FEAE074B8EB000061EB0401E9E77D
:100BC00083F000435BE781F0004158E730BCBDE8AB
:100BD000C08F30BCBDE8C04FFFF7DFBF2DE9FE4F2F
:100BE00081EA030404F0004421F0004100944FF036
:100BF000000B23F0004350EA01045ED052EA0304E4
:100C00005BD0C3F30A54C1F30A552C44A4F2F33465
:100C10000194A0FB0254C1F3130141F48011C3F30A
:100C2000130343F4801301FB024400FB034E840AC8
:100C3000970A44EA815447EA8357A4FB0768029560
:100C40008D0A05FB07854FEA932C04FB0C542705FE
:100C5000029D4FEA065847EA1637B5EB08056EEBDA
:100C6000070C870E920E47EA811742EA8312A7FB10
:100C70000201B6EB0B0164EB00042B0D43EA0C33CD
:100C80005E1844EB1C50DA465146E7FB0201C5F3FF
:100C900013044FEA0B3343EA14534FEA0432019C26
:100CA00043EA0603A4F10C040294009CCDE900B4CD
:100CB00000F06CFA03B000F003B800200146F9E739
:100CC00030BCBDE8C08F2DE9F04D81EA030404F08B
:100CD000004B21F0004514464FF0000A23F000417C
:100CE00050EA050220D054EA01021DD0C5F30A578C
:100CF0000246C5F31303C1F31300C1F30A5640F4CF
:100D0000801543F48013A7EB0608101BD64608F2A3
:100D1000FD3873EB050002D308F1010801E09218D9
:100D20005B41B8F1000F03DA00200146BDE8F08D09
:100D300000204FF48011064684460EE0171B73EB2B
:100D4000050705D3121B63EB050306434CEA010CB0
:100D500049084FEA300092185B4150EA0107EDD193
:100D600052EA030012D082EA040083EA0501084334
:100D700005D0101BAB4106D20122002306E0002261
:100D80004FF0004302E06FF0010253101AEB06002F
:100D90004CEB085110EB0A0041EB0B01BDE8F04DA4
:100DA00000F0E5B90EB5C10F80EAE0700844CA074B
:100DB000002140F233438DE80E000A460B4600F056
:100DC000E5F903B000BD70B5C1F30A5201F000456A
:100DD0000024C1F3130140F2FF3341F480119A4221
:100DE00001DA002070BD40F233439A42A2F233424E
:100DF00003DC524200F08BF800E090402C43F1D02D
:100E0000404270BD00F0004230F000400AD0C10DF9
:100E100001F56071C0F3160042EA0151C2084007B3
:100E200011437047002001467047000030B5041E92
:100E300071F1000404DB4FF00044404264EB010117
:100E4000141E73F1000405DB1C464FF000435242B0
:100E500063EB04038B4208BF824230BD30B5041EF1
:100E600071F1000404DB4FF00044404264EB0101E7
:100E7000141E73F1000405DB1C464FF00043524280
:100E800063EB0403994208BF904230BD01F0004378
:100E900030B421F0004150EA010206D00A0DA2F55B
:100EA0006072C1F31301002A02DC30BC00207047DD
:100EB000440F44EAC104C100E01830BC00EBC2504A
:100EC00000F01EB930B50B46014600202022012457
:100ED00009E021FA02F59D4205D303FA02F5491B08
:100EE00004FA02F52844151EA2F10102F1DC30BD1E
:100EF000202A04DB203A00FA02F1002070479140DA
:100F0000C2F1200320FA03F3194390407047202ACE
:100F100004DB203A21FA02F00021704721FA02F3A3
:100F2000D040C2F120029140084319467047202A60
:100F300006DBCB17203A41FA02F043EAE07306E001
:100F400041FA02F3D040C2F1200291400843194611
:100F50007047000010B500683C22B0FBF2F302FBC2
:100F60001303B0FBF2F00B60B0FBF2F302FB1303D0
:100F7000B0FBF2F018224B60B0FBF2F302FB13035C
:100F8000B0FBF2F0021D8B600723B2FBF3F403FB0E
:100F90001422800040F2B55300F66C308A61B0FB39
:100FA000F3F2B0FBF3F403FB1400443280084A610F
:100FB000C8613B2802D3920700D0401C0022074C96
:100FC00013460A61E25C824203D8801A5B1C0B6103
:100FD000F8E7401CC860084610BD00005CBB020872
:100FE0003A2800D2303820F02002412A01D3A2F161
:100FF0003700884201D34FF0FF3070470268114438
:101000001378016018467047D16004495161044962
:10101000116200211161114600F042B9FD0F000874
:1010200095120008426842B1016811F8013B23B1F2
:10103000521EC0E90012184670470121C160881E87
:10104000704742685AB1C368016843B983688B42EC
:1010500005D0491E521CC0E90012002070474FF015
:10106000FF3070470FB4002300B589B00CA9009180
:101070000B996FF00042CB601E4B06931E4B0793FB
:101080000423CDE901321D4A089202466B46002036
:10109000FFF7D6FB09B05DF814FB70B586B00646C5
:1010A0004FF0FF300091CDE90101002015460C46BC
:1010B00004903246694604A8FFF7D4FF024604981C
:1010C000211825B108B1084600E0204628600498A0
:1010D00000280DD0002A02DD0098884208D0081BA5
:1010E0000094CDE901043246694604A8FFF7BAFF2F
:1010F00006B070BD251000084310000895120008C6
:101100000029A8BF7047401C490008BF20F001001B
:10111000704710B4B0FA80FC00FA0CF050EA0104F9
:1011200004BF10BC704749B1CCF1200421FA04F48B
:1011300011FA0CF118BF012121430843A3EB0C0164
:10114000CB1D4FEA00614FEA102042BF002010BCC7
:10115000704700EBC35010440029A4BF10BC704777
:10116000401C490008BF20F0010010BC704710B5BA
:10117000141E73F1000408DA401C41F100019218BA
:101180005B411A4301D120F0010010BD2DE9F04D63
:1011900092469B4611B1B1FA81F202E0B0FA80F2B8
:1011A00020329046FFF7A4FE04460F4640EA0A00AC
:1011B00041EA0B0153465A46084313D0114653EAFD
:1011C000010019D0C8F140025046FFF7A0FE0546C5
:1011D0000E46504659464246FFF78AFE084305D060
:1011E000012004E020463946BDE8F08D002005438B
:1011F00046EAE0762C4337430A986305E40AA0EBFD
:1012000008000022FD0A44EA47540A3002D50020B3
:101210000146E9E7010510196941DDE908450019B2
:101220006941BDE8F04DA2E70EB540F233420292AB
:101230000022CDE900221346FFF7A8FF03B000BD4E
:10124000C1F30A52C1F3130140F2FF3341F480119C
:101250009A4202DA00200146704740F233439A4234
:10126000A2F2334202DC5242FFF751BEFFF740BE0A
:10127000064C074D06E0E06840F0010394E80700E3
:1012800098471034AC42F6D3FEF784FF20BD020825
:1012900060BD0208C0B24FF4F05100F09DB90000EB
:1012A0002DE9F34F8BB04FF0000801F10C000C4614
:1012B0004FF0010B46460DF1080A019062690121C9
:1012C00001989047051E2DD0252D2CD0216A8847E6
:1012D000C0B16269012101989047216A88470028BE
:1012E000F7D1411E62690198904700E0761CA16920
:1012F0000B988847216A88470028F7D1E1690B9845
:101300008847DBE7A1690B9888470746A84201D1C7
:10131000761CD3E7E1690B9888477F1C02D1B8F1AE
:10132000000F6FD047E1002762693D4639460198BA
:1013300090472A2804D1626901210198904701252C
:10134000DFF888926269012101989047A0F130018D
:101350000A290AD24F45E5DC07EB870100EB41077C
:10136000303FDFD445F01005ECE7E90601D46FF01B
:1013700000476C280AD04C2814D0682815D06A2859
:101380000DD074281CD07A281AD01DE06269012182
:10139000019890476C2802D045F0040514E045F010
:1013A00002050DE045F020050AE06269012101987F
:1013B0009047682802D045F0080505E045F400652F
:1013C0006269012101989047C4E9015765283DD021
:1013D00019DC58287AD00CDC452837D004DC2528C5
:1013E00026D0412831D131E046282FD047282CD1B2
:1013F0002CE05B2877D0612828D063287CD0642833
:1014000023D15AE0D1E06F2848D008DC66281DD0EF
:1014100067281BD0692821D06E2816D127E07028B4
:1014200045D0732868D0752847D078280DD14DE075
:10143000A1690B988847054625283FF469AFE16903
:101440000B9888476D1C3FF46AAFB4E023466A46A8
:101450006FF001000B99FFF7F3F99FE045F04000B2
:101460006060A80723464FF0000236D43EE0E8074C
:101470007FF447AF2068011D21600068290501D570
:1014800006701BE7290701D5068017E7A90703D5D2
:10149000F117C0E9006111E706600FE745F0400071
:1014A0006060A80723464FF0080216D41EE040F6FD
:1014B0000E0125EA0100606016E045F04000606022
:1014C000A80723464FF00A0207D40FE045F040007A
:1014D0006060A80708D5234610226FF001000B9921
:1014E000AFF300805AE007E0234610226FF00100BE
:1014F0000B99FEF7F5FF51E04FF000094F464B46C0
:10150000632802D05B2807D041E02079C00601D4CF
:101510000120A06001273AE062690121019890470B
:101520005E2805D14FF0010962694946019890474C
:10153000216939B900210A46534643F82120491C44
:101540000829FADBB0B3216969B9C11700EBD16290
:1015500053110AEB830122F01F02821A01200B684B
:10156000904003430B6062690121019890475D2818
:10157000E8D1B9F1000F09D00020514651F82020E0
:10158000D24341F82020401C0828F7DB02AB22465A
:1015900000976FF001000B99FFF74BF800280CDA69
:1015A000401C08D1BBF1000F05D04FF0FF300DB04B
:1015B00000F00EB8FFE74046F9E7E90701D108F16E
:1015C000010806444FF0000B78E60000CCCCCC0CB0
:1015D00030BCBDE8C08F00007F2801D9002208E0A0
:1015E000064A02EB5002C007127800D1120902F03D
:1015F0000F020120904008407047000068BB0208BD
:1016000070B58C1810F8015B15F0070301D110F8C4
:10161000013B2A1106D110F8012B03E010F8016BF1
:1016200001F8016B5B1EF9D12B0705D40023521E74
:101630000DD401F8013BFAE710F8013BCB1A921CDC
:1016400003E013F8015B01F8015B521EF9D5A142DA
:10165000D8D3002070BD000070B52DA003F064FA4F
:101660004FF4967420461FF065FE29A12BA000F0D0
:10167000A5FA00284AD12AA003F056FA20461FF006
:1016800059FE27A125A000F099FA00283ED12AA0F2
:1016900003F04AFA20461FF04DFE27A11FA000F0DC
:1016A0008DFA012831D0274A27A11546A2F2CA3067
:1016B000FEF7FAFE294628A005F020FD214629481C
:1016C000FEF7A7FE20461FF035FE27A003F02CFAF8
:1016D00020461FF02FFE24A110A000F06FFA012871
:1016E00013D0184A23A1143215461E48FEF7DCFE1B
:1016F000294624A005F002FD24A12846FEF794FE09
:1017000020B120461FF016FE002070BD012070BDE4
:1017100041542B4350534D533D3000004F4B00007C
:1017200041542B514D544346473D227365737369B1
:101730006F6E222C302C300041542B4347534E3DCA
:1017400031000000D66E0020252A5B5E3A205D3A0B
:1017500020255B5E0D5D0000696D65693D25730D9B
:101760000A0000000C6B002041542B4347534E3DB0
:1017700030000000252A5B5E4D5D255B5E0D5D0D32
:1017800000000000736E3D25730D0A004D504E00A1
:1017900008B5514C0127514EDFF84491DFF84481E0
:1017A00084F8F47300254FF4FA7A00BF03F020F9AF
:1017B00094F8F30310B1012824D088E0306814288D
:1017C00003D294F8F2030128F7D184F8F373FFF7FA
:1017D00043FF012879D003F021FA03F0ADF8002887
:1017E00075D108F0A9FE94F8F30301286FD1356094
:1017F000A8F8005008F079F850461FF09BFD08F05B
:101800006DF864E03068782802D305F013F858E0EA
:1018100099F802104846012902D1C17802290FD057
:10182000B8F80020142A28D32FA0A8F80050006888
:10183000009069462DA002F091FF01281AD040E0E7
:10184000A8F8005046212B48FEF7E3FD2A482BA1BB
:10185000D9F808208388274805F060FC254923A093
:1018600002F07CFF012801D108F066FE032189F80F
:10187000031026E008F060FE23E099F80400022837
:101880001FD194F8F50301281BD194F8F403012823
:1018900017D146211748FEF7BCFD1EF0F7FD154A8B
:1018A0000346183A1CA1134805F038FC1149A1F170
:1018B000720002F053FF012801D108F03DFE84F8C8
:1018C000F553B8F80000282801D984F8F35350469E
:1018D0001FF030FD6AE700000C6B002004000010D0
:1018E000486F0020000000104F4B0000424332368A
:1018F00030590000026F0020BC0600107B224361BB
:1019000072645F4944223A25782C225765696768DA
:1019100074223A25647D00007B22736E223A2225D0
:1019200073222C2274696D657374616D70223A2282
:101930002564227D0000000038B5040300F072FB2E
:10194000054620208DF80000200C8DF80100200AAB
:101950008DF802008DF8034000F000F94FF090443C
:1019600000221021204600F057FB4FF47A73042226
:1019700069460C4801F0FDFC01221021204600F0D0
:101980004BFB00BF00F010F80228FBD000F04AFB30
:10199000401B40F6B831884201D9032038BD0020F1
:1019A00038BD0000E40100107CB511A04FF0904458
:1019B0000068009000221021204600F02DFB4FF41B
:1019C0007A752B46012269460A4801F0D2FC2B4663
:1019D000012201A9074801F005FC0122102120463F
:1019E00000F01AFB9DF80400C00700D002207CBD67
:1019F00005000000E401001038B50DA04FF0904440
:101A00000068009000221021204600F005FB4FF4F2
:101A10007A7302226946074801F0ABFC01221021CB
:101A2000204600F0F9FABDE83840FFF7BDBF0000DE
:101A300066990000E4010010F8B5054603208DF812
:101A40000000080C8DF80100080A8DF80200144609
:101A50008DF803104FF0904700221021384600F017
:101A6000DBFA4FF47A76334604226946094801F0DE
:101A700080FCA2B233462946064801F0B3FB08B108
:101A80000120F8BD01221021384600F0C5FA0020DF
:101A9000F8BD0000E40100102DE9F84F16460C4691
:101AA000834600F0BFFA0746002001E000F5807091
:101AB000A042FBD9051BB54200D9354604EB060A06
:101AC0004FF002094FF090484FF47A768DF800906D
:101AD000200C8DF80100200A8DF802008DF80340DB
:101AE00000F03CF800221021404600F095FA334601
:101AF00004226946164801F03CFC30B9AAB23346CC
:101B00005946134801F035FC10B1012000F022B80D
:101B100001221021404600F07FFA06E000F082FA30
:101B2000C01BB04201D90320F0E7FFF73DFF0228B8
:101B3000F4D02C4404F58070AB44504502D9AAEB94
:101B4000040501E04FF480755445BFD30020DDE764
:101B5000E401001018BCBDE8E08F0000F8B514A047
:101B60000068009000F05EFA04464FF090460022B4
:101B70001021304600F050FA4FF47A752B460122BE
:101B800069460C4801F0F5FB01221021304600F0B7
:101B900043FA00BFFFF708FF0228FBD000F042FA2B
:101BA000001BA84201D90320F8BD0020F8BD0000A9
:101BB00006000000E4010010FEE700002DE9F041FE
:101BC0000E460746002402F013FF4FF4967516E008
:101BD0000FA11148FEF728FC08B90A2C02D30120F6
:101BE000BDE8F081641CE4B2304602F09DFF284657
:101BF0001FF0A0FB02F0FCFE28461FF09BFB3946BD
:101C00000548FEF711FC0028E2D00020E8E70000BC
:101C10004552524F520000000C6B002070470000EC
:101C2000010004484FF00101806A01D015F0DFBFC8
:101C300016F05CBA7000001001000848C06807D0B8
:101C4000012907D0022907D105A100BF15F0BCBDAD
:101C500004A1FBE704A1F9E7704700007000001041
:101C6000EE9BB900EE9BA700EE9BAB0072B6FEE7C1
:101C700010B540F2C234224600211A48FFF7DCFEBC
:101C800018480078142803D921461648FEF7C1FBEE
:101C9000154800240422046044608460C46040F25B
:101CA00026411248FFF7C8FE10480188827849BAD9
:101CB000090441EA0221C27811430D4A416191426F
:101CC00001D9491C00D1446101224FF486610948C1
:101CD000FFF7B2FE084890F8F413012901D980F803
:101CE000F44310BDF8020010547F0020BC06001021
:101CF00040420F00006F00200C6B002015F066F8CA
:101D000019F0D8FB1FF006F9002425460A26641CAA
:101D1000642C00DB002494FBF6F006FB1040284303
:101D200005D094FBF6F006FB104030B111E0012520
:101D30002846FFF775FF012006E0012D09D1002597
:101D40002846FFF76DFF0020FFF776FF20461BF0C7
:101D50004BFD1AF06BFD64201BF0EEFDD7E7000091
:101D600010B5164C9FED140A84ED020A02F07EFABB
:101D70002061616988421CD9401A00EE100A94ED76
:101D8000031AF8EE400A80EE810AB2EE041AF6EE6B
:101D9000000A84ED020A40EE010ABCEEE00A10EEF1
:101DA000100A81B2A18006A005F0A8F90849012017
:101DB000C87094ED020A10BD00000000BC060010BF
:101DC000D6D8C1BFD6B5CAC7A3BA25640D0A0000CC
:101DD000486F002010B502F049FA0A49020E486126
:101DE0000A70020C4A70020A8A70C870042240F21B
:101DF0002641044805F0FEF8BDE8104002A005F0B9
:101E00007DB90000BC060010676574206F6B0D0A79
:101E10000000000070B5044600F004F90546601C9F
:101E200002D004480078044400F0FCF8401BA042B3
:101E3000FAD370BD240000202DE9F04FDFF8AC91FB
:101E400000230325A9F1040B85B04FF0010C0F27E7
:101E500009F1040AABF1040EBFE000BF0CFA03F66F
:101E6000324075D00C7904F00304012C01D0022C0F
:101E70001BD1846800945C0005FA04F80494009C6B
:101E800024EA08040094D1F80C80049C08FA04F8B1
:101E9000009C48EA0408C0F808804468B4430E79FE
:101EA000C6F300169E40264346600C79E443A4071F
:101EB0000AD0C4684FEA430805FA08F6B4438E68AE
:101EC00006FA08F62643C6600C7904F00304022CD7
:101ED00010D1DC0800EB84040294246A5E074FEA08
:101EE000D66807FA08F6B4430E6906FA08F62643E0
:101EF000029C266204684FEA430805FA08F6B443D8
:101F00000E7906F0030606FA08F6264306604C68CA
:101F100014F4403F60D0364C266E46F0010626662B
:101F2000246E23F0030604F001040094314C344481
:101F30000294A4689E074FEA167807FA08F6B4439D
:101F4000B0F1904F05D02C4EB04204D1012612E0E2
:101F500042E000260FE0294EB04201D102260AE0FD
:101F6000274EB04201D1032605E0264EB04201D1F2
:101F7000042600E0072606FA08F62643029CA6601F
:101F8000D9F800604C46D1F8048096435FEAC8282F
:101F900000D516432660DAF800405646D1F8048092
:101FA00094435FEA882800D514433460DBF800408E
:101FB0005E46D1F8048094435FEA883800D5144324
:101FC0003460DEF800407646D1F8048094435FEA3E
:101FD000C83800D5144334605B1C0A6832FA03F435
:101FE0007FF43CAF05B000F00FB8000008040140DA
:101FF00000100240000001400004004800080048B2
:10200000000C00480010004830BCBDE8C08F0069DB
:10201000084000D0012070470AB181617047816299
:1020200070470000014880687047000024000020CD
:1020300070B5040011D021684CF6CC4008602168CE
:1020400045F255500860D4E9000141602168A0685C
:102050008860FFF7E7FF05460DE0012070BD00BF77
:10206000FFF7E0FF401B312805D92068C068400712
:1020700001D0032070BD2068C0684007F0D12068FF
:102080000269E1688A4201D0016102E04AF6AA21B0
:102090000160002070BD00684AF6AA21016000209E
:1020A00070470000024881680278114481607047DF
:1020B0002400002010B50024032000F099F80F2020
:1020C00000F008F808B1012401E000F049F82046CA
:1020D00010BD000030B505461C4887B0016E41F4C4
:1020E00000610166006E06A900F40060009001A87E
:1020F00000F0D4FA00F004FB1549164AB0FBF1F1E8
:102100001548491E0260416040F2E7320021C0E9F3
:1021100003218160816101F061FB040012D10E484E
:1021200001F0BEFB04000DD1192000F033F8102D92
:1021300007D200222946192000F03AF80748056026
:1021400000E0012407B0204630BD0000001002402E
:1021500040420F00002C0140AC020010280000207B
:102160000B4882B0016E41F001010166016E01F081
:1021700001010091816D41F080518165806D0022E7
:1021800000F0805000900F21901E02B000F010B8B7
:1021900000100240002809DB00F01F0201219140DD
:1021A0004009800000F1E020C0F8001170470000F5
:1021B000F0B40E4B1B680C46C3F30223C3F10705B2
:1021C000042D00D90425191D072901D2002300E0A0
:1021D000DB1E012606FA05F1491E214099409E406A
:1021E000761E16403143F0BC04F0ACBF0CED00E0AD
:1021F000064900F0070208684FF6FF03184040EA5E
:102200000220034A10430860704700000CED00E014
:102210000000FA051649B0F5007F0868C0F34120B8
:1022200009D0022805D0086820F4C06040F480601E
:102230000860002070470128FBD0086820F4C060C7
:1022400040F4007008600B483222006850430A4A8C
:10225000B0FBF2F0401C00E0401E4A69520501D577
:102260000028F9D148694005E3D5032070470000F4
:10227000007000400C00001040420F00024800684F
:1022800000F4C06070470000007000400248016820
:1022900041F4807101607047007000402DE9F84FF3
:1022A000044600270088A84D3E46000515D5606C01
:1022B00060B1B0F5000F04D0B0F5400F2BD001276E
:1022C0000AE0E86840F48030E86024E00021201D46
:1022D00003F0D6FD07001ED03E46206880033AD5A5
:1022E000A86D4FF00008C00009D4A86D40F08050E0
:1022F000A865A86D4FF0010800F080500090DFF84D
:102300004CA2DAF8001041F48071CAF80010FFF70F
:1023100089FE814610E0D5F88800616C20F4400009
:102320000843C5F88800D8E7FFF77CFEA0EB09005A
:10233000022801D9032705E0DAF80000C005F3D52B
:10234000002F7DD04FEA0706B8F1000F03D0A86D2B
:1023500020F08050A8652078C00707D0D5F8880005
:10236000216A20F003000843C5F888002078800720
:1023700007D5D5F88800616A20F00C000843C5F83D
:1023800088002078400707D5D5F88800A16A20F09A
:1023900030000843C5F888002078800607D5D5F8B6
:1023A0008800E16A20F440600843C5F8880020886E
:1023B000800507D5D5F88800E16B20F4402008435C
:1023C000C5F888002088400507D5D5F88800216C1D
:1023D00020F440100843C5F888002078400607D54F
:1023E000D5F88800216B20F440500843C5F88800D8
:1023F0002078000607D5D5F88800616B20F44040AE
:102400000843C5F888002088C00507D5D5F888009E
:10241000A16B20F440300843C5F8880020684FF0D5
:10242000006700034FF0806850D5D5F88800A16C94
:1024300020F040600843C5F88800A06CB84200E076
:1024400005E03BD1E86840F48010E8603EE0D5F854
:10245000900010F4407014D0A16D814211D0D5F8D5
:102460009000D5F8901020F4407041F48031C5F808
:102470009010D5F8901021F48031C5F89010C5F86F
:102480009000C00711D0FFF7CDFD074641F2883913
:1024900007E000BFFFF7C6FDC11B494501D9032670
:1024A00052E7D5F890008007F4D5D5F89000A16DDB
:1024B00020F440700843C5F8900045E7404505D139
:1024C0000121201D03F0DCFC00B10646206840031A
:1024D00017D5D5F88800E16C20F040600843C5F8B6
:1024E0008800E06CB84204D1E86840F48010E860ED
:1024F00007E0404505D10121201D03F0C1FC00B1DA
:1025000006462088400411D5D5F88800216D20F0BA
:1025100040500843C5F88800206DB0F1805F05D1B8
:102520000221201D03F0ACFC00B106462088000407
:1025300006D555F8880F616D20F08040084328606B
:10254000304600F005B80000001002400070004066
:1025500018BCBDE8E08F00002DE9F0470F460500EC
:102560006BD0494E306800F00700B84209D230689D
:1025700020F0070038433060306800F00700B842B0
:102580005BD12878414C80070AD5A868A16801F082
:10259000F001884204D9A16821F0F0010143A16053
:1025A0002878C0072CD06868032811D0022812D0E0
:1025B000216898B1490500293FDAA16821F003019B
:1025C0000143A160FFF72EFD804641F2883910E0FB
:1025D00021688901EFE721688903ECE78907EAE7C9
:1025E000FFF720FDA0EB0801494502D90320BDE813
:1025F000F087A068696800F00C00B0EB810FEFD1A4
:10260000287880070AD5A868A16801F0F0018842FF
:1026100004D2A16821F0F0010143A160306800F00C
:102620000700B8420BD9306820F00700384330600B
:10263000306800F00700B84201D00120D7E72878C1
:10264000400705D5A068E96820F4E0600843A06071
:102650002878000706D5A068296920F4605040EA70
:10266000C100A06000F05EF8A168094AC1F303113F
:10267000515C01F01F01C840064908600648006827
:10268000BDE8F047FFF726BD0020024000100240E1
:10269000C01F02080C000010280000200F2202605A
:1026A0000C4A936803F003034360936803F0F0035C
:1026B0008360936803F4E063C36092684FF4E0635F
:1026C00003EAD20202610448006800F007000860D3
:1026D00070470000001002400020024005480649F3
:1026E00000688968054AC1F30221515C01F01F01AD
:1026F000C84070470C000010001002400020020883
:102700000548064900688968054AC1F3C221515C41
:1027100001F01F01C84070470C000010001002407B
:102720000020020870B52549002318468A68CC6845
:1027300012F00C0204F00306214C4FEA640509D0A4
:102740000C2A05D0042A32D0082A00D1284670BDB0
:10275000012E10D10B681B0704D4D1F89430C3F3B9
:10276000032302E00B68C3F30313164E56F823301D
:10277000DAB10C2AEBD1C86800F00300022818D0A7
:10278000032818D01846CA68CB68C2F30212C3F3F4
:1027900006234343521CB3FBF2F2C868C0F3416006
:1027A000401C4000B2FBF0F070BD184670BD2046E2
:1027B00070BD2046E7E72846E5E70000001002402C
:1027C0000024F400D01F02082DE9F84304006FD064
:1027D000FA4DA86800F00C06E86800F003072078BE
:1027E000C00664D576B10C2E01D1012F0AD0A069A4
:1027F000002828687AD040F001002860FFF712FC1A
:1028000080465DE02868800702D5A0690028DED0F8
:10281000216A2868000703D5286800F0F00004E06A
:10282000D5F89400F02202EA1010814216D9084629
:1028300003F0BCFB00283BD1286840F0080028606A
:102840002868216A20F0F000084328606868E16980
:1028500020F47F4040EA0120686016E0286840F0DC
:10286000080028602868216A20F0F00008432860EA
:102870006868E16920F47F4040EA0120686026B979
:10288000206A03F093FB0028D5D1FFF74BFFA9681E
:10289000CB4AC1F30311515C01F01F01C840C94983
:1028A0000860C9480068FFF715FC00287ED12EE0BB
:1028B000CAE000BFFFF7B6FBA0EB0800022876D8FD
:1028C00028688007F6D5286840F008002860286846
:1028D000216A20F0F000084328606868E16920F46C
:1028E0007F4040EA0120686011E0FFE720F001002E
:1028F0002860FFF797FB804606E000BFFFF792FBDA
:10290000A0EB08000228DAD828688007F6D42078DF
:10291000C00740D0082E18D00C2E01D1032F14D0A0
:102920006068B0F5803F17D0B0F5A02F286817D0A9
:1029300020F480302860286820F4802028606068B7
:10294000E0B1FFF76FFB804614E02868800322D5D2
:102950006068002878D01EE0286840F48030EDE7F9
:1029600040F480202860F7E7FFF75CFBA0EB08004D
:102970006428A4D828688003F6D50CE0FFF752FB42
:10298000804605E0FFF74EFBA0EB0800642896D8D0
:1029900028688003F6D4207880073BD5042E11D018
:1029A0000C2E01D1022F0DD0E06801E0AAE1FFE07A
:1029B000002828681ED040F480702860FFF732FBA2
:1029C00007460CE0286840050CD5E0680028C1D017
:1029D00008E000BFFFF726FBC01B022893D8286839
:1029E0004005F7D56868217C20F0F85040EA016086
:1029F00068600FE020F480702860FFF713FB074643
:102A000005E000BFFFF70EFBC01B0228B1D8286805
:102A10004005F7D42078000729D560690028D5F84B
:102A2000940012D040F00100C5F89400FFF7FAFAC4
:102A3000074604E0FFF7F6FAC01B022899D8D5F83C
:102A400094008007F6D512E02BE120F00100C5F8D4
:102A50009400FFF7E7FA074605E000BFFFF7E2FA48
:102A6000C01B022885D8D5F894008007F6D42078BA
:102A7000400766D5A86D0027C00008D4A86D40F0B7
:102A80008050A865A86D012700F0805000904F4845
:102A90000168C90512D40168814641F48071016062
:102AA000FFF7C0FA804605E0FFF7BCFAA0EB08008C
:102AB00002287DD8D9F80000C005F5D5A068012806
:102AC00016D00528D5F8900017D020F00100C5F8E1
:102AD0009000D5F8900020F0040000BFC5F89000E9
:102AE000A06841F28839C0B1FFF79CFA80460FE038
:102AF000D5F8900040F00100F0E740F00400C5F880
:102B00009000F5E7FFF78EFAA0EB080149454FD892
:102B1000D5F890008007F5D50EE0FFF783FA8046E0
:102B200006E000BFFFF77EFAA0EB080149453FD859
:102B3000D5F890008007F5D41FB1A86D20F0805023
:102B4000A8652078800628D5606A0028D5F8980006
:102B500012D040F00100C5F89800FFF763FA07466D
:102B600005E000BFFFF75EFAC01B022820D8D5F8A9
:102B700098008007F6D510E020F00100C5F8980015
:102B8000FFF750FA074604E0FFF74CFAC01B022893
:102B90000ED8D5F898008007F6D4A06AF0B30228C2
:102BA00016D00C2E7DD0286820F08070286000E0C0
:102BB000A7E0FFF737FA0446A6E000000010024045
:102BC000C01F02080C000010280000200070004008
:102BD000E868E26A00F00301914228D1216B00F01D
:102BE000700209011039914221D1626B00F4FE415B
:102BF000B1EB022F1BD194F8382000F07841B1EBF3
:102C0000C26F14D1A18F00F4C00249084905A1F593
:102C1000001191420BD194F8401000E06AE049089D
:102C2000490600F0C060A1F1007181424BD00C2E2A
:102C300073D02868400170D4286820F08070286024
:102C4000FFF7F0F9064604E0FFF7ECF9801B0228D5
:102C500057D828688001F7D4F4E90B016FF00F0210
:102C600002EB01110843218A5204490802EB415149
:102C7000A26841EA02210843217D4FF07E424908C3
:102C800002EB41610843217B40EAC160E968244AC4
:102C900011400843E860286840F080702860E868C8
:102CA00000E03AE040F08070E860FFF7BBF90446CE
:102CB00005E000BFFFF7B6F9001B022821D82868FD
:102CC0008001F7D527E02868800124D4286840F0E7
:102CD00080702860E86840F08070E860FFF7A2F933
:102CE000044604E0FFF79EF9001B022809D8286873
:102CF0008001F7D50FE000BFFFF794F9001B022811
:102D000002D90320BDE8F88328688001F4D4E8687C
:102D100004490840E8600020F4E70120F2E70000E1
:102D20008C809D01FCFFEEFE0068503050F82100C1
:102D3000704708B50068503000EB810000900260D9
:102D400008BD000010B500680B4641680D48014001
:102D5000080CD870C1F304245C7001F03F049C702F
:102D6000C1F34231197052B903F05EF9D870587846
:102D700003F05AF95870987803F056F998700020CB
:102D800010BD00003FFFFF0010B50B460168896AC7
:102D9000596001680969C1F30E0199600068016812
:102DA0000D480140C1F305401870C1F306245C7062
:102DB00001F07F049C70890DD97052B903F034F989
:102DC0001870587803F030F95870987803F02CF99F
:102DD0009870002010BD00007F7F7F0010B50400B8
:102DE0004FF0010044D094F8210028B9002084F865
:102DF0002000204600F040F8022084F821002168DD
:102E0000CA204862216853204862204603F022F914
:102E100000282DD120688168164A11408160216800
:102E200088686268A369104322691A431043886066
:102E30002168E068086120680169228941EA02414D
:102E40000161204603F02AF9002811D12168CA6CDB
:102E500022F00302CA646269E16911432268D36CFB
:102E60001943D1642268FF215162012184F82110A5
:102E700010BD0000BFFF8FFF10B598B004465C2165
:102E80006846FDF7C6FA0B492068884210D14FF416
:102E900000300090401216906846FFF7FFF908B125
:102EA000FEF7E4FE044850F8901F41F40041016031
:102EB00018B010BD002800400010024070B5044654
:102EC00090F820000B4601281BD0012684F82060D2
:102ED000022084F82100B2B19878D97840EA0145FF
:102EE00058781978000240EA413005432168CA2029
:102EF0004862216853204862204603F0ABF8D0B105
:102F000020E0022070BD5878C10603D500F0EF0024
:102F10000A305870D87803F090F80504587803F018
:102F20008CF845EA0025987803F087F8054318786F
:102F300045EA4035DAE70848054020684560204604
:102F400003F0ACF82268FF21516208B984F82160CF
:102F5000002184F8201070BD3FFFFF002DE9F041F3
:102F6000044690F8200090460D46012811D0012714
:102F700084F82070022084F821002168CA20486269
:102F8000216853204862204603F064F8002618B1F7
:102F900029E00220BDE8F0812068B8F1000F8068C8
:102FA0004FEA406024D0002800DBEE70A878297832
:102FB000EA7840EA01406978090241EA825108430F
:102FC00018490840216808602068816821F4802140
:102FD0008160D5E90301084321688A68104388604D
:102FE000204603F05BF82268FF215162A0B115E092
:102FF000002800DBEE70287803F01FF803046878DF
:1030000003F01BF843EA0023A87803F016F8034303
:10301000E87843EA8050D3E784F8217084F8206090
:10302000B8E700007F7F7F0070B504460068C16884
:1030300021F0A001C160FEF7F5FF05464FF47A7656
:1030400007E000BFFEF7EEFF401BB04201D90320AE
:1030500070BD2068C0688006F4D5002070BD70B5D2
:10306000040009D0606A002540B125616561A56250
:1030700094F85D0040B10CE0012070BD6068B0F5CF
:10308000827FF4D0E561F2E784F85C50204600F0DE
:1030900057F8022084F85D002068016821F04001A3
:1030A0000160E1684FF4E062914201D9002001E043
:1030B0004FF48050B1F5706F02D0914200D0A562FC
:1030C000A188228901F4827102F404421143227C16
:1030D00002F002021143227D02F001021143228B11
:1030E00002F400721143227F02F03802114394F877
:1030F000202002F080021143228D02F4005211437D
:1031000022681160A169042202EA114194F8242086
:1031100000F4805002F01002114394F8342002F0C1
:1031200008021143A28902F470621143014320682E
:1031300041602566012084F85D00002070BD00001C
:1031400070B586B0044614216846FDF762F9214E39
:10315000256800212048022203230524B54219D105
:10316000056E45F480550566056E05F48055059598
:10317000C56C45F00105C564C06C02AD00F00100EE
:10318000059085E81A00E020CDE9000269464FF07D
:1031900090401AE0114EB54219D1856D45F4804535
:1031A0008565856D05F480450595C56C45F002057E
:1031B000C564C06C02AD00F00200059085E81A00FD
:1031C000B000CDE9000269460548FEF735FE06B0BD
:1031D00070BD000000300140001002400038004087
:1031E000000400482DE9F84F044640680025984641
:1031F00016460F464FF0040BB0F5827F01D1A06850
:1032000088B194F85C00012818D0012084F85C0093
:10321000FEF708FF814694F85D004FF0000A012890
:103220000ED0022599E084F85DB013460A46204688
:10323000CDF8008000F064F900F098B80220FBE7B8
:10324000002F77D0002E75D084F85DB0C4F860A050
:103250002764A4F84460A4F84660C4F838A0A4F831
:103260003CA0A4F83EA0C4F84CA0C4F850A0E0686C
:103270004FF4E06188422068426802D922F480520B
:1032800001E042F480524260A068B0F5004F09D1DD
:103290002068026822F0400202602068026822F47E
:1032A0008042026020680268520603D4026842F03D
:1032B00040020260E06888421DD93FE020688168D2
:1032C000C9070BD0017B206C0170206C401C20646E
:1032D000B4F84600401EA4F846000CE0FEF7A2FE3B
:1032E000A0EB0901414503D3B8F1FF3F03D03BE018
:1032F000B8F1000F38D0B4F846000028DED121E044
:1033000020688168C9070BD0C068216C0880206CD8
:10331000801C2064B4F84600401EA4F846000DE06E
:10332000FEF780FEA0EB0901414504D3B8F1FF3F51
:1033300004D019E010E0B8F1000F15D0B4F8460041
:103340000028DDD14A464146204602F0E5FE08B19C
:1033500020202066206E00B10125012084F85D0048
:1033600084F85CA0284667E70325F6E718BCBDE8AB
:10337000E08F2DE9F84F044690F85C0000271D46C9
:103380001646894601280DD04FF0010B84F85CB039
:10339000FEF748FE804694F85D00BA46012804D046
:1033A0000227A4E0022000F0A8B8B9F1000F74D001
:1033B000002E72D0032084F85D00C4F860A0C4F829
:1033C0003890A687E687C4F840A0A4F844A0A4F8E3
:1033D00046A0C4F850A0C4F84CA0A068B0F5004FB7
:1033E00009D12068016821F040010160206801686E
:1033F00041F48041016020680168490603D40168F6
:1034000041F040010160E068B0F5E06F606823D9E9
:1034100008B1012E1CD1A06B21680088C86006E0AD
:1034200020688168890709D5A16B0988C160A06BF4
:10343000801CA063E08F401EE08709E0FEF7F2FDEC
:10344000A0EB0800A84202D3681C01D046E0ADB34F
:10345000E08F0028E4D136E008B1012E30D1E08FB2
:103460000128A06B03D921680088C8600FE021689B
:103470000078087314E0E08722E0206881688907FB
:1034800014D5E18F0129A16B08D90988C160A06B0F
:10349000801CA063E08F801EEDE727E009780173B0
:1034A000A06B401CA063E08F401EE4E7FEF7BAFD6E
:1034B000A0EB0800A84202D3681C01D00EE06DB159
:1034C000E08F0028D9D142462946204602F05EFE10
:1034D00008B120202066A06810B105E0032706E0AF
:1034E0002068C16880680090206E00B1012784F8D0
:1034F0005DB084F85CA0384655E718BCBDE8E08FA5
:103500002DE9F05F044690F85C0000270A9E1D46F6
:1035100092468B464FF0010901280ED0012084F815
:103520005C00FEF77FFD804694F85D00616801282D
:103530000CD0B1F5827F07D102E0022000F011B972
:10354000A16809B9042801D0022700E1BBF1000FEE
:1035500024D0BAF1000F21D005B394F85D000428FF
:1035600002D0052084F85D0000202066C4F840A049
:10357000A4F84650A4F84450C4F838B0E587A587AD
:10358000E0642065E0684FF4E061884201D8012DD5
:1035900006D92068426822F4805205E00127D6E06F
:1035A0002068426842F480524260206802685206F5
:1035B00003D4026842F040020260E068884260681A
:1035C00045D908B1012D3AD1A06B21680088C860A7
:1035D000A06B801CA063E08F401EE0872FE0206876
:1035E000816889070FD5E18F69B1B9F1010F0AD15F
:1035F000A16B0988C160A06B801CA063E08F401E96
:10360000E0874FF0000920688168C9070FD0B4F83F
:10361000461061B1C068216C0880206C801C206459
:10362000B4F84600401EA4F846004FF00109FEF72A
:10363000F9FCA0EB0800B04201D3701C75D1E08FFB
:103640000028CCD1B4F846000028C8D176E008B1F3
:10365000012D6CD1E08F0128A06B08D9216800886A
:10366000C860A06B801CA063E08F801E07E021680B
:1036700000780873A06B401CA063E08F401EE087B9
:1036800055E02068816889071AD5E18FC1B1B9F189
:10369000010F15D1E18F0129A16B07D90988C160FC
:1036A000A06B801CA063E08F801E06E00978017388
:1036B000A06B401CA063E08F401EE0874FF0000924
:1036C00020688168C90728D0B4F8461029B3B4F837
:1036D0004610012914D9C068216C0880206C801C18
:1036E0002064B4F84600801EA4F84600B4F84600F2
:1036F000012810D82068416841F4805141600AE0F7
:10370000007B216C0870206C401C2064B4F84600DB
:10371000401EA4F846004FF00109FEF783FCA0EB21
:103720000800B04202D3701C01D018E0BEB1E08F97
:103730000028A6D1B4F846000028A2D1424631465E
:10374000204602F023FD10B1012720202066012031
:1037500084F85D00002084F85C003846EEE603271C
:10376000F5E730BCBDE8C09F704770477047000068
:10377000F0B590F83C20012A29D0012480F83C4083
:10378000022280F83D2003685A689D68114EB342BA
:1037900003D122F470074A683A4322F070070A689E
:1037A0003A435A600268B24205D0B2F1804F02D06B
:1037B000094B9A4204D1896825F08003194391602E
:1037C00080F83D40002180F83C100846F0BD022002
:1037D000F0BD0000002C01400040014010B5040085
:1037E00003D094F83D0010B107E0012010BD002087
:1037F00084F83C00204600F023F8022084F83D00C5
:10380000211D206802F03AFE012084F8480084F867
:103810003E0084F83F0084F8400084F8410084F8BA
:10382000420084F8430084F8440084F8450084F89A
:10383000460084F8470084F83D00002010BD0000D9
:1038400008B501681448B1F1804F14D0134A914271
:1038500020D1816D41F010018165806D002200F062
:103860001000009008213620FEF7A2FC3620BDE8AB
:103870000840FEF78FBC816D41F001018165806DCC
:10388000002200F00100009005211C20FEF790FCB2
:103890001C20ECE708BD00000010024000100040B2
:1038A00090F83D10012901D001207047022180F8D5
:1038B0003D100168CA6842F00102CA6000680B4905
:1038C000884205D0B0F1804F02D00949884207D123
:1038D0008168084A1140062906D0B1F5803F03D01F
:1038E000016841F00101016000207047002C014097
:1038F000004001400700010070B5044690F83C000C
:103900000025012817D0012684F83C60022084F8A5
:103910003D00226890682F4B184020F47F40906053
:103920000868502838D00DDC20284FD005DC90B333
:10393000102811D14AE0022070BD302846D040281E
:103940000AD13BE060282FD070280DD0B0F5805F01
:1039500003D0B0F5005F12D0012584F83D6000204F
:1039600084F83C00284670BDCB68D1E9012120686D
:1039700002F0C7FD2068816841F0770109E0CB685B
:10398000D1E90121206802F0BCFD2068816841F482
:1039900080418160E1E719E0CA684968206802F067
:1039A00001FF5021206806E0CA684968206802F0DB
:1039B0000AFF6021206802F0AEFDCEE7CA684968C0
:1039C000206802F0EFFE40212068F4E722680146FB
:1039D0001046F0E788FFFEFF704770B504460068A8
:1039E00001694FF00005C943890715D4C168C9436F
:1039F000890711D4E91E01610120207720688069C0
:103A00008007204602D0FFF7E7FF04E000F0D6F879
:103A1000204600F098F9257720680169C9434907D5
:103A200017D4C168C943490713D46FF00401016179
:103A3000022020772068806910F4407F204602D061
:103A4000FFF7CAFF04E000F0B9F8204600F07BF968
:103A5000257720680169C943090716D4C168C9439D
:103A6000090712D46FF00801016104202077206853
:103A7000C0698007204602D0FFF7AEFF04E000F0E7
:103A80009DF8204600F05FF9257720680169C94359
:103A9000C90617D4C168C943C90613D46FF0100111
:103AA0000161082020772068C06910F4407F20461B
:103AB00002D0FFF791FF04E000F080F8204600F00C
:103AC00042F9257720680169C943C90708D1C1684F
:103AD000C943C90704D1891E0161204600F09CF941
:103AE00020680169C943090609D4C168C9430906A8
:103AF00005D46FF0800101612046FFF736FE206893
:103B00000169C943C90509D4C168C943090605D477
:103B10006FF4807101612046FFF726FE206801697D
:103B2000C943490609D4C168C943490605D46FF0A1
:103B300040010161204600F0AFF920680169C943E6
:103B400089060BD4C168C943890607D46FF02001E8
:103B500001612046BDE87040FFF708BE70BD00005F
:103B600010B586B0044614216846FCF752FC206864
:103B7000B0F1804F1CD10F48C16C41F00101C1640C
:103B8000C06C002400F00100059002200090CDE9F7
:103B900001040120CDE9034069464FF09040FEF753
:103BA0004BF90421044800F0CFF80348006884630F
:103BB00006B010BD00100240AC030020704770B585
:103BC000044690F83C0000260D4601280BD0012049
:103BD00084F83C000C2A4AD007DC82B1042A20D0A9
:103BE000082A06D131E0022070BD102A53D0142AD1
:103BF00063D00126002084F83C00304670BD206868
:103C000002F092FC2068816941F00801816120681E
:103C1000816921F004018161206881692A69114369
:103C200011E0206802F0BCFC2068816941F4006169
:103C300081612068816921F48061816120688169E6
:103C40002A6941EA02218161D4E7206802F0E4FC9C
:103C50002068C16941F00801C1612068C16921F093
:103C60000401C1612068C1692A69114311E020681B
:103C700002F00CFD2068C16941F40061C161206857
:103C8000C16921F48061C1612068C1692A6941EA82
:103C90000221C161AEE7206802F028FD2068416D75
:103CA00041F0080141652068416D21F00401416542
:103CB0002068416D2A69114311E0206802F044FD3B
:103CC0002068416D41F4006141652068416D21F437
:103CD000806141652068416D2A6941EA02214165A0
:103CE00088E710B5040003D094F83D0010B107E058
:103CF000012010BD002084F83C00204600F022F88E
:103D0000022084F83D00211D206802F0B7FB01204D
:103D100084F8480084F83E0084F83F0084F84000AE
:103D200084F8410084F8420084F8430084F8440099
:103D300084F8450084F8460084F8470084F83D0084
:103D4000002010BD7047704710B50446022269B1CB
:103D5000042912D0082917D00C291CD0102921D0F1
:103D600094F84300012824D0012010BD94F83E00AF
:103D70000128F9D184F83E201DE094F83F00012885
:103D8000F2D184F83F2016E094F840000128EBD1EE
:103D900084F840200FE094F841000128E4D184F831
:103DA000412008E094F842000128DDD184F8422047
:103DB00001E084F843200122206802F095FB1249BB
:103DC0002068124A884204D0904202D0104B984298
:103DD00003D1436C43F4004343642068884204D019
:103DE000B0F1804F01D0904207D18168094A11405B
:103DF000062906D0B1F5803F03D0016841F00101EA
:103E00000160002010BD0000002C01400040014076
:103E1000004401400700010010B50446006818493D
:103E2000884201D1FEF73EF916492068884225D123
:103E300015484FF47A7400234168491C4160028898
:103E4000521C92B20280A14200D34360A24200D32E
:103E500003800E498A7822B9097811B94188491C32
:103E6000418000220A490B48FEF78EFF06490022D6
:103E7000BDE8104008310748FEF764BF10BD0000E0
:103E8000002C01400010004000000010486F00208E
:103E90002001002088030020704710B5040002D0E4
:103EA000A06F10B107E0012010BD002084F874005D
:103EB000204600F025F82420A0672068016821F042
:103EC00001010160204602F07DFD0128ECD0606A0E
:103ED00010B1204602F0E4FC2068416821F49041D2
:103EE00041602068816821F02A01816020680168B2
:103EF00041F0010101602046BDE8104002F034BDF0
:103F00002DE9F0479EB00446142117A8FCF781FA6A
:103F10005C216846FCF77DFA674A2168674C0326F6
:103F20000727022500204FF0010891423DD1C146EC
:103F3000CDF80080804608906846FEF7AFF908B1DA
:103F4000FDF794FE206E40F480402066206E00F461
:103F500080401C90E06C40F00200E064E06C17A927
:103F600000F002001C90402081E82101544CCDE972
:103F70001A672046FDF760FF17A9802081E821021B
:103F80002046CDE91A67FDF757FF002205212520BD
:103F9000FEF70EF92520FEF7FDF84A490868026889
:103FA00042F02002026008683DE0474A4FF0040AF0
:103FB00091423FD18146099000956846FEF76EF91F
:103FC00008B1FDF753FEA06D40F40030A065A06D70
:103FD00000F400301C90E06C40F00100E064E06C04
:103FE000CDF85CA000F001001A96CDE91B70CDE978
:103FF00018594FF0904417A92046FDF71DFF17A947
:10400000082081E821012046CDE91A67FDF714FF59
:10401000002206212620FEF7CBF82620FEF7BAF86C
:104020002848843041E0016841F0100101601EB071
:10403000BDE8F087254A9142F9D1CDF800A081462C
:104040000A906846FEF72AF908B1FDF70FFEA06D49
:1040500040F48020A065A06D00F480201C90E06CEE
:1040600040F00400E064E06C17A900F004001C902C
:104070004FF4806081E82102154CCDE91A67204693
:10408000FDF7DAFE17A94FF4006081E82101204610
:10409000CDE91A67FDF7D0FE002207212720FEF7A1
:1040A00087F82720FEF776F80A4801680A6842F088
:1040B00020020A600068B6E70038014000100240A4
:1040C00000040048C80700200044004000480040A9
:1040D00000080048D00800202DE9F8430446806F0E
:1040E0001F4616460D4620284FD1CDB1C6B194F8D3
:1040F0007400012849D0012084F874004FF00008B2
:10410000C4F880802120A067FDF78CFFA4F85060E0
:104110008146A4F85260A068B0F5805F03D004E047
:104120000120BDE8F883206928B12E465FF0000524
:1041300084F8748010E00026FAE78021204602F01F
:1041400041FDB8B9C6B116F8010B21680885B4F86D
:104150005200401EA4F85200B4F852004B464FF0F3
:10416000000200970028E8D14FF04001204602F0FD
:1041700029FD30B10320D4E735F8020BC0F3080065
:10418000E3E72020A0670020CBE70220C9E700007A
:1041900071B54FF461754FF0E023104E009819E0AF
:1041A0002C46A04200D804469869614201EB810187
:1041B00010EB011105D49A69824208DA8A42FADAD0
:1041C00005E08A1999698142FCDD9142FADC009888
:1041D000001B00900028E3D178BD0000803801006A
:1041E00070B5214C012240212046FDF715FF01202A
:1041F0001DF0A0F8002280212046FDF70DFF0025CC
:1042000040212046FDF703FF0028F9D100260122B6
:1042100080212046FDF700FF6D000120FFF7B8FF69
:10422000002280212046FDF7F7FE40212046FDF7C1
:10423000EEFE00B16D1C0120FFF7AAFF761CF6B25E
:10424000182EE4D3012280212046FDF7E5FE85F4F7
:1042500000050120FFF79CFF002280212046FDF78A
:10426000DBFE284670BD00000008004870B5002441
:104270004FEA0405FFF7B4FF6D1C04440A2DF9DB77
:104280000A20B4FBF0F070BDFEE72DE9F0410446D2
:104290001D4616460F462A2000F0FAF8204600F088
:1042A000EDF8304600F0EAF82B2000F0F1F838463F
:1042B00000F0E4F8284600F0E1F8BDE8F0412C20D9
:1042C00000F0E6B810B500224FF400414FF09040E6
:1042D000FDF7A2FE684C002204212046FDF79CFE5B
:1042E000642006F006FB012204212046FDF794FE1F
:1042F000642006F0FEFA012291022046FDF78CFEB2
:10430000642006F0F6FA112000F0C2F8782006F0DA
:10431000F0FA362000F0BCF8702000F0CDF83A201A
:1043200000F0B6F8052000F0C7F8B22000F0B0F8B1
:104330000C2000F0C1F80C2000F0BEF8002000F0C6
:10434000BBF8332000F0B8F8332000F0B5F8B72000
:1043500000F09EF8352000F0AFF8BB2000F098F890
:10436000192000F0A9F8C02000F092F82C2000F0ED
:10437000A3F8C22000F08CF8012000F09DF8C320C3
:1043800000F086F8122000F097F8C42000F080F8C2
:10439000202000F091F8C62000F07AF80F2000F0FD
:1043A0008BF8D02000F074F8A42000F085F8A1204C
:1043B00000F082F8E02000F06BF8D02000F07CF8EC
:1043C000042000F079F80D2000F076F8112000F0BC
:1043D00073F8132000F070F82B2000F06DF83F20E8
:1043E00000F06AF8542000F067F84C2000F064F800
:1043F000182000F061F80D2000F05EF80B2000F0AE
:104400005BF81F2000F058F8232000F055F8E12059
:1044100000F03EF8D02000F04FF8042000F04CF8F7
:104420000C2000F049F8112000F046F8132000F0AD
:1044300043F82C2000F040F83F2000F03DF84420E5
:1044400000F03AF8512000F037F82F2000F034F84F
:104450001F2000F031F81F2000F02EF8202000F07F
:104460002BF8232000F028F8202000F011F8BDE8F8
:104470001040292000F00CB80004004810B5044694
:10448000000A00F019F8E0B2BDE8104000F014B8DE
:1044900070B5084C0546002210212046FDF7BCFDF2
:1044A000284600F009F82046BDE87040012210219E
:1044B000FDF7B2BD000400482DE9F041DFF840806F
:1044C000104E054600244FF4805700220821304644
:1044D000FDF7A2FD280601D5012200E000223946A1
:1044E0004046FDF799FD012208213046FDF794FD75
:1044F0006806641C050EE4B2082CE6D3BDE8F08122
:1045000000080048000400482DE9F0410E46074627
:1045100015460421052000F029F80021012000F0B3
:10452000FFF880210A2000F0EFF8002404E0395D54
:10453000092000F0F5F8641CB442F8D303210120EF
:1045400000F0EEF8084C052000F0C0F8641E01D021
:104550004007F8D5222000F0B9F82870212000F09B
:10456000B5F86870BDE8F081A086010070B50C4612
:10457000054600F0ABF820EA04012846BDE870408B
:1045800000F0CEB82DE9FF5F0027FE25DDF838A04A
:1045900016468B468146B8460C2805D0B9F10E0F59
:1045A00005D11227102001E077273020804647F000
:1045B0008001022000F0B4F880210420FFF7D6FF2C
:1045C0000021012000F0ACF880210A2000F09CF8C6
:1045D000002405E01BF80410092000F0A1F8641C79
:1045E000B442F7D34946012000F09AF8B9F10C0F14
:1045F00003D180210D2000F087F8294E042000F01F
:1046000065F80446761E04D0E00702D114EA080FCC
:10461000F4D080210D20FFF7A9FF36B1062000F06D
:1046200055F810F01B0F0CD0FE2580210C2000F057
:104630006BF80021012000F073F804B0284600F068
:1046400031B800253C40E00700D0FF25B9F10C0F40
:10465000EBD10A2000F03AF804460C2000F036F8BE
:1046600010F007004FEAC40104D008390844AAF842
:10467000000001E0AAF8001024B1122C04D9122481
:10468000002603E00124FBE7002605E0092000F0F6
:104690001DF803998855761CA642F7D3C5E700009C
:1046A000E093040030BCBDE8C09F000010B5064C8C
:1046B000012211032046FDF7AFFC20460122BDE890
:1046C0001040D102FDF7A8BC0004004870B57E215F
:1046D00001EA40000B4E40F080044FF48055002268
:1046E00029463046FDF798FC204601F003FD0020E6
:1046F00001F000FD0446012229463046FDF78CFCFE
:10470000204670BD0004004870B50C460546FFF712
:10471000DDFF40EA04012846BDE87040AFF30080A9
:104720002DE9F0410E467E2101EA40040A4F4FF484
:104730008055002229463846FDF76EFC204601F0E0
:10474000D9FC304601F0D6FC29463846BDE8F04198
:104750000122FDF761BC000000040048F0B595B0EF
:104760000C461A212BA28DF85010D2E90012CDE987
:1047700012120346002529A212A9684602F0CEFCB7
:10478000684600F0D1F94FF4967630461CF0D2FD21
:1047900000F02EF92046FBF759FE82B242F2107764
:1047A0003B4621462248FFF797FC3B46012214A9CD
:1047B0001F48FFF791FC30461CF0BCFD00F018F9D3
:1047C0001CA12048FBF730FE1F4C1E4F206018E054
:1047D00000F00EF91DA11B48FBF726FE28B10020B2
:1047E00087F8F303012015B0F0BD052D0CD26D1C28
:1047F000EDB210A11348FBF717FE206030461CF005
:1048000099FD20680028E3D0012087F8F3030020F9
:10481000E9E7000025732C222573220041542B5117
:104820004D545055423D302C302C302C300000007F
:10483000C80700202B514D545055423A20302C309F
:104840002C3000000C6B0020500000204552524FCD
:1048500052000000F0B599B00025204A20A168461A
:1048600002F05CFC684600F05FF94FF4967738463A
:104870001CF060FD00F0BCF824A12848FBF7D4FD33
:10488000274C264E20601DE000F0B2F825A12348F9
:10489000FBF7CAFD20B925A12048FBF7C5FD28B1CB
:1048A000002086F8F303012019B0F0BD1E2D0CD2B4
:1048B00016A11A48FBF7B8FD6D1C2060EDB2384612
:1048C0001CF038FD20680028DED064201CF032FD8A
:1048D000012086F8F3030020E6E70000EA6E0020DE
:1048E00041542B514D54434F4E4E3D302C22257395
:1048F000222C226E6562756C697A6572222C226C9C
:104900006A72683132333422000000002B514D545A
:10491000434F4E4E3A20302C302C30000C6B002090
:10492000500000204552524F520000002B514D5470
:10493000535441543A0000002DE9F04100251BA0DA
:1049400000F0F2F84FF4967738461CF0F3FC00F0D4
:104950004FF81FA12248FBF767FD224C204E206034
:1049600019E000BF00F044F81FA11D48FBF75CFDF3
:1049700028B1002086F8F3030120BDE8F0811E2D48
:104980000CD213A11648FBF74FFD6D1C2060EDB251
:1049900038461CF0CFFC20680028E3D064201CF0CF
:1049A000C9FC012086F8F3030020E6E741542B51AF
:1049B0004D544F50454E3D302C223132302E323442
:1049C0002E3134392E313739222C3138383300002A
:1049D0002B514D544F50454E3A20302C30000000A2
:1049E0000C6B0020500000204552524F5200000036
:1049F00070B5394C2088000421D54FF496752946AE
:104A00003648FBF706FD36493448FBF734FD2946A6
:104A10003348FBF7FEFC002525803048FBF716FDE8
:104A200082B242F210732D492E48FFF755FB2EA19A
:104A30002A48FBF7F9FC294C10B184F8F35370BDF8
:104A40002CA12648FBF7F0FC18B1012084F8F203F2
:104A500070BD2AA12148FBF7E7FC0028F8D02C4ABA
:104A600029A416462BA11D48FBF71EFD3046FBF777
:104A7000EDFC0A3002F0B8FB05463246214602F052
:104A80004DFB23491548FA31FBF7CEFC08B1012153
:104A90000DE024491148FBF7C7FC08B1032111E0E0
:104AA00020490E488C31FBF7BFFC20B1022128467B
:104AB00000F03CFD0BE01B4908484631FBF7B4FC15
:104AC00028B10421284600F031FD01F0B3FE28464C
:104AD000BDE8704002F046BB180000200C6B0020BF
:104AE00044040020D00800202B514D54535441540D
:104AF0003A0000002B49503A000000002B514D5461
:104B0000524543563A0000007B25737D7D0000002E
:104B1000386C0020252A5B5E7B5D7B255B5E7D5DBE
:104B200000000000786D002010B50446FBF78EFCF5
:104B300082B242F2107321460548FFF7CDFABDE874
:104B400010404FF47A73022202A10148FFF7C4BA61
:104B5000C80700200D0A0000F0B521A397B01CCBB8
:104B60008DE81E000346002520A201A904A802F03A
:104B7000D5FA04A8FFF7D8FF4FF4967738461CF013
:104B8000D9FBFFF735FF1DA12048FBF74DFC204C5A
:104B90001E4E206019E000BFFFF72AFF1DA11B4831
:104BA000FBF742FC28B1002086F8F303012017B080
:104BB000F0BD1E2D0CD26D1CEDB210A11348FBF7F9
:104BC00033FC206038461CF0B5FB20680028E3D099
:104BD00064201CF0AFFB012086F8F3030020E6E719
:104BE00025732C222573222C2564000041542B515F
:104BF0004D545355423D302C310000002B514D5443
:104C00005355423A20302C31000000000C6B00203C
:104C1000500000204552524F5200000010B5134A78
:104C200013A11446A2F5DC7002F078FA224616A110
:104C30001C4802F073FA1B4822461BA18C3002F07C
:104C40006DFA184822461FA1463002F067FA07485D
:104C5000224622A1A03802F061FA22460348BDE8AC
:104C6000104026A15A3802F059BA0000EA6E00201E
:104C70006C6A72682F6E6562756C697A65722F2531
:104C8000732F7461736B00006C6A72682F6E6562BB
:104C9000756C697A65722F25732F636C6561725428
:104CA00061736B00786D00206C6A72682F6E6562AC
:104CB000756C697A65722F25732F73796E63446101
:104CC000746500006C6A72682F6E6562756C697A33
:104CD00065722F25732F62696E6400006C6A7268BA
:104CE0002F6E6562756C697A65722F25732F646506
:104CF0007669636553746174757300006C6A7268D9
:104D00002F6E6562756C697A65722F25732F7765D2
:104D100069676874496E63726561736500000000BD
:104D200010B5A4B001201CF0F3FD1D4C1C221D4940
:104D300060606846FBF746FB0021684618F008FEF5
:104D4000184920601C221C3107A8FBF73BFB0021FF
:104D500007A818F0FDFD1349E0601C2238310EA8A9
:104D6000FBF730FB00210EA818F0F2FD0D49206181
:104D70001C22543115A8FBF725FB002115A818F0BB
:104D8000E7FD0849A0601C2270311CA8FBF71AFB44
:104D900000211CA818F0DCFD606124B010BD0000EB
:104DA00000000020341F02082DE9F04786B01421CE
:104DB0006846FBF72EFB4748C16C41F00401C16413
:104DC000C16C01F004010591C16C41F08001C16426
:104DD000C16C01F080010591C16C41F00101C16419
:104DE000C16C01F001010591C16C41F00201C16487
:104DF000C06C4FF0904800F002000590012248F28C
:104E000010014046FDF708F9DFF8CCA0012241F679
:104E10001C015046FDF700F900224FF48061504616
:104E2000FDF7FAF8DFF8B490002280214846FDF73C
:104E3000F3F800224FF480714046FDF7EDF80122AF
:104E4000170339464846FDF7E7F810200090012582
:104E50000024CDE90154694640460394FCF7ECFF79
:104E600041F604400090CDE9015469465046039450
:104E7000FCF7E2FF4020CDE9000469464846029471
:104E8000FCF7DAFF80200090CDE9015469464846DE
:104E90000394FCF7D1FF4FF401400226CDE9000551
:104EA000CDE9024669464046FCF7C6FF00970396E7
:104EB000CDE9015469464846FCF7BEFF1820CDE90C
:104EC0000005CDE9024669465046FCF7B5FF06B03D
:104ED000BDE8F087001002400004004800080048C8
:104EE0000A4810B5084901600321416040F6B83115
:104EF000C1608160FDF79CF8002803D0BDE8104038
:104F0000FCF7B4BE10BD000000300040D40100101A
:104F100030B587B014216846FBF77BFA234800249C
:104F200021490594C0E900147F218160FF21C0E977
:104F3000031444618461C461FDF750FF08B1FCF7BC
:104F400095FE01211948FDF7EFFE122829D0122203
:104F500001211648FDF7EDFE08258DF800508DF86B
:104F600001508DF802400394012269460F480494D1
:104F7000FDF7F4FF08B1FCF779FE04208DF814006A
:104F800012208DF815008DF8165022208DF817008C
:104F9000012205A90548FDF791FF002801D0FCF783
:104FA00065FE07B030BD00000028004088030020E7
:104FB00010B5134C11484FF4E06120604FF482703B
:104FC00060600020C4E902014FF400712061C4E96F
:104FD0000501E061206207216062C4E90A012063E3
:104FE000082060632046FEF73AF808B1FCF73EFE61
:104FF0002068016841F04001016010BD00300140AF
:10500000E4010010124810B5104901604FF482719C
:10501000416000214FF4E062C0E902124FF40072D7
:105020000161C0E905123822C0E907210722416267
:10503000C0E90A12016308214163FEF710F8002855
:1050400003D0BDE81040FCF711BE10BD0038004091
:105050004802001010B58EB00024079408940994FB
:105060000A940B940C941C2168460D94FBF7D1F91B
:105070001F484FF0804101604F21C0E9011440F208
:10508000E731C0E9031480218161FEF7A7FB08B175
:10509000FCF7ECFD4FF48050079007A91448FEF789
:1050A0002BFC08B1FCF7E2FD1148FEF71AFE08B12F
:1050B000FCF7DCFD0B940BA90D480D94FEF758FB93
:1050C00008B1FCF7D3FD602000904FF41670CDE9D5
:1050D00001040422694606480494FEF770FD08B1F5
:1050E000FCF7C4FD0248FEF73BFD0EB010BD00000A
:1050F000AC0300203EB500241048009401940E49F2
:105100000294016041F63F71C0E9011441F2873118
:105110008461C160FEF762FB08B1FCF7A7FD009453
:10512000694606480294FEF723FB08B1FCF79EFD92
:105130000248FEF7B5FB3EBD00100040F80300201A
:105140000D4810B50B4901604FF416514160002124
:1051500081600C22C160C0E904128161C1610162F9
:105160004162FEF79AFE002803D0BDE81040FCF72C
:105170007DBD10BD00380140C80700200D4810B5A6
:105180000B4901604FF416514160002181600C22EF
:10519000C160C0E904128161C16101624162FEF730
:1051A0007CFE002803D0BDE81040FCF75FBD10BDB9
:1051B000004400404C0800200D4810B50B49016028
:1051C0004FF416514160002181600C22C160C0E99A
:1051D00004128161C16101624162FEF75EFE002836
:1051E00003D0BDE81040FCF741BD10BD00480040B1
:1051F000D0080020FEE700004FF4967110FB01F08C
:105200000149096888637047AC030020FEE7032169
:105210001420FFF7ABB910B51420FFF757FA800739
:1052200005D10321BDE810401420FFF76DBA10BD71
:1052300070B50646082188B000240846FFF796F9A5
:1052400000210D20FFF76CFA80210E20FFF78EF968
:1052500093208DF8040020208DF8050006A801ABEE
:105260000090022219460C20FFF78CF905000DD1A1
:10527000002101A8425C7254425C491C5440C9B2EE
:105280000429F7D3405CA04200D0FE2580210E20E7
:10529000FFF73AFA08B0284670BD30B587B08DF8F0
:1052A00004008DF80510002001A9145C0D18401CA5
:1052B000C0B2AC700628F8D300200C181A5C401C51
:1052C000C0B222720428F8D306A800900B460C2224
:1052D0000E20FFF757F9040004D10820FFF7F6F974
:1052E000000700D4FE2407B0204630BD00B587B0CB
:1052F00050208DF8040000208DF805000DF1060205
:10530000022101A8FFF700F906A801AB00900422D2
:1053100019460C20FFF736F907B000BD30B587B04D
:105320000D4630218DF8041001AC8DF805000221E6
:105330002046A21CFFF7E8F806A801AB0090042263
:1053400019460C20FFF71EF918B9BDF8181090295E
:1053500002D0FE2007B030BD0023E15CE9545B1CA5
:10536000DBB2102BF9D3F5E730B50C460546082122
:1053700087B00846FFF7FAF807210D20FFF7D0F9AC
:1053800003211420FFF7C0F906A801AB00908DF8A7
:105390000450012219460C20FFF7F4F8002809D127
:1053A000BDF81810102905D19DF8041021709DF842
:1053B0000510617007B030BD70B50122204DD402D8
:1053C00021462846FCF728FE0220FCF723FD002298
:1053D00021462846FCF720FE0220FCF71BFD012297
:1053E00021462846FCF718FE0220FCF713FD0F218A
:1053F0000120FFF795F90220FCF70CFD3D2111205B
:10540000FFF78EF91E212D20FFF78AF900212C20AD
:10541000FFF786F98D212A20FFF782F93E212B2004
:10542000FFF77EF940211520FFF77AF9FFF7EFFE2D
:105430000220FCF7EFFCBDE87040FFF7ECBE000077
:105440000004004810B588B093218DF80410702135
:105450008DF8051000218DF80A1001AA5418435C3C
:10546000A370445C9DF80A30491C6340C9B28DF8B2
:105470000A300429F2D3072101A8D21DFFF744F80E
:1054800008210846FFF772F806A801AB0090092230
:1054900019460C20FFF776F818B9BDF8181018292E
:1054A00000D0FE2008B010BD70B588B00D46A02118
:1054B0008DF8041001AC8DF8050002212046A21CD5
:1054C000FFF722F806AE01AB042219460C20009625
:1054D000FFF758F838BBBDF81800042823D19DF811
:1054E000040000F00F000A281DD10020295C21547F
:1054F000401CC0B21028F9D305AA102101A8FFF75B
:1055000003F801AB122219460C200096FFF73AF877
:1055100048B9BDF81810042905D19DF8041001F010
:105520000F010A2900D0FE2008B070BD2DE9F04F10
:105530009BB00F4604F08CFB060011D00024FF4DF9
:1055400040F2C239012F18D0022F7CD0FC4D4FF40D
:10555000866A05F57D78032F76D0042F1BD113E3DF
:1055600004F060FB0146F7A001F0C8FD304604F0EE
:1055700035FB01201BB000F04FBBF7A104F05AFB34
:10558000F7A1039004F056FB4069012804D00228DB
:105590007ED003287DD0DEE2F3A1039804F04AFB1D
:1055A00000690090F1A1039804F044FB00690FAB7F
:1055B0000EAAF0A1FAF778FFF0A1039804F03AFBE5
:1055C0000746F0A1039804F035FB00690CAB824656
:1055D00005AAEEA1FAF768FF786950B9EDA1039822
:1055E00004F028FB006906AB0DAAE8A10190FAF7C8
:1055F0005BFFE9A1039804F01DFB8346E8A1039833
:1056000004F018FB0A90E8A1039804F013FB09903A
:10561000E7A1039804F00EFB804628781428BAD23C
:1056200000EB400005EB001051461130FAF723FF64
:105630002878009900EB400005EB0010801CFAF779
:105640001AFF297801E0C2E191E201EB410105EB8B
:1056500001110E9881F8250029780F9801EB41017E
:1056600005EB011181F8260029789BF8140001EB65
:10567000410105EB011181F82D0029780A9801EB11
:10568000410105EB0111007D81F82E00099801E030
:105690005EE027E12978808A01EB410105EB0111E9
:1056A0000886297898F8140001EB410105EB0111F7
:1056B00081F82B002978059801EB410105EB0111D8
:1056C00081F8270029780C9801EB410105EB0111C5
:1056D00081F82800786908B32878B7A100EB40006A
:1056E00005EB00100988A0F81B10287800EB40009B
:1056F00005EB001080F82940287800EB400005EB0E
:10570000001080F82A402978387D01EB410105EB33
:10571000011181F82C002878401C56E129780D9859
:1057200001EB410105EB011181F829002978069868
:1057300001EB410105EB011181F82A00287801995C
:1057400000EB400005EB00101B30FAF794FEDAE79F
:10575000002485A1039804F06DFAD0F810A083A16D
:10576000039804F067FA00690FAB0EAA81A1FAF75B
:105770009BFE84A1039804F05DFA00690CAB80469F
:1057800005AA82A1FAF790FE82A1039804F052FACA
:10579000006906AB83460DAA7CA1FAF785FE7EA1BF
:1057A000039804F047FA0B907DA1039804F042FAA5
:1057B0000A907DA1039804F03DFA09907CA103981A
:1057C00004F038FA08906DA1039804F033FA074604
:1057D00004E02878A0420BD9641CE4B204EB440036
:1057E00005EB00115046891CFAF737FE0028F0D16E
:1057F0002878A04275D900EB400005EB0010414627
:105800001130FAF738FE2878594600EB400005EBD6
:1058100000101B30FAF72FFE2878514600EB4000AD
:1058200005EB0010801CFAF726FE29780E9801EB94
:10583000410105EB011181F8250029780F9801EB52
:10584000410105EB011181F8260029780B9801EB45
:10585000410105EB0111007D81F82D0029780A989E
:1058600001EB410105EB0111007D81F82E00297843
:10587000099801EB410105EB0111808A088629781E
:10588000089801EB410105EB0111007D81F82B0027
:105890002978059801EB410105EB011181F82700FA
:1058A00029780C9801EB410105EB011181F82800E2
:1058B00029780D9801EB410105EB011181F82900D0
:1058C0002978069801EB410105EB011181F82A00C6
:1058D0002978387D01EB410105EB011181F82C009D
:1058E000F1E038E1002420A1039804F0A3F907694E
:1058F00004E02878A0420BD9641CE4B204EB440015
:1059000005EB00113846891CFAF7A7FD0028F0D1F5
:10591000274610E007EB470005EB001303F13208C0
:105920004146981C3022FAF74DFD40463021FAF7E7
:1059300070FD7F1CFFB22878B8423FE0F8020010EB
:105940000C6B00204A534F4EB8F1CABDB4EDCEF3F4
:105950003A2573200D0A00007461736B000000008B
:10596000666C6167000000006E6F00007765656B14
:105970000000000025642D256400000073696E6737
:105980006C650000737461727400000025643A2530
:1059900064000000656E64006563686F00000000CD
:1059A0006C6576656C00000074696D650000000030
:1059B000737461747573000030000000AAD810F091
:1059C000FF008DD0A0427CD87DE028707BE072A1E2
:1059D00004F030F90746006971A1FAF725FDE0B33C
:1059E000142107A8FAF715FD71A13046139404F0AD
:1059F00021F9D0F8108071A1304604F01BF9AFF204
:105A000094010769304604F015F9057D03A800905C
:105A100001AB02AA6CA14046FAF746FD12A800901D
:105A200011AB14AA6BA13846FAF73EFD14988DF815
:105A30001C0011988DF81D0012988DF81E000A9414
:105A4000012207A966480B94FDF788FA8DF84C509F
:105A500002988DF84F00019800E007E08DF84D00A6
:105A600003988DF84E00012213A971E05DA13869F9
:105A7000FAF7DAFC68B35CA1304604F0DBF80446C0
:105A8000C068082803D15AA0616901F037FB247D62
:105A900011E000BF04EB440005EB001202F13207F5
:105AA000901C39463022FAF78DFC38463021FAF73F
:105AB000B0FC641CE4B22878A042EBD810F0FF00E0
:105AC00001D0401E81E74A4600214C4801F092FA7D
:105AD00041E0142107A8FAF79CFC36A13046169441
